{
  "address": "0x58331c1f139F27C265b42d126D4F2A10F5d68D7e",
  "abi": [
    {
      "inputs": [
        {
          "internalType": "address",
          "name": "underlying_",
          "type": "address"
        },
        {
          "internalType": "contract ComptrollerInterface",
          "name": "comptroller_",
          "type": "address"
        },
        {
          "internalType": "contract InterestRateModel",
          "name": "interestRateModel_",
          "type": "address"
        },
        {
          "internalType": "uint256",
          "name": "initialExchangeRateMantissa_",
          "type": "uint256"
        },
        {
          "internalType": "string",
          "name": "name_",
          "type": "string"
        },
        {
          "internalType": "string",
          "name": "symbol_",
          "type": "string"
        },
        {
          "internalType": "uint8",
          "name": "decimals_",
          "type": "uint8"
        },
        {
          "internalType": "address payable",
          "name": "admin_",
          "type": "address"
        },
        {
          "internalType": "address",
          "name": "implementation_",
          "type": "address"
        },
        {
          "internalType": "uint8",
          "name": "stable_",
          "type": "uint8"
        },
        {
          "internalType": "bytes",
          "name": "becomeImplementationData",
          "type": "bytes"
        }
      ],
      "stateMutability": "nonpayable",
      "type": "constructor"
    },
    {
      "anonymous": false,
      "inputs": [
        {
          "indexed": false,
          "internalType": "uint256",
          "name": "cashPrior",
          "type": "uint256"
        },
        {
          "indexed": false,
          "internalType": "uint256",
          "name": "interestAccumulated",
          "type": "uint256"
        },
        {
          "indexed": false,
          "internalType": "uint256",
          "name": "borrowIndex",
          "type": "uint256"
        },
        {
          "indexed": false,
          "internalType": "uint256",
          "name": "totalBorrows",
          "type": "uint256"
        }
      ],
      "name": "AccrueInterest",
      "type": "event"
    },
    {
      "anonymous": false,
      "inputs": [
        {
          "indexed": true,
          "internalType": "address",
          "name": "owner",
          "type": "address"
        },
        {
          "indexed": true,
          "internalType": "address",
          "name": "spender",
          "type": "address"
        },
        {
          "indexed": false,
          "internalType": "uint256",
          "name": "amount",
          "type": "uint256"
        }
      ],
      "name": "Approval",
      "type": "event"
    },
    {
      "anonymous": false,
      "inputs": [
        {
          "indexed": false,
          "internalType": "address",
          "name": "borrower",
          "type": "address"
        },
        {
          "indexed": false,
          "internalType": "uint256",
          "name": "borrowAmount",
          "type": "uint256"
        },
        {
          "indexed": false,
          "internalType": "uint256",
          "name": "accountBorrows",
          "type": "uint256"
        },
        {
          "indexed": false,
          "internalType": "uint256",
          "name": "totalBorrows",
          "type": "uint256"
        }
      ],
      "name": "Borrow",
      "type": "event"
    },
    {
      "anonymous": false,
      "inputs": [
        {
          "indexed": false,
          "internalType": "address",
          "name": "liquidator",
          "type": "address"
        },
        {
          "indexed": false,
          "internalType": "address",
          "name": "borrower",
          "type": "address"
        },
        {
          "indexed": false,
          "internalType": "uint256",
          "name": "repayAmount",
          "type": "uint256"
        },
        {
          "indexed": false,
          "internalType": "address",
          "name": "cTokenCollateral",
          "type": "address"
        },
        {
          "indexed": false,
          "internalType": "uint256",
          "name": "seizeTokens",
          "type": "uint256"
        }
      ],
      "name": "LiquidateBorrow",
      "type": "event"
    },
    {
      "anonymous": false,
      "inputs": [
        {
          "indexed": false,
          "internalType": "address",
          "name": "minter",
          "type": "address"
        },
        {
          "indexed": false,
          "internalType": "uint256",
          "name": "mintAmount",
          "type": "uint256"
        },
        {
          "indexed": false,
          "internalType": "uint256",
          "name": "mintTokens",
          "type": "uint256"
        }
      ],
      "name": "Mint",
      "type": "event"
    },
    {
      "anonymous": false,
      "inputs": [
        {
          "indexed": false,
          "internalType": "address",
          "name": "oldAdmin",
          "type": "address"
        },
        {
          "indexed": false,
          "internalType": "address",
          "name": "newAdmin",
          "type": "address"
        }
      ],
      "name": "NewAdmin",
      "type": "event"
    },
    {
      "anonymous": false,
      "inputs": [
        {
          "indexed": false,
          "internalType": "contract ComptrollerInterface",
          "name": "oldComptroller",
          "type": "address"
        },
        {
          "indexed": false,
          "internalType": "contract ComptrollerInterface",
          "name": "newComptroller",
          "type": "address"
        }
      ],
      "name": "NewComptroller",
      "type": "event"
    },
    {
      "anonymous": false,
      "inputs": [
        {
          "indexed": false,
          "internalType": "address",
          "name": "oldImplementation",
          "type": "address"
        },
        {
          "indexed": false,
          "internalType": "address",
          "name": "newImplementation",
          "type": "address"
        }
      ],
      "name": "NewImplementation",
      "type": "event"
    },
    {
      "anonymous": false,
      "inputs": [
        {
          "indexed": false,
          "internalType": "contract InterestRateModel",
          "name": "oldInterestRateModel",
          "type": "address"
        },
        {
          "indexed": false,
          "internalType": "contract InterestRateModel",
          "name": "newInterestRateModel",
          "type": "address"
        }
      ],
      "name": "NewMarketInterestRateModel",
      "type": "event"
    },
    {
      "anonymous": false,
      "inputs": [
        {
          "indexed": false,
          "internalType": "address",
          "name": "oldPendingAdmin",
          "type": "address"
        },
        {
          "indexed": false,
          "internalType": "address",
          "name": "newPendingAdmin",
          "type": "address"
        }
      ],
      "name": "NewPendingAdmin",
      "type": "event"
    },
    {
      "anonymous": false,
      "inputs": [
        {
          "indexed": false,
          "internalType": "uint256",
          "name": "oldReserveFactorMantissa",
          "type": "uint256"
        },
        {
          "indexed": false,
          "internalType": "uint256",
          "name": "newReserveFactorMantissa",
          "type": "uint256"
        }
      ],
      "name": "NewReserveFactor",
      "type": "event"
    },
    {
      "anonymous": false,
      "inputs": [
        {
          "indexed": false,
          "internalType": "address",
          "name": "redeemer",
          "type": "address"
        },
        {
          "indexed": false,
          "internalType": "uint256",
          "name": "redeemAmount",
          "type": "uint256"
        },
        {
          "indexed": false,
          "internalType": "uint256",
          "name": "redeemTokens",
          "type": "uint256"
        }
      ],
      "name": "Redeem",
      "type": "event"
    },
    {
      "anonymous": false,
      "inputs": [
        {
          "indexed": false,
          "internalType": "address",
          "name": "payer",
          "type": "address"
        },
        {
          "indexed": false,
          "internalType": "address",
          "name": "borrower",
          "type": "address"
        },
        {
          "indexed": false,
          "internalType": "uint256",
          "name": "repayAmount",
          "type": "uint256"
        },
        {
          "indexed": false,
          "internalType": "uint256",
          "name": "accountBorrows",
          "type": "uint256"
        },
        {
          "indexed": false,
          "internalType": "uint256",
          "name": "totalBorrows",
          "type": "uint256"
        }
      ],
      "name": "RepayBorrow",
      "type": "event"
    },
    {
      "anonymous": false,
      "inputs": [
        {
          "indexed": false,
          "internalType": "address",
          "name": "benefactor",
          "type": "address"
        },
        {
          "indexed": false,
          "internalType": "uint256",
          "name": "addAmount",
          "type": "uint256"
        },
        {
          "indexed": false,
          "internalType": "uint256",
          "name": "newTotalReserves",
          "type": "uint256"
        }
      ],
      "name": "ReservesAdded",
      "type": "event"
    },
    {
      "anonymous": false,
      "inputs": [
        {
          "indexed": false,
          "internalType": "address",
          "name": "admin",
          "type": "address"
        },
        {
          "indexed": false,
          "internalType": "uint256",
          "name": "reduceAmount",
          "type": "uint256"
        },
        {
          "indexed": false,
          "internalType": "uint256",
          "name": "newTotalReserves",
          "type": "uint256"
        }
      ],
      "name": "ReservesReduced",
      "type": "event"
    },
    {
      "anonymous": false,
      "inputs": [
        {
          "indexed": true,
          "internalType": "address",
          "name": "from",
          "type": "address"
        },
        {
          "indexed": true,
          "internalType": "address",
          "name": "to",
          "type": "address"
        },
        {
          "indexed": false,
          "internalType": "uint256",
          "name": "amount",
          "type": "uint256"
        }
      ],
      "name": "Transfer",
      "type": "event"
    },
    {
      "stateMutability": "payable",
      "type": "fallback"
    },
    {
      "inputs": [],
      "name": "_acceptAdmin",
      "outputs": [
        {
          "internalType": "uint256",
          "name": "",
          "type": "uint256"
        }
      ],
      "stateMutability": "nonpayable",
      "type": "function"
    },
    {
      "inputs": [
        {
          "internalType": "uint256",
          "name": "addAmount",
          "type": "uint256"
        }
      ],
      "name": "_addReserves",
      "outputs": [
        {
          "internalType": "uint256",
          "name": "",
          "type": "uint256"
        }
      ],
      "stateMutability": "nonpayable",
      "type": "function"
    },
    {
      "inputs": [
        {
          "internalType": "uint256",
          "name": "reduceAmount",
          "type": "uint256"
        }
      ],
      "name": "_reduceReserves",
      "outputs": [
        {
          "internalType": "uint256",
          "name": "",
          "type": "uint256"
        }
      ],
      "stateMutability": "nonpayable",
      "type": "function"
    },
    {
      "inputs": [
        {
          "internalType": "contract ComptrollerInterface",
          "name": "newComptroller",
          "type": "address"
        }
      ],
      "name": "_setComptroller",
      "outputs": [
        {
          "internalType": "uint256",
          "name": "",
          "type": "uint256"
        }
      ],
      "stateMutability": "nonpayable",
      "type": "function"
    },
    {
      "inputs": [
        {
          "internalType": "address",
          "name": "implementation_",
          "type": "address"
        },
        {
          "internalType": "bool",
          "name": "allowResign",
          "type": "bool"
        },
        {
          "internalType": "bytes",
          "name": "becomeImplementationData",
          "type": "bytes"
        }
      ],
      "name": "_setImplementation",
      "outputs": [],
      "stateMutability": "nonpayable",
      "type": "function"
    },
    {
      "inputs": [
        {
          "internalType": "contract InterestRateModel",
          "name": "newInterestRateModel",
          "type": "address"
        }
      ],
      "name": "_setInterestRateModel",
      "outputs": [
        {
          "internalType": "uint256",
          "name": "",
          "type": "uint256"
        }
      ],
      "stateMutability": "nonpayable",
      "type": "function"
    },
    {
      "inputs": [
        {
          "internalType": "address payable",
          "name": "newPendingAdmin",
          "type": "address"
        }
      ],
      "name": "_setPendingAdmin",
      "outputs": [
        {
          "internalType": "uint256",
          "name": "",
          "type": "uint256"
        }
      ],
      "stateMutability": "nonpayable",
      "type": "function"
    },
    {
      "inputs": [
        {
          "internalType": "uint256",
          "name": "newReserveFactorMantissa",
          "type": "uint256"
        }
      ],
      "name": "_setReserveFactor",
      "outputs": [
        {
          "internalType": "uint256",
          "name": "",
          "type": "uint256"
        }
      ],
      "stateMutability": "nonpayable",
      "type": "function"
    },
    {
      "inputs": [],
      "name": "accrualBlockNumber",
      "outputs": [
        {
          "internalType": "uint256",
          "name": "",
          "type": "uint256"
        }
      ],
      "stateMutability": "view",
      "type": "function"
    },
    {
      "inputs": [],
      "name": "accrueInterest",
      "outputs": [
        {
          "internalType": "uint256",
          "name": "",
          "type": "uint256"
        }
      ],
      "stateMutability": "nonpayable",
      "type": "function"
    },
    {
      "inputs": [],
      "name": "admin",
      "outputs": [
        {
          "internalType": "address payable",
          "name": "",
          "type": "address"
        }
      ],
      "stateMutability": "view",
      "type": "function"
    },
    {
      "inputs": [
        {
          "internalType": "address",
          "name": "owner",
          "type": "address"
        },
        {
          "internalType": "address",
          "name": "spender",
          "type": "address"
        }
      ],
      "name": "allowance",
      "outputs": [
        {
          "internalType": "uint256",
          "name": "",
          "type": "uint256"
        }
      ],
      "stateMutability": "view",
      "type": "function"
    },
    {
      "inputs": [
        {
          "internalType": "address",
          "name": "spender",
          "type": "address"
        },
        {
          "internalType": "uint256",
          "name": "amount",
          "type": "uint256"
        }
      ],
      "name": "approve",
      "outputs": [
        {
          "internalType": "bool",
          "name": "",
          "type": "bool"
        }
      ],
      "stateMutability": "nonpayable",
      "type": "function"
    },
    {
      "inputs": [
        {
          "internalType": "address",
          "name": "owner",
          "type": "address"
        }
      ],
      "name": "balanceOf",
      "outputs": [
        {
          "internalType": "uint256",
          "name": "",
          "type": "uint256"
        }
      ],
      "stateMutability": "view",
      "type": "function"
    },
    {
      "inputs": [
        {
          "internalType": "address",
          "name": "owner",
          "type": "address"
        }
      ],
      "name": "balanceOfUnderlying",
      "outputs": [
        {
          "internalType": "uint256",
          "name": "",
          "type": "uint256"
        }
      ],
      "stateMutability": "nonpayable",
      "type": "function"
    },
    {
      "inputs": [
        {
          "internalType": "uint256",
          "name": "borrowAmount",
          "type": "uint256"
        }
      ],
      "name": "borrow",
      "outputs": [
        {
          "internalType": "uint256",
          "name": "",
          "type": "uint256"
        }
      ],
      "stateMutability": "nonpayable",
      "type": "function"
    },
    {
      "inputs": [
        {
          "internalType": "address",
          "name": "account",
          "type": "address"
        }
      ],
      "name": "borrowBalanceCurrent",
      "outputs": [
        {
          "internalType": "uint256",
          "name": "",
          "type": "uint256"
        }
      ],
      "stateMutability": "nonpayable",
      "type": "function"
    },
    {
      "inputs": [
        {
          "internalType": "address",
          "name": "account",
          "type": "address"
        }
      ],
      "name": "borrowBalanceStored",
      "outputs": [
        {
          "internalType": "uint256",
          "name": "",
          "type": "uint256"
        }
      ],
      "stateMutability": "view",
      "type": "function"
    },
    {
      "inputs": [],
      "name": "borrowIndex",
      "outputs": [
        {
          "internalType": "uint256",
          "name": "",
          "type": "uint256"
        }
      ],
      "stateMutability": "view",
      "type": "function"
    },
    {
      "inputs": [],
      "name": "borrowRatePerBlock",
      "outputs": [
        {
          "internalType": "uint256",
          "name": "",
          "type": "uint256"
        }
      ],
      "stateMutability": "view",
      "type": "function"
    },
    {
      "inputs": [],
      "name": "comptroller",
      "outputs": [
        {
          "internalType": "contract ComptrollerInterface",
          "name": "",
          "type": "address"
        }
      ],
      "stateMutability": "view",
      "type": "function"
    },
    {
      "inputs": [],
      "name": "decimals",
      "outputs": [
        {
          "internalType": "uint8",
          "name": "",
          "type": "uint8"
        }
      ],
      "stateMutability": "view",
      "type": "function"
    },
    {
      "inputs": [
        {
          "internalType": "bytes",
          "name": "data",
          "type": "bytes"
        }
      ],
      "name": "delegateToImplementation",
      "outputs": [
        {
          "internalType": "bytes",
          "name": "",
          "type": "bytes"
        }
      ],
      "stateMutability": "nonpayable",
      "type": "function"
    },
    {
      "inputs": [
        {
          "internalType": "bytes",
          "name": "data",
          "type": "bytes"
        }
      ],
      "name": "delegateToViewImplementation",
      "outputs": [
        {
          "internalType": "bytes",
          "name": "",
          "type": "bytes"
        }
      ],
      "stateMutability": "view",
      "type": "function"
    },
    {
      "inputs": [],
      "name": "exchangeRateCurrent",
      "outputs": [
        {
          "internalType": "uint256",
          "name": "",
          "type": "uint256"
        }
      ],
      "stateMutability": "nonpayable",
      "type": "function"
    },
    {
      "inputs": [],
      "name": "exchangeRateStored",
      "outputs": [
        {
          "internalType": "uint256",
          "name": "",
          "type": "uint256"
        }
      ],
      "stateMutability": "view",
      "type": "function"
    },
    {
      "inputs": [
        {
          "internalType": "address",
          "name": "account",
          "type": "address"
        }
      ],
      "name": "getAccountSnapshot",
      "outputs": [
        {
          "internalType": "uint256",
          "name": "",
          "type": "uint256"
        },
        {
          "internalType": "uint256",
          "name": "",
          "type": "uint256"
        },
        {
          "internalType": "uint256",
          "name": "",
          "type": "uint256"
        },
        {
          "internalType": "uint256",
          "name": "",
          "type": "uint256"
        }
      ],
      "stateMutability": "view",
      "type": "function"
    },
    {
      "inputs": [],
      "name": "getCash",
      "outputs": [
        {
          "internalType": "uint256",
          "name": "",
          "type": "uint256"
        }
      ],
      "stateMutability": "view",
      "type": "function"
    },
    {
      "inputs": [],
      "name": "implementation",
      "outputs": [
        {
          "internalType": "address",
          "name": "",
          "type": "address"
        }
      ],
      "stateMutability": "view",
      "type": "function"
    },
    {
      "inputs": [],
      "name": "interestRateModel",
      "outputs": [
        {
          "internalType": "contract InterestRateModel",
          "name": "",
          "type": "address"
        }
      ],
      "stateMutability": "view",
      "type": "function"
    },
    {
      "inputs": [],
      "name": "isCToken",
      "outputs": [
        {
          "internalType": "bool",
          "name": "",
          "type": "bool"
        }
      ],
      "stateMutability": "view",
      "type": "function"
    },
    {
      "inputs": [
        {
          "internalType": "address",
          "name": "borrower",
          "type": "address"
        },
        {
          "internalType": "uint256",
          "name": "repayAmount",
          "type": "uint256"
        },
        {
          "internalType": "contract CTokenInterface",
          "name": "cTokenCollateral",
          "type": "address"
        }
      ],
      "name": "liquidateBorrow",
      "outputs": [
        {
          "internalType": "uint256",
          "name": "",
          "type": "uint256"
        }
      ],
      "stateMutability": "nonpayable",
      "type": "function"
    },
    {
      "inputs": [
        {
          "internalType": "uint256",
          "name": "mintAmount",
          "type": "uint256"
        }
      ],
      "name": "mint",
      "outputs": [
        {
          "internalType": "uint256",
          "name": "",
          "type": "uint256"
        }
      ],
      "stateMutability": "nonpayable",
      "type": "function"
    },
    {
      "inputs": [],
      "name": "name",
      "outputs": [
        {
          "internalType": "string",
          "name": "",
          "type": "string"
        }
      ],
      "stateMutability": "view",
      "type": "function"
    },
    {
      "inputs": [],
      "name": "pendingAdmin",
      "outputs": [
        {
          "internalType": "address payable",
          "name": "",
          "type": "address"
        }
      ],
      "stateMutability": "view",
      "type": "function"
    },
    {
      "inputs": [],
      "name": "protocolSeizeShareMantissa",
      "outputs": [
        {
          "internalType": "uint256",
          "name": "",
          "type": "uint256"
        }
      ],
      "stateMutability": "view",
      "type": "function"
    },
    {
      "inputs": [
        {
          "internalType": "uint256",
          "name": "redeemTokens",
          "type": "uint256"
        }
      ],
      "name": "redeem",
      "outputs": [
        {
          "internalType": "uint256",
          "name": "",
          "type": "uint256"
        }
      ],
      "stateMutability": "nonpayable",
      "type": "function"
    },
    {
      "inputs": [
        {
          "internalType": "uint256",
          "name": "redeemAmount",
          "type": "uint256"
        }
      ],
      "name": "redeemUnderlying",
      "outputs": [
        {
          "internalType": "uint256",
          "name": "",
          "type": "uint256"
        }
      ],
      "stateMutability": "nonpayable",
      "type": "function"
    },
    {
      "inputs": [
        {
          "internalType": "uint256",
          "name": "repayAmount",
          "type": "uint256"
        }
      ],
      "name": "repayBorrow",
      "outputs": [
        {
          "internalType": "uint256",
          "name": "",
          "type": "uint256"
        }
      ],
      "stateMutability": "nonpayable",
      "type": "function"
    },
    {
      "inputs": [
        {
          "internalType": "address",
          "name": "borrower",
          "type": "address"
        },
        {
          "internalType": "uint256",
          "name": "repayAmount",
          "type": "uint256"
        }
      ],
      "name": "repayBorrowBehalf",
      "outputs": [
        {
          "internalType": "uint256",
          "name": "",
          "type": "uint256"
        }
      ],
      "stateMutability": "nonpayable",
      "type": "function"
    },
    {
      "inputs": [],
      "name": "reserveFactorMantissa",
      "outputs": [
        {
          "internalType": "uint256",
          "name": "",
          "type": "uint256"
        }
      ],
      "stateMutability": "view",
      "type": "function"
    },
    {
      "inputs": [
        {
          "internalType": "address",
          "name": "liquidator",
          "type": "address"
        },
        {
          "internalType": "address",
          "name": "borrower",
          "type": "address"
        },
        {
          "internalType": "uint256",
          "name": "seizeTokens",
          "type": "uint256"
        }
      ],
      "name": "seize",
      "outputs": [
        {
          "internalType": "uint256",
          "name": "",
          "type": "uint256"
        }
      ],
      "stateMutability": "nonpayable",
      "type": "function"
    },
    {
      "inputs": [],
      "name": "stable",
      "outputs": [
        {
          "internalType": "uint8",
          "name": "",
          "type": "uint8"
        }
      ],
      "stateMutability": "view",
      "type": "function"
    },
    {
      "inputs": [],
      "name": "supplyRatePerBlock",
      "outputs": [
        {
          "internalType": "uint256",
          "name": "",
          "type": "uint256"
        }
      ],
      "stateMutability": "view",
      "type": "function"
    },
    {
      "inputs": [
        {
          "internalType": "contract EIP20NonStandardInterface",
          "name": "token",
          "type": "address"
        }
      ],
      "name": "sweepToken",
      "outputs": [],
      "stateMutability": "nonpayable",
      "type": "function"
    },
    {
      "inputs": [],
      "name": "symbol",
      "outputs": [
        {
          "internalType": "string",
          "name": "",
          "type": "string"
        }
      ],
      "stateMutability": "view",
      "type": "function"
    },
    {
      "inputs": [],
      "name": "totalBorrows",
      "outputs": [
        {
          "internalType": "uint256",
          "name": "",
          "type": "uint256"
        }
      ],
      "stateMutability": "view",
      "type": "function"
    },
    {
      "inputs": [],
      "name": "totalBorrowsCurrent",
      "outputs": [
        {
          "internalType": "uint256",
          "name": "",
          "type": "uint256"
        }
      ],
      "stateMutability": "nonpayable",
      "type": "function"
    },
    {
      "inputs": [],
      "name": "totalReserves",
      "outputs": [
        {
          "internalType": "uint256",
          "name": "",
          "type": "uint256"
        }
      ],
      "stateMutability": "view",
      "type": "function"
    },
    {
      "inputs": [],
      "name": "totalSupply",
      "outputs": [
        {
          "internalType": "uint256",
          "name": "",
          "type": "uint256"
        }
      ],
      "stateMutability": "view",
      "type": "function"
    },
    {
      "inputs": [
        {
          "internalType": "address",
          "name": "dst",
          "type": "address"
        },
        {
          "internalType": "uint256",
          "name": "amount",
          "type": "uint256"
        }
      ],
      "name": "transfer",
      "outputs": [
        {
          "internalType": "bool",
          "name": "",
          "type": "bool"
        }
      ],
      "stateMutability": "nonpayable",
      "type": "function"
    },
    {
      "inputs": [
        {
          "internalType": "address",
          "name": "src",
          "type": "address"
        },
        {
          "internalType": "address",
          "name": "dst",
          "type": "address"
        },
        {
          "internalType": "uint256",
          "name": "amount",
          "type": "uint256"
        }
      ],
      "name": "transferFrom",
      "outputs": [
        {
          "internalType": "bool",
          "name": "",
          "type": "bool"
        }
      ],
      "stateMutability": "nonpayable",
      "type": "function"
    },
    {
      "inputs": [],
      "name": "underlying",
      "outputs": [
        {
          "internalType": "address",
          "name": "",
          "type": "address"
        }
      ],
      "stateMutability": "view",
      "type": "function"
    }
  ],
  "transactionHash": "0x843e6afe62cfacb5f54cbe6299a049ac08667f1f90de325f69b76b9d6a47b020",
  "args": [
    "0x4BfE8f8526E6a6c44ece3eD093514c2124cEB87d",
    "0xe2f0a18d61F2c81cEE1F62e612ffeF0Fa003e960",
    "0x34cfa1DfF7927E67875E1B0928461005CEbF0bCE",
    "1000000000000000000",
    "CNote",
    "cNOTE",
    "18",
    "0x1e67D1727e467E1102D6a31c17fDB664945148AD",
    "0x7fbc4B2fa8D5ccD85E67D41c3B21C3EDaa1d6576",
    1,
    []
  ],
  "numDeployments": 3,
  "solcInputHash": "e0d58323eecab65c0e238d24be016b29",
  "bytecode": "0x60806040523480156200001157600080fd5b50604051620022743803806200227483398101604081905262000034916200041e565b60038054610100600160a81b0319163361010002179055604051620000a790849062000073908e908e908e908e908e908e908e908c906024016200057b565b60408051601f198184030181529190526020810180516001600160e01b0390811663f4fc613360e01b17909152620000ee16565b50620000b6836000836200016d565b5050600380546001600160a01b0390931661010002610100600160a81b031990931692909217909155506200062b9650505050505050565b6060600080846001600160a01b0316846040516200010d9190620005f1565b600060405180830381855af49150503d80600081146200014a576040519150601f19603f3d011682016040523d82523d6000602084013e6200014f565b606091505b5091509150600082141562000165573d60208201fd5b949350505050565b60035461010090046001600160a01b03163314620001f75760405162461bcd60e51b815260206004820152603960248201527f43457263323044656c656761746f723a3a5f736574496d706c656d656e74617460448201527f696f6e3a2043616c6c6572206d7573742062652061646d696e00000000000000606482015260840160405180910390fd5b811562000239576040805160048152602481019091526020810180516001600160e01b0390811663153ab50560e01b17909152620002379190620002f416565b505b601280546001600160a01b038581166001600160a01b0319831617909255604051911690620002a690620002729084906024016200060f565b60408051601f198184030181529190526020810180516001600160e01b03908116630adccee560e31b17909152620002f416565b50601254604080516001600160a01b03808516825290921660208301527fd604de94d45953f9138079ec1b82d533cb2160c906d1076d1f7ed54befbca97a910160405180910390a150505050565b6012546060906200030f906001600160a01b031683620000ee565b92915050565b80516001600160a01b03811681146200032d57600080fd5b919050565b634e487b7160e01b600052604160045260246000fd5b60005b83811015620003655781810151838201526020016200034b565b8381111562000375576000848401525b50505050565b600082601f8301126200038d57600080fd5b81516001600160401b0380821115620003aa57620003aa62000332565b604051601f8301601f19908116603f01168101908282118183101715620003d557620003d562000332565b81604052838152866020858801011115620003ef57600080fd5b6200040284602083016020890162000348565b9695505050505050565b805160ff811681146200032d57600080fd5b60008060008060008060008060008060006101608c8e0312156200044157600080fd5b6200044c8c62000315565b9a506200045c60208d0162000315565b99506200046c60408d0162000315565b60608d015160808e0151919a5098506001600160401b038111156200049057600080fd5b6200049e8e828f016200037b565b60a08e015190985090506001600160401b03811115620004bd57600080fd5b620004cb8e828f016200037b565b965050620004dc60c08d016200040c565b9450620004ec60e08d0162000315565b9350620004fd6101008d0162000315565b92506200050e6101208d016200040c565b6101408d01519092506001600160401b038111156200052c57600080fd5b6200053a8e828f016200037b565b9150509295989b509295989b9093969950565b600081518084526200056781602086016020860162000348565b601f01601f19169290920160200192915050565b6001600160a01b0389811682528881166020830152871660408201526060810186905261010060808201819052600090620005b9838201886200054d565b905082810360a0840152620005cf81876200054d565b91505060ff841660c083015260ff831660e08301529998505050505050505050565b600082516200060581846020870162000348565b9190910192915050565b6020815260006200062460208301846200054d565b9392505050565b611c39806200063b6000396000f3fe60806040526004361061031a5760003560e01c80636f307dc3116101ab578063b71d1a0c116100f7578063f2b3abbd11610095578063f851a4401161006f578063f851a44014610a03578063f8f9da2814610a28578063fca7820b14610a3d578063fe9c44ae14610a5d5761031a565b8063f2b3abbd146109a3578063f3fdb15a146109c3578063f5e3c462146109e35761031a565b8063c5ebeaec116100d1578063c5ebeaec1461092e578063db006a751461094e578063dd62ed3e1461096e578063e9c714f21461098e5761031a565b8063b71d1a0c146108b9578063bd6d894d146108d9578063c37f68e2146108ee5761031a565b806395dd919311610164578063a9059cbb1161013e578063a9059cbb1461084e578063aa5af0fd1461086e578063ae9d70b014610884578063b2a02ff1146108995761031a565b806395dd9193146107f9578063a0712d6814610819578063a6afed95146108395761031a565b80636f307dc31461075957806370a082311461077957806373acee9814610799578063852a12e3146107ae5780638f840ddd146107ce57806395d89b41146107e45761031a565b8063313ce5671161026a57806347bd3718116102235780635fe3b567116101fd5780635fe3b567146106e8578063601a0bf1146107085780636752e702146107285780636c540baf146107435761031a565b806347bd371814610692578063555bcc40146106a85780635c60da1b146106c85761031a565b8063313ce567146105e35780633af9e669146105fd5780633b1d21a21461061d5780633e941010146106325780634487152f146106525780634576b5db146106725761031a565b806318160ddd116102d757806322be3de1116102b157806322be3de11461053a57806323b872dd1461056b5780632608f8181461058b57806326782247146105ab5761031a565b806318160ddd146104ed578063182df0f5146105035780631be19560146105185761031a565b806306fdde031461040e5780630933c1ed14610439578063095ea7b3146104595780630e75270214610489578063173b9904146104b757806317bfdfbc146104cd575b34156103935760405162461bcd60e51b815260206004820152603760248201527f43457263323044656c656761746f723a66616c6c6261636b3a2063616e6e6f7460448201527f2073656e642076616c756520746f2066616c6c6261636b00000000000000000060648201526084015b60405180910390fd5b6012546040516000916001600160a01b0316906103b390839036906117b3565b600060405180830381855af49150503d80600081146103ee576040519150601f19603f3d011682016040523d82523d6000602084013e6103f3565b606091505b505090506040513d6000823e81801561040a573d82f35b3d82fd5b34801561041a57600080fd5b50610423610a72565b604051610430919061181f565b60405180910390f35b34801561044557600080fd5b506104236104543660046118f7565b610b00565b34801561046557600080fd5b50610479610474366004611944565b610b1f565b6040519015158152602001610430565b34801561049557600080fd5b506104a96104a4366004611970565b610b91565b604051908152602001610430565b3480156104c357600080fd5b506104a960085481565b3480156104d957600080fd5b506104a96104e8366004611989565b610bf6565b3480156104f957600080fd5b506104a9600d5481565b34801561050f57600080fd5b506104a9610c43565b34801561052457600080fd5b50610538610533366004611989565b610c96565b005b34801561054657600080fd5b5060005461055990610100900460ff1681565b60405160ff9091168152602001610430565b34801561057757600080fd5b506104796105863660046119a6565b610ce1565b34801561059757600080fd5b506104a96105a6366004611944565b610d5c565b3480156105b757600080fd5b506004546105cb906001600160a01b031681565b6040516001600160a01b039091168152602001610430565b3480156105ef57600080fd5b506003546105599060ff1681565b34801561060957600080fd5b506104a9610618366004611989565b610dc6565b34801561062957600080fd5b506104a9610e13565b34801561063e57600080fd5b506104a961064d366004611970565b610e4a565b34801561065e57600080fd5b5061042361066d3660046118f7565b610e92565b34801561067e57600080fd5b506104a961068d366004611989565b610f50565b34801561069e57600080fd5b506104a9600b5481565b3480156106b457600080fd5b506105386106c33660046119f5565b610f9d565b3480156106d457600080fd5b506012546105cb906001600160a01b031681565b3480156106f457600080fd5b506005546105cb906001600160a01b031681565b34801561071457600080fd5b506104a9610723366004611970565b61110f565b34801561073457600080fd5b506104a9666379da05b6000081565b34801561074f57600080fd5b506104a960095481565b34801561076557600080fd5b506011546105cb906001600160a01b031681565b34801561078557600080fd5b506104a9610794366004611989565b611157565b3480156107a557600080fd5b506104a96111a4565b3480156107ba57600080fd5b506104a96107c9366004611970565b6111db565b3480156107da57600080fd5b506104a9600c5481565b3480156107f057600080fd5b50610423611223565b34801561080557600080fd5b506104a9610814366004611989565b611230565b34801561082557600080fd5b506104a9610834366004611970565b61127d565b34801561084557600080fd5b506104a96112c5565b34801561085a57600080fd5b50610479610869366004611944565b6112fc565b34801561087a57600080fd5b506104a9600a5481565b34801561089057600080fd5b506104a9611350565b3480156108a557600080fd5b506104a96108b43660046119a6565b611387565b3480156108c557600080fd5b506104a96108d4366004611989565b6113f9565b3480156108e557600080fd5b506104a9611446565b3480156108fa57600080fd5b5061090e610909366004611989565b61147d565b604080519485526020850193909352918301526060820152608001610430565b34801561093a57600080fd5b506104a9610949366004611970565b6114fd565b34801561095a57600080fd5b506104a9610969366004611970565b611545565b34801561097a57600080fd5b506104a9610989366004611a57565b61158d565b34801561099a57600080fd5b506104a96115e2565b3480156109af57600080fd5b506104a96109be366004611989565b611619565b3480156109cf57600080fd5b506006546105cb906001600160a01b031681565b3480156109ef57600080fd5b506104a96109fe366004611a90565b611666565b348015610a0f57600080fd5b506003546105cb9061010090046001600160a01b031681565b348015610a3457600080fd5b506104a96116c2565b348015610a4957600080fd5b506104a9610a58366004611970565b6116f9565b348015610a6957600080fd5b50610479600181565b60018054610a7f90611ad2565b80601f0160208091040260200160405190810160405280929190818152602001828054610aab90611ad2565b8015610af85780601f10610acd57610100808354040283529160200191610af8565b820191906000526020600020905b815481529060010190602001808311610adb57829003601f168201915b505050505081565b601254606090610b19906001600160a01b031683611741565b92915050565b6040516001600160a01b0383166024820152604481018290526000908190610b739060640160408051601f198184030181529190526020810180516001600160e01b031663095ea7b360e01b179052610b00565b905080806020019051810190610b899190611b0d565b949350505050565b600080610bd983604051602401610baa91815260200190565b60408051601f198184030181529190526020810180516001600160e01b031663073a938160e11b179052610b00565b905080806020019051810190610bef9190611b2a565b9392505050565b6040516001600160a01b03821660248201526000908190610bd99060440160408051601f198184030181529190526020810180516001600160e01b03166305eff7ef60e21b179052610b00565b6040805160048152602481019091526020810180516001600160e01b031663182df0f560e01b1790526000908190610c7a90610e92565b905080806020019051810190610c909190611b2a565b91505090565b6040516001600160a01b0382166024820152610cdd9060440160408051601f198184030181529190526020810180516001600160e01b031662df0cab60e51b179052610b00565b5050565b6040516001600160a01b03808516602483015283166044820152606481018290526000908190610d3d9060840160408051601f198184030181529190526020810180516001600160e01b03166323b872dd60e01b179052610b00565b905080806020019051810190610d539190611b0d565b95945050505050565b6040516001600160a01b0383166024820152604481018290526000908190610db09060640160408051601f198184030181529190526020810180516001600160e01b03166304c11f0360e31b179052610b00565b905080806020019051810190610b899190611b2a565b6040516001600160a01b03821660248201526000908190610bd99060440160408051601f198184030181529190526020810180516001600160e01b0316633af9e66960e01b179052610b00565b6040805160048152602481019091526020810180516001600160e01b0316631d8e90d160e11b1790526000908190610c7a90610e92565b600080610bd983604051602401610e6391815260200190565b60408051601f198184030181529190526020810180516001600160e01b03166303e9410160e41b179052610b00565b6060600080306001600160a01b031684604051602401610eb2919061181f565b60408051601f198184030181529181526020820180516001600160e01b0316630933c1ed60e01b17905251610ee79190611b43565b600060405180830381855afa9150503d8060008114610f22576040519150601f19603f3d011682016040523d82523d6000602084013e610f27565b606091505b50915091506000821415610f3c573d60208201fd5b80806020019051810190610b899190611b5f565b6040516001600160a01b03821660248201526000908190610bd99060440160408051601f198184030181529190526020810180516001600160e01b0316634576b5db60e01b179052610b00565b60035461010090046001600160a01b031633146110225760405162461bcd60e51b815260206004820152603960248201527f43457263323044656c656761746f723a3a5f736574496d706c656d656e74617460448201527f696f6e3a2043616c6c6572206d7573742062652061646d696e00000000000000606482015260840161038a565b811561105c576040805160048152602481019091526020810180516001600160e01b031663153ab50560e01b17905261105a90610b00565b505b601280546001600160a01b038581166001600160a01b03198316179092556040519116906110c19061109290849060240161181f565b60408051601f198184030181529190526020810180516001600160e01b0316630adccee560e31b179052610b00565b50601254604080516001600160a01b03808516825290921660208301527fd604de94d45953f9138079ec1b82d533cb2160c906d1076d1f7ed54befbca97a910160405180910390a150505050565b600080610bd98360405160240161112891815260200190565b60408051601f198184030181529190526020810180516001600160e01b031663601a0bf160e01b179052610b00565b6040516001600160a01b03821660248201526000908190610bd99060440160408051601f198184030181529190526020810180516001600160e01b03166370a0823160e01b179052610e92565b6040805160048152602481019091526020810180516001600160e01b0316630e759dd360e31b1790526000908190610c7a90610b00565b600080610bd9836040516024016111f491815260200190565b60408051601f198184030181529190526020810180516001600160e01b031663852a12e360e01b179052610b00565b60028054610a7f90611ad2565b6040516001600160a01b03821660248201526000908190610bd99060440160408051601f198184030181529190526020810180516001600160e01b03166395dd919360e01b179052610e92565b600080610bd98360405160240161129691815260200190565b60408051601f198184030181529190526020810180516001600160e01b031663140e25ad60e31b179052610b00565b6040805160048152602481019091526020810180516001600160e01b031663a6afed9560e01b1790526000908190610c7a90610b00565b6040516001600160a01b0383166024820152604481018290526000908190610b739060640160408051601f198184030181529190526020810180516001600160e01b031663a9059cbb60e01b179052610b00565b6040805160048152602481019091526020810180516001600160e01b0316630ae9d70b60e41b1790526000908190610c7a90610e92565b6040516001600160a01b038085166024830152831660448201526064810182905260009081906113e39060840160408051601f198184030181529190526020810180516001600160e01b031663b2a02ff160e01b179052610b00565b905080806020019051810190610d539190611b2a565b6040516001600160a01b03821660248201526000908190610bd99060440160408051601f198184030181529190526020810180516001600160e01b0316632dc7468360e21b179052610b00565b6040805160048152602481019091526020810180516001600160e01b031663bd6d894d60e01b1790526000908190610c7a90610b00565b60008060008060006114d7866040516024016114a891906001600160a01b0391909116815260200190565b60408051601f198184030181529190526020810180516001600160e01b03166361bfb47160e11b179052610e92565b9050808060200190518101906114ed9190611bcd565b9450945094509450509193509193565b600080610bd98360405160240161151691815260200190565b60408051601f198184030181529190526020810180516001600160e01b031663317afabb60e21b179052610b00565b600080610bd98360405160240161155e91815260200190565b60408051601f198184030181529190526020810180516001600160e01b031663db006a7560e01b179052610b00565b6040516001600160a01b038084166024830152821660448201526000908190610db09060640160408051601f198184030181529190526020810180516001600160e01b0316636eb1769f60e11b179052610e92565b6040805160048152602481019091526020810180516001600160e01b03166374e38a7960e11b1790526000908190610c7a90610b00565b6040516001600160a01b03821660248201526000908190610bd99060440160408051601f198184030181529190526020810180516001600160e01b031663f2b3abbd60e01b179052610b00565b6040516001600160a01b038085166024830152604482018490528216606482015260009081906113e39060840160408051601f198184030181529190526020810180516001600160e01b0316637af1e23160e11b179052610b00565b6040805160048152602481019091526020810180516001600160e01b0316631f1f3b4560e31b1790526000908190610c7a90610e92565b600080610bd98360405160240161171291815260200190565b60408051601f198184030181529190526020810180516001600160e01b031663fca7820b60e01b179052610b00565b6060600080846001600160a01b03168460405161175e9190611b43565b600060405180830381855af49150503d8060008114611799576040519150601f19603f3d011682016040523d82523d6000602084013e61179e565b606091505b50915091506000821415610b89573d60208201fd5b8183823760009101908152919050565b60005b838110156117de5781810151838201526020016117c6565b838111156117ed576000848401525b50505050565b6000815180845261180b8160208601602086016117c3565b601f01601f19169290920160200192915050565b602081526000610bef60208301846117f3565b634e487b7160e01b600052604160045260246000fd5b604051601f8201601f1916810167ffffffffffffffff8111828210171561187157611871611832565b604052919050565b600067ffffffffffffffff82111561189357611893611832565b50601f01601f191660200190565b600082601f8301126118b257600080fd5b81356118c56118c082611879565b611848565b8181528460208386010111156118da57600080fd5b816020850160208301376000918101602001919091529392505050565b60006020828403121561190957600080fd5b813567ffffffffffffffff81111561192057600080fd5b610b89848285016118a1565b6001600160a01b038116811461194157600080fd5b50565b6000806040838503121561195757600080fd5b82356119628161192c565b946020939093013593505050565b60006020828403121561198257600080fd5b5035919050565b60006020828403121561199b57600080fd5b8135610bef8161192c565b6000806000606084860312156119bb57600080fd5b83356119c68161192c565b925060208401356119d68161192c565b929592945050506040919091013590565b801515811461194157600080fd5b600080600060608486031215611a0a57600080fd5b8335611a158161192c565b92506020840135611a25816119e7565b9150604084013567ffffffffffffffff811115611a4157600080fd5b611a4d868287016118a1565b9150509250925092565b60008060408385031215611a6a57600080fd5b8235611a758161192c565b91506020830135611a858161192c565b809150509250929050565b600080600060608486031215611aa557600080fd5b8335611ab08161192c565b9250602084013591506040840135611ac78161192c565b809150509250925092565b600181811c90821680611ae657607f821691505b60208210811415611b0757634e487b7160e01b600052602260045260246000fd5b50919050565b600060208284031215611b1f57600080fd5b8151610bef816119e7565b600060208284031215611b3c57600080fd5b5051919050565b60008251611b558184602087016117c3565b9190910192915050565b600060208284031215611b7157600080fd5b815167ffffffffffffffff811115611b8857600080fd5b8201601f81018413611b9957600080fd5b8051611ba76118c082611879565b818152856020838501011115611bbc57600080fd5b610d538260208301602086016117c3565b60008060008060808587031215611be357600080fd5b50508251602084015160408501516060909501519196909550909250905056fea26469706673582212208d8db43619183b0e28d1442477257b2e89ca9c3a5b6e0e12bd0375fc83772de264736f6c634300080b0033",
  "devdoc": {
    "author": "Compound",
    "kind": "dev",
    "methods": {
      "_acceptAdmin()": {
        "details": "Admin function for pending admin to accept role and update admin",
        "returns": {
          "_0": "uint 0=success, otherwise a failure (see ErrorReporter.sol for details)"
        }
      },
      "_addReserves(uint256)": {
        "params": {
          "addAmount": "Amount of reserves to add"
        },
        "returns": {
          "_0": "uint 0=success, otherwise a failure (see ErrorReporter.sol for details)"
        }
      },
      "_reduceReserves(uint256)": {
        "params": {
          "reduceAmount": "Amount of reduction to reserves"
        },
        "returns": {
          "_0": "uint 0=success, otherwise a failure (see ErrorReporter.sol for details)"
        }
      },
      "_setComptroller(address)": {
        "details": "Admin function to set a new comptroller",
        "returns": {
          "_0": "uint 0=success, otherwise a failure (see ErrorReporter.sol for details)"
        }
      },
      "_setImplementation(address,bool,bytes)": {
        "params": {
          "allowResign": "Flag to indicate whether to call _resignImplementation on the old implementation",
          "becomeImplementationData": "The encoded bytes data to be passed to _becomeImplementation",
          "implementation_": "The address of the new implementation for delegation"
        }
      },
      "_setInterestRateModel(address)": {
        "details": "Admin function to accrue interest and update the interest rate model",
        "params": {
          "newInterestRateModel": "the new interest rate model to use"
        },
        "returns": {
          "_0": "uint 0=success, otherwise a failure (see ErrorReporter.sol for details)"
        }
      },
      "_setPendingAdmin(address)": {
        "details": "Admin function to begin change of admin. The newPendingAdmin must call `_acceptAdmin` to finalize the transfer.",
        "params": {
          "newPendingAdmin": "New pending admin."
        },
        "returns": {
          "_0": "uint 0=success, otherwise a failure (see ErrorReporter.sol for details)"
        }
      },
      "_setReserveFactor(uint256)": {
        "details": "Admin function to accrue interest and set a new reserve factor",
        "returns": {
          "_0": "uint 0=success, otherwise a failure (see ErrorReporter.sol for details)"
        }
      },
      "accrueInterest()": {
        "details": "This calculates interest accrued from the last checkpointed block      up to the current block and writes new checkpoint to storage."
      },
      "allowance(address,address)": {
        "params": {
          "owner": "The address of the account which owns the tokens to be spent",
          "spender": "The address of the account which may transfer tokens"
        },
        "returns": {
          "_0": "The number of tokens allowed to be spent (-1 means infinite)"
        }
      },
      "approve(address,uint256)": {
        "details": "This will overwrite the approval amount for `spender`  and is subject to issues noted [here](https://eips.ethereum.org/EIPS/eip-20#approve)",
        "params": {
          "amount": "The number of tokens that are approved (-1 means infinite)",
          "spender": "The address of the account which may transfer tokens"
        },
        "returns": {
          "_0": "Whether or not the approval succeeded"
        }
      },
      "balanceOf(address)": {
        "params": {
          "owner": "The address of the account to query"
        },
        "returns": {
          "_0": "The number of tokens owned by `owner`"
        }
      },
      "balanceOfUnderlying(address)": {
        "details": "This also accrues interest in a transaction",
        "params": {
          "owner": "The address of the account to query"
        },
        "returns": {
          "_0": "The amount of underlying owned by `owner`"
        }
      },
      "borrow(uint256)": {
        "params": {
          "borrowAmount": "The amount of the underlying asset to borrow"
        },
        "returns": {
          "_0": "uint 0=success, otherwise a failure (see ErrorReporter.sol for details)"
        }
      },
      "borrowBalanceCurrent(address)": {
        "params": {
          "account": "The address whose balance should be calculated after updating borrowIndex"
        },
        "returns": {
          "_0": "The calculated balance"
        }
      },
      "borrowBalanceStored(address)": {
        "params": {
          "account": "The address whose balance should be calculated"
        },
        "returns": {
          "_0": "The calculated balance"
        }
      },
      "borrowRatePerBlock()": {
        "returns": {
          "_0": "The borrow interest rate per block, scaled by 1e18"
        }
      },
      "constructor": {
        "params": {
          "admin_": "Address of the administrator of this token",
          "becomeImplementationData": "The encoded args for becomeImplementation",
          "comptroller_": "The address of the Comptroller",
          "decimals_": "ERC-20 decimal precision of this token",
          "implementation_": "The address of the implementation the contract delegates to",
          "initialExchangeRateMantissa_": "The initial exchange rate, scaled by 1e18",
          "interestRateModel_": "The address of the interest rate model",
          "name_": "ERC-20 name of this token",
          "symbol_": "ERC-20 symbol of this token",
          "underlying_": "The address of the underlying asset"
        }
      },
      "delegateToImplementation(bytes)": {
        "details": "It returns to the external caller whatever the implementation returns or forwards reverts",
        "params": {
          "data": "The raw data to delegatecall"
        },
        "returns": {
          "_0": "The returned bytes from the delegatecall"
        }
      },
      "delegateToViewImplementation(bytes)": {
        "details": "It returns to the external caller whatever the implementation returns or forwards reverts  There are an additional 2 prefix uints from the wrapper returndata, which we ignore since we make an extra hop.",
        "params": {
          "data": "The raw data to delegatecall"
        },
        "returns": {
          "_0": "The returned bytes from the delegatecall"
        }
      },
      "exchangeRateCurrent()": {
        "returns": {
          "_0": "Calculated exchange rate scaled by 1e18"
        }
      },
      "exchangeRateStored()": {
        "details": "This function does not accrue interest before calculating the exchange rate",
        "returns": {
          "_0": "Calculated exchange rate scaled by 1e18"
        }
      },
      "getAccountSnapshot(address)": {
        "details": "This is used by comptroller to more efficiently perform liquidity checks.",
        "params": {
          "account": "Address of the account to snapshot"
        },
        "returns": {
          "_0": "(possible error, token balance, borrow balance, exchange rate mantissa)"
        }
      },
      "getCash()": {
        "returns": {
          "_0": "The quantity of underlying asset owned by this contract"
        }
      },
      "liquidateBorrow(address,uint256,address)": {
        "params": {
          "borrower": "The borrower of this cToken to be liquidated",
          "cTokenCollateral": "The market in which to seize collateral from the borrower",
          "repayAmount": "The amount of the underlying borrowed asset to repay"
        },
        "returns": {
          "_0": "uint 0=success, otherwise a failure (see ErrorReporter.sol for details)"
        }
      },
      "mint(uint256)": {
        "details": "Accrues interest whether or not the operation succeeds, unless reverted",
        "params": {
          "mintAmount": "The amount of the underlying asset to supply"
        },
        "returns": {
          "_0": "uint 0=success, otherwise a failure (see ErrorReporter.sol for details)"
        }
      },
      "redeem(uint256)": {
        "details": "Accrues interest whether or not the operation succeeds, unless reverted",
        "params": {
          "redeemTokens": "The number of cTokens to redeem into underlying"
        },
        "returns": {
          "_0": "uint 0=success, otherwise a failure (see ErrorReporter.sol for details)"
        }
      },
      "redeemUnderlying(uint256)": {
        "details": "Accrues interest whether or not the operation succeeds, unless reverted",
        "params": {
          "redeemAmount": "The amount of underlying to redeem"
        },
        "returns": {
          "_0": "uint 0=success, otherwise a failure (see ErrorReporter.sol for details)"
        }
      },
      "repayBorrow(uint256)": {
        "params": {
          "repayAmount": "The amount to repay, or -1 for the full outstanding amount"
        },
        "returns": {
          "_0": "uint 0=success, otherwise a failure (see ErrorReporter.sol for details)"
        }
      },
      "repayBorrowBehalf(address,uint256)": {
        "params": {
          "borrower": "the account with the debt being payed off",
          "repayAmount": "The amount to repay, or -1 for the full outstanding amount"
        },
        "returns": {
          "_0": "uint 0=success, otherwise a failure (see ErrorReporter.sol for details)"
        }
      },
      "seize(address,address,uint256)": {
        "details": "Will fail unless called by another cToken during the process of liquidation.  Its absolutely critical to use msg.sender as the borrowed cToken and not a parameter.",
        "params": {
          "borrower": "The account having collateral seized",
          "liquidator": "The account receiving seized collateral",
          "seizeTokens": "The number of cTokens to seize"
        },
        "returns": {
          "_0": "uint 0=success, otherwise a failure (see ErrorReporter.sol for details)"
        }
      },
      "supplyRatePerBlock()": {
        "returns": {
          "_0": "The supply interest rate per block, scaled by 1e18"
        }
      },
      "sweepToken(address)": {
        "params": {
          "token": "The address of the ERC-20 token to sweep"
        }
      },
      "totalBorrowsCurrent()": {
        "returns": {
          "_0": "The total borrows with interest"
        }
      },
      "transfer(address,uint256)": {
        "params": {
          "amount": "The number of tokens to transfer",
          "dst": "The address of the destination account"
        },
        "returns": {
          "_0": "Whether or not the transfer succeeded"
        }
      },
      "transferFrom(address,address,uint256)": {
        "params": {
          "amount": "The number of tokens to transfer",
          "dst": "The address of the destination account",
          "src": "The address of the source account"
        },
        "returns": {
          "_0": "Whether or not the transfer succeeded"
        }
      }
    },
    "title": "Compound's CErc20Delegator Contract",
    "version": 1
  },
  "userdoc": {
    "events": {
      "AccrueInterest(uint256,uint256,uint256,uint256)": {
        "notice": "Event emitted when interest is accrued"
      },
      "Approval(address,address,uint256)": {
        "notice": "EIP20 Approval event"
      },
      "Borrow(address,uint256,uint256,uint256)": {
        "notice": "Event emitted when underlying is borrowed"
      },
      "LiquidateBorrow(address,address,uint256,address,uint256)": {
        "notice": "Event emitted when a borrow is liquidated"
      },
      "Mint(address,uint256,uint256)": {
        "notice": "Event emitted when tokens are minted"
      },
      "NewAdmin(address,address)": {
        "notice": "Event emitted when pendingAdmin is accepted, which means admin is updated"
      },
      "NewComptroller(address,address)": {
        "notice": "Event emitted when comptroller is changed"
      },
      "NewImplementation(address,address)": {
        "notice": "Emitted when implementation is changed"
      },
      "NewMarketInterestRateModel(address,address)": {
        "notice": "Event emitted when interestRateModel is changed"
      },
      "NewPendingAdmin(address,address)": {
        "notice": "Event emitted when pendingAdmin is changed"
      },
      "NewReserveFactor(uint256,uint256)": {
        "notice": "Event emitted when the reserve factor is changed"
      },
      "Redeem(address,uint256,uint256)": {
        "notice": "Event emitted when tokens are redeemed"
      },
      "RepayBorrow(address,address,uint256,uint256,uint256)": {
        "notice": "Event emitted when a borrow is repaid"
      },
      "ReservesAdded(address,uint256,uint256)": {
        "notice": "Event emitted when the reserves are added"
      },
      "ReservesReduced(address,uint256,uint256)": {
        "notice": "Event emitted when the reserves are reduced"
      },
      "Transfer(address,address,uint256)": {
        "notice": "EIP20 Transfer event"
      }
    },
    "kind": "user",
    "methods": {
      "_acceptAdmin()": {
        "notice": "Accepts transfer of admin rights. msg.sender must be pendingAdmin"
      },
      "_addReserves(uint256)": {
        "notice": "Accrues interest and adds reserves by transferring from admin"
      },
      "_reduceReserves(uint256)": {
        "notice": "Accrues interest and reduces reserves by transferring to admin"
      },
      "_setComptroller(address)": {
        "notice": "Sets a new comptroller for the market"
      },
      "_setImplementation(address,bool,bytes)": {
        "notice": "Called by the admin to update the implementation of the delegator"
      },
      "_setInterestRateModel(address)": {
        "notice": "Accrues interest and updates the interest rate model using _setInterestRateModelFresh"
      },
      "_setPendingAdmin(address)": {
        "notice": "Begins transfer of admin rights. The newPendingAdmin must call `_acceptAdmin` to finalize the transfer."
      },
      "_setReserveFactor(uint256)": {
        "notice": "accrues interest and sets a new reserve factor for the protocol using _setReserveFactorFresh"
      },
      "accrualBlockNumber()": {
        "notice": "Block number that interest was last accrued at"
      },
      "accrueInterest()": {
        "notice": "Applies accrued interest to total borrows and reserves."
      },
      "admin()": {
        "notice": "Administrator for this contract"
      },
      "allowance(address,address)": {
        "notice": "Get the current allowance from `owner` for `spender`"
      },
      "approve(address,uint256)": {
        "notice": "Approve `spender` to transfer up to `amount` from `src`"
      },
      "balanceOf(address)": {
        "notice": "Get the token balance of the `owner`"
      },
      "balanceOfUnderlying(address)": {
        "notice": "Get the underlying balance of the `owner`"
      },
      "borrow(uint256)": {
        "notice": "Sender borrows assets from the protocol to their own address"
      },
      "borrowBalanceCurrent(address)": {
        "notice": "Accrue interest to updated borrowIndex and then calculate account's borrow balance using the updated borrowIndex"
      },
      "borrowBalanceStored(address)": {
        "notice": "Return the borrow balance of account based on stored data"
      },
      "borrowIndex()": {
        "notice": "Accumulator of the total earned interest rate since the opening of the market"
      },
      "borrowRatePerBlock()": {
        "notice": "Returns the current per-block borrow interest rate for this cToken"
      },
      "comptroller()": {
        "notice": "Contract which oversees inter-cToken operations"
      },
      "constructor": {
        "notice": "Construct a new money market"
      },
      "decimals()": {
        "notice": "EIP-20 token decimals for this token"
      },
      "delegateToImplementation(bytes)": {
        "notice": "Delegates execution to the implementation contract"
      },
      "delegateToViewImplementation(bytes)": {
        "notice": "Delegates execution to an implementation contract"
      },
      "exchangeRateCurrent()": {
        "notice": "Accrue interest then return the up-to-date exchange rate"
      },
      "exchangeRateStored()": {
        "notice": "Calculates the exchange rate from the underlying to the CToken"
      },
      "getAccountSnapshot(address)": {
        "notice": "Get a snapshot of the account's balances, and the cached exchange rate"
      },
      "getCash()": {
        "notice": "Get cash balance of this cToken in the underlying asset"
      },
      "implementation()": {
        "notice": "Implementation address for this contract"
      },
      "interestRateModel()": {
        "notice": "Model which tells what the current interest rate should be"
      },
      "isCToken()": {
        "notice": "Indicator that this is a CToken contract (for inspection)"
      },
      "liquidateBorrow(address,uint256,address)": {
        "notice": "The sender liquidates the borrowers collateral.  The collateral seized is transferred to the liquidator."
      },
      "mint(uint256)": {
        "notice": "Sender supplies assets into the market and receives cTokens in exchange"
      },
      "name()": {
        "notice": "EIP-20 token name for this token"
      },
      "pendingAdmin()": {
        "notice": "Pending administrator for this contract"
      },
      "protocolSeizeShareMantissa()": {
        "notice": "Share of seized collateral that is added to reserves"
      },
      "redeem(uint256)": {
        "notice": "Sender redeems cTokens in exchange for the underlying asset"
      },
      "redeemUnderlying(uint256)": {
        "notice": "Sender redeems cTokens in exchange for a specified amount of underlying asset"
      },
      "repayBorrow(uint256)": {
        "notice": "Sender repays their own borrow"
      },
      "repayBorrowBehalf(address,uint256)": {
        "notice": "Sender repays a borrow belonging to borrower"
      },
      "reserveFactorMantissa()": {
        "notice": "Fraction of interest currently set aside for reserves"
      },
      "seize(address,address,uint256)": {
        "notice": "Transfers collateral tokens (this market) to the liquidator."
      },
      "supplyRatePerBlock()": {
        "notice": "Returns the current per-block supply interest rate for this cToken"
      },
      "sweepToken(address)": {
        "notice": "A public function to sweep accidental ERC-20 transfers to this contract. Tokens are sent to admin (timelock)"
      },
      "symbol()": {
        "notice": "EIP-20 token symbol for this token"
      },
      "totalBorrows()": {
        "notice": "Total amount of outstanding borrows of the underlying in this market"
      },
      "totalBorrowsCurrent()": {
        "notice": "Returns the current total borrows plus accrued interest"
      },
      "totalReserves()": {
        "notice": "Total amount of reserves of the underlying held in this market"
      },
      "totalSupply()": {
        "notice": "Total number of tokens in circulation"
      },
      "transfer(address,uint256)": {
        "notice": "Transfer `amount` tokens from `msg.sender` to `dst`"
      },
      "transferFrom(address,address,uint256)": {
        "notice": "Transfer `amount` tokens from `src` to `dst`"
      },
      "underlying()": {
        "notice": "Underlying asset for this CToken"
      }
    },
    "notice": "CTokens which wrap an EIP-20 underlying and delegate to an implementation",
    "version": 1
  },
  "storageLayout": {
    "storage": [
      {
        "astId": 5979,
        "contract": "contracts/CErc20Delegator.sol:CErc20Delegator",
        "label": "_notEntered",
        "offset": 0,
        "slot": "0",
        "type": "t_bool"
      },
      {
        "astId": 5981,
        "contract": "contracts/CErc20Delegator.sol:CErc20Delegator",
        "label": "stable",
        "offset": 1,
        "slot": "0",
        "type": "t_uint8"
      },
      {
        "astId": 5984,
        "contract": "contracts/CErc20Delegator.sol:CErc20Delegator",
        "label": "name",
        "offset": 0,
        "slot": "1",
        "type": "t_string_storage"
      },
      {
        "astId": 5987,
        "contract": "contracts/CErc20Delegator.sol:CErc20Delegator",
        "label": "symbol",
        "offset": 0,
        "slot": "2",
        "type": "t_string_storage"
      },
      {
        "astId": 5990,
        "contract": "contracts/CErc20Delegator.sol:CErc20Delegator",
        "label": "decimals",
        "offset": 0,
        "slot": "3",
        "type": "t_uint8"
      },
      {
        "astId": 5999,
        "contract": "contracts/CErc20Delegator.sol:CErc20Delegator",
        "label": "admin",
        "offset": 1,
        "slot": "3",
        "type": "t_address_payable"
      },
      {
        "astId": 6002,
        "contract": "contracts/CErc20Delegator.sol:CErc20Delegator",
        "label": "pendingAdmin",
        "offset": 0,
        "slot": "4",
        "type": "t_address_payable"
      },
      {
        "astId": 6006,
        "contract": "contracts/CErc20Delegator.sol:CErc20Delegator",
        "label": "comptroller",
        "offset": 0,
        "slot": "5",
        "type": "t_contract(ComptrollerInterface)14521"
      },
      {
        "astId": 6010,
        "contract": "contracts/CErc20Delegator.sol:CErc20Delegator",
        "label": "interestRateModel",
        "offset": 0,
        "slot": "6",
        "type": "t_contract(InterestRateModel)18595"
      },
      {
        "astId": 6012,
        "contract": "contracts/CErc20Delegator.sol:CErc20Delegator",
        "label": "initialExchangeRateMantissa",
        "offset": 0,
        "slot": "7",
        "type": "t_uint256"
      },
      {
        "astId": 6015,
        "contract": "contracts/CErc20Delegator.sol:CErc20Delegator",
        "label": "reserveFactorMantissa",
        "offset": 0,
        "slot": "8",
        "type": "t_uint256"
      },
      {
        "astId": 6018,
        "contract": "contracts/CErc20Delegator.sol:CErc20Delegator",
        "label": "accrualBlockNumber",
        "offset": 0,
        "slot": "9",
        "type": "t_uint256"
      },
      {
        "astId": 6021,
        "contract": "contracts/CErc20Delegator.sol:CErc20Delegator",
        "label": "borrowIndex",
        "offset": 0,
        "slot": "10",
        "type": "t_uint256"
      },
      {
        "astId": 6024,
        "contract": "contracts/CErc20Delegator.sol:CErc20Delegator",
        "label": "totalBorrows",
        "offset": 0,
        "slot": "11",
        "type": "t_uint256"
      },
      {
        "astId": 6027,
        "contract": "contracts/CErc20Delegator.sol:CErc20Delegator",
        "label": "totalReserves",
        "offset": 0,
        "slot": "12",
        "type": "t_uint256"
      },
      {
        "astId": 6030,
        "contract": "contracts/CErc20Delegator.sol:CErc20Delegator",
        "label": "totalSupply",
        "offset": 0,
        "slot": "13",
        "type": "t_uint256"
      },
      {
        "astId": 6034,
        "contract": "contracts/CErc20Delegator.sol:CErc20Delegator",
        "label": "accountTokens",
        "offset": 0,
        "slot": "14",
        "type": "t_mapping(t_address,t_uint256)"
      },
      {
        "astId": 6040,
        "contract": "contracts/CErc20Delegator.sol:CErc20Delegator",
        "label": "transferAllowances",
        "offset": 0,
        "slot": "15",
        "type": "t_mapping(t_address,t_mapping(t_address,t_uint256))"
      },
      {
        "astId": 6050,
        "contract": "contracts/CErc20Delegator.sol:CErc20Delegator",
        "label": "accountBorrows",
        "offset": 0,
        "slot": "16",
        "type": "t_mapping(t_address,t_struct(BorrowSnapshot)6045_storage)"
      },
      {
        "astId": 6373,
        "contract": "contracts/CErc20Delegator.sol:CErc20Delegator",
        "label": "underlying",
        "offset": 0,
        "slot": "17",
        "type": "t_address"
      },
      {
        "astId": 6449,
        "contract": "contracts/CErc20Delegator.sol:CErc20Delegator",
        "label": "implementation",
        "offset": 0,
        "slot": "18",
        "type": "t_address"
      }
    ],
    "types": {
      "t_address": {
        "encoding": "inplace",
        "label": "address",
        "numberOfBytes": "20"
      },
      "t_address_payable": {
        "encoding": "inplace",
        "label": "address payable",
        "numberOfBytes": "20"
      },
      "t_bool": {
        "encoding": "inplace",
        "label": "bool",
        "numberOfBytes": "1"
      },
      "t_contract(ComptrollerInterface)14521": {
        "encoding": "inplace",
        "label": "contract ComptrollerInterface",
        "numberOfBytes": "20"
      },
      "t_contract(InterestRateModel)18595": {
        "encoding": "inplace",
        "label": "contract InterestRateModel",
        "numberOfBytes": "20"
      },
      "t_mapping(t_address,t_mapping(t_address,t_uint256))": {
        "encoding": "mapping",
        "key": "t_address",
        "label": "mapping(address => mapping(address => uint256))",
        "numberOfBytes": "32",
        "value": "t_mapping(t_address,t_uint256)"
      },
      "t_mapping(t_address,t_struct(BorrowSnapshot)6045_storage)": {
        "encoding": "mapping",
        "key": "t_address",
        "label": "mapping(address => struct CTokenStorage.BorrowSnapshot)",
        "numberOfBytes": "32",
        "value": "t_struct(BorrowSnapshot)6045_storage"
      },
      "t_mapping(t_address,t_uint256)": {
        "encoding": "mapping",
        "key": "t_address",
        "label": "mapping(address => uint256)",
        "numberOfBytes": "32",
        "value": "t_uint256"
      },
      "t_string_storage": {
        "encoding": "bytes",
        "label": "string",
        "numberOfBytes": "32"
      },
      "t_struct(BorrowSnapshot)6045_storage": {
        "encoding": "inplace",
        "label": "struct CTokenStorage.BorrowSnapshot",
        "members": [
          {
            "astId": 6042,
            "contract": "contracts/CErc20Delegator.sol:CErc20Delegator",
            "label": "principal",
            "offset": 0,
            "slot": "0",
            "type": "t_uint256"
          },
          {
            "astId": 6044,
            "contract": "contracts/CErc20Delegator.sol:CErc20Delegator",
            "label": "interestIndex",
            "offset": 0,
            "slot": "1",
            "type": "t_uint256"
          }
        ],
        "numberOfBytes": "64"
      },
      "t_uint256": {
        "encoding": "inplace",
        "label": "uint256",
        "numberOfBytes": "32"
      },
      "t_uint8": {
        "encoding": "inplace",
        "label": "uint8",
        "numberOfBytes": "1"
      }
    }
  }
}