{
  "address": "0x7fbc4B2fa8D5ccD85E67D41c3B21C3EDaa1d6576",
  "abi": [
    {
      "inputs": [],
      "name": "AcceptAdminPendingAdminCheck",
      "type": "error"
    },
    {
      "inputs": [
        {
          "internalType": "uint256",
          "name": "redeemAmount",
          "type": "uint256"
        }
      ],
      "name": "AccountantRedeemError",
      "type": "error"
    },
    {
      "inputs": [
        {
          "internalType": "uint256",
          "name": "borrowAmount",
          "type": "uint256"
        }
      ],
      "name": "AccountantSupplyError",
      "type": "error"
    },
    {
      "inputs": [
        {
          "internalType": "uint256",
          "name": "actualAddAmount",
          "type": "uint256"
        }
      ],
      "name": "AddReservesFactorFreshCheck",
      "type": "error"
    },
    {
      "inputs": [],
      "name": "BorrowCashNotAvailable",
      "type": "error"
    },
    {
      "inputs": [
        {
          "internalType": "uint256",
          "name": "errorCode",
          "type": "uint256"
        }
      ],
      "name": "BorrowComptrollerRejection",
      "type": "error"
    },
    {
      "inputs": [],
      "name": "BorrowFreshnessCheck",
      "type": "error"
    },
    {
      "inputs": [
        {
          "internalType": "uint256",
          "name": "amount",
          "type": "uint256"
        }
      ],
      "name": "FailedTransfer",
      "type": "error"
    },
    {
      "inputs": [
        {
          "internalType": "uint256",
          "name": "errorCode",
          "type": "uint256"
        }
      ],
      "name": "LiquidateAccrueBorrowInterestFailed",
      "type": "error"
    },
    {
      "inputs": [
        {
          "internalType": "uint256",
          "name": "errorCode",
          "type": "uint256"
        }
      ],
      "name": "LiquidateAccrueCollateralInterestFailed",
      "type": "error"
    },
    {
      "inputs": [],
      "name": "LiquidateCloseAmountIsUintMax",
      "type": "error"
    },
    {
      "inputs": [],
      "name": "LiquidateCloseAmountIsZero",
      "type": "error"
    },
    {
      "inputs": [],
      "name": "LiquidateCollateralFreshnessCheck",
      "type": "error"
    },
    {
      "inputs": [
        {
          "internalType": "uint256",
          "name": "errorCode",
          "type": "uint256"
        }
      ],
      "name": "LiquidateComptrollerRejection",
      "type": "error"
    },
    {
      "inputs": [],
      "name": "LiquidateFreshnessCheck",
      "type": "error"
    },
    {
      "inputs": [],
      "name": "LiquidateLiquidatorIsBorrower",
      "type": "error"
    },
    {
      "inputs": [
        {
          "internalType": "uint256",
          "name": "errorCode",
          "type": "uint256"
        }
      ],
      "name": "LiquidateRepayBorrowFreshFailed",
      "type": "error"
    },
    {
      "inputs": [
        {
          "internalType": "uint256",
          "name": "errorCode",
          "type": "uint256"
        }
      ],
      "name": "LiquidateSeizeComptrollerRejection",
      "type": "error"
    },
    {
      "inputs": [],
      "name": "LiquidateSeizeLiquidatorIsBorrower",
      "type": "error"
    },
    {
      "inputs": [
        {
          "internalType": "uint256",
          "name": "errorCode",
          "type": "uint256"
        }
      ],
      "name": "MintComptrollerRejection",
      "type": "error"
    },
    {
      "inputs": [],
      "name": "MintFreshnessCheck",
      "type": "error"
    },
    {
      "inputs": [
        {
          "internalType": "uint256",
          "name": "errorCode",
          "type": "uint256"
        }
      ],
      "name": "RedeemComptrollerRejection",
      "type": "error"
    },
    {
      "inputs": [],
      "name": "RedeemFreshnessCheck",
      "type": "error"
    },
    {
      "inputs": [],
      "name": "RedeemTransferOutNotPossible",
      "type": "error"
    },
    {
      "inputs": [],
      "name": "ReduceReservesAdminCheck",
      "type": "error"
    },
    {
      "inputs": [],
      "name": "ReduceReservesCashNotAvailable",
      "type": "error"
    },
    {
      "inputs": [],
      "name": "ReduceReservesCashValidation",
      "type": "error"
    },
    {
      "inputs": [],
      "name": "ReduceReservesFreshCheck",
      "type": "error"
    },
    {
      "inputs": [
        {
          "internalType": "uint256",
          "name": "errorCode",
          "type": "uint256"
        }
      ],
      "name": "RepayBorrowComptrollerRejection",
      "type": "error"
    },
    {
      "inputs": [],
      "name": "RepayBorrowFreshnessCheck",
      "type": "error"
    },
    {
      "inputs": [],
      "name": "SetComptrollerOwnerCheck",
      "type": "error"
    },
    {
      "inputs": [],
      "name": "SetInterestRateModelFreshCheck",
      "type": "error"
    },
    {
      "inputs": [],
      "name": "SetInterestRateModelOwnerCheck",
      "type": "error"
    },
    {
      "inputs": [],
      "name": "SetPendingAdminOwnerCheck",
      "type": "error"
    },
    {
      "inputs": [],
      "name": "SetReserveFactorAdminCheck",
      "type": "error"
    },
    {
      "inputs": [],
      "name": "SetReserveFactorBoundsCheck",
      "type": "error"
    },
    {
      "inputs": [],
      "name": "SetReserveFactorFreshCheck",
      "type": "error"
    },
    {
      "inputs": [
        {
          "internalType": "uint256",
          "name": "errorCode",
          "type": "uint256"
        }
      ],
      "name": "TransferComptrollerRejection",
      "type": "error"
    },
    {
      "inputs": [],
      "name": "TransferNotAllowed",
      "type": "error"
    },
    {
      "inputs": [],
      "name": "TransferNotEnough",
      "type": "error"
    },
    {
      "inputs": [],
      "name": "TransferTooMuch",
      "type": "error"
    },
    {
      "anonymous": false,
      "inputs": [
        {
          "indexed": false,
          "internalType": "address",
          "name": "accountant",
          "type": "address"
        },
        {
          "indexed": false,
          "internalType": "address",
          "name": "accountantPrior",
          "type": "address"
        }
      ],
      "name": "AccountantSet",
      "type": "event"
    },
    {
      "anonymous": false,
      "inputs": [
        {
          "indexed": false,
          "internalType": "uint256",
          "name": "cashPrior",
          "type": "uint256"
        },
        {
          "indexed": false,
          "internalType": "uint256",
          "name": "interestAccumulated",
          "type": "uint256"
        },
        {
          "indexed": false,
          "internalType": "uint256",
          "name": "borrowIndex",
          "type": "uint256"
        },
        {
          "indexed": false,
          "internalType": "uint256",
          "name": "totalBorrows",
          "type": "uint256"
        }
      ],
      "name": "AccrueInterest",
      "type": "event"
    },
    {
      "anonymous": false,
      "inputs": [
        {
          "indexed": true,
          "internalType": "address",
          "name": "owner",
          "type": "address"
        },
        {
          "indexed": true,
          "internalType": "address",
          "name": "spender",
          "type": "address"
        },
        {
          "indexed": false,
          "internalType": "uint256",
          "name": "amount",
          "type": "uint256"
        }
      ],
      "name": "Approval",
      "type": "event"
    },
    {
      "anonymous": false,
      "inputs": [
        {
          "indexed": false,
          "internalType": "address",
          "name": "borrower",
          "type": "address"
        },
        {
          "indexed": false,
          "internalType": "uint256",
          "name": "borrowAmount",
          "type": "uint256"
        },
        {
          "indexed": false,
          "internalType": "uint256",
          "name": "accountBorrows",
          "type": "uint256"
        },
        {
          "indexed": false,
          "internalType": "uint256",
          "name": "totalBorrows",
          "type": "uint256"
        }
      ],
      "name": "Borrow",
      "type": "event"
    },
    {
      "anonymous": false,
      "inputs": [
        {
          "indexed": false,
          "internalType": "address",
          "name": "liquidator",
          "type": "address"
        },
        {
          "indexed": false,
          "internalType": "address",
          "name": "borrower",
          "type": "address"
        },
        {
          "indexed": false,
          "internalType": "uint256",
          "name": "repayAmount",
          "type": "uint256"
        },
        {
          "indexed": false,
          "internalType": "address",
          "name": "cTokenCollateral",
          "type": "address"
        },
        {
          "indexed": false,
          "internalType": "uint256",
          "name": "seizeTokens",
          "type": "uint256"
        }
      ],
      "name": "LiquidateBorrow",
      "type": "event"
    },
    {
      "anonymous": false,
      "inputs": [
        {
          "indexed": false,
          "internalType": "address",
          "name": "minter",
          "type": "address"
        },
        {
          "indexed": false,
          "internalType": "uint256",
          "name": "mintAmount",
          "type": "uint256"
        },
        {
          "indexed": false,
          "internalType": "uint256",
          "name": "mintTokens",
          "type": "uint256"
        }
      ],
      "name": "Mint",
      "type": "event"
    },
    {
      "anonymous": false,
      "inputs": [
        {
          "indexed": false,
          "internalType": "address",
          "name": "oldAdmin",
          "type": "address"
        },
        {
          "indexed": false,
          "internalType": "address",
          "name": "newAdmin",
          "type": "address"
        }
      ],
      "name": "NewAdmin",
      "type": "event"
    },
    {
      "anonymous": false,
      "inputs": [
        {
          "indexed": false,
          "internalType": "contract ComptrollerInterface",
          "name": "oldComptroller",
          "type": "address"
        },
        {
          "indexed": false,
          "internalType": "contract ComptrollerInterface",
          "name": "newComptroller",
          "type": "address"
        }
      ],
      "name": "NewComptroller",
      "type": "event"
    },
    {
      "anonymous": false,
      "inputs": [
        {
          "indexed": false,
          "internalType": "contract InterestRateModel",
          "name": "oldInterestRateModel",
          "type": "address"
        },
        {
          "indexed": false,
          "internalType": "contract InterestRateModel",
          "name": "newInterestRateModel",
          "type": "address"
        }
      ],
      "name": "NewMarketInterestRateModel",
      "type": "event"
    },
    {
      "anonymous": false,
      "inputs": [
        {
          "indexed": false,
          "internalType": "address",
          "name": "oldPendingAdmin",
          "type": "address"
        },
        {
          "indexed": false,
          "internalType": "address",
          "name": "newPendingAdmin",
          "type": "address"
        }
      ],
      "name": "NewPendingAdmin",
      "type": "event"
    },
    {
      "anonymous": false,
      "inputs": [
        {
          "indexed": false,
          "internalType": "uint256",
          "name": "oldReserveFactorMantissa",
          "type": "uint256"
        },
        {
          "indexed": false,
          "internalType": "uint256",
          "name": "newReserveFactorMantissa",
          "type": "uint256"
        }
      ],
      "name": "NewReserveFactor",
      "type": "event"
    },
    {
      "anonymous": false,
      "inputs": [
        {
          "indexed": false,
          "internalType": "address",
          "name": "redeemer",
          "type": "address"
        },
        {
          "indexed": false,
          "internalType": "uint256",
          "name": "redeemAmount",
          "type": "uint256"
        },
        {
          "indexed": false,
          "internalType": "uint256",
          "name": "redeemTokens",
          "type": "uint256"
        }
      ],
      "name": "Redeem",
      "type": "event"
    },
    {
      "anonymous": false,
      "inputs": [
        {
          "indexed": false,
          "internalType": "address",
          "name": "payer",
          "type": "address"
        },
        {
          "indexed": false,
          "internalType": "address",
          "name": "borrower",
          "type": "address"
        },
        {
          "indexed": false,
          "internalType": "uint256",
          "name": "repayAmount",
          "type": "uint256"
        },
        {
          "indexed": false,
          "internalType": "uint256",
          "name": "accountBorrows",
          "type": "uint256"
        },
        {
          "indexed": false,
          "internalType": "uint256",
          "name": "totalBorrows",
          "type": "uint256"
        }
      ],
      "name": "RepayBorrow",
      "type": "event"
    },
    {
      "anonymous": false,
      "inputs": [
        {
          "indexed": false,
          "internalType": "address",
          "name": "benefactor",
          "type": "address"
        },
        {
          "indexed": false,
          "internalType": "uint256",
          "name": "addAmount",
          "type": "uint256"
        },
        {
          "indexed": false,
          "internalType": "uint256",
          "name": "newTotalReserves",
          "type": "uint256"
        }
      ],
      "name": "ReservesAdded",
      "type": "event"
    },
    {
      "anonymous": false,
      "inputs": [
        {
          "indexed": false,
          "internalType": "address",
          "name": "admin",
          "type": "address"
        },
        {
          "indexed": false,
          "internalType": "uint256",
          "name": "reduceAmount",
          "type": "uint256"
        },
        {
          "indexed": false,
          "internalType": "uint256",
          "name": "newTotalReserves",
          "type": "uint256"
        }
      ],
      "name": "ReservesReduced",
      "type": "event"
    },
    {
      "anonymous": false,
      "inputs": [
        {
          "indexed": true,
          "internalType": "address",
          "name": "from",
          "type": "address"
        },
        {
          "indexed": true,
          "internalType": "address",
          "name": "to",
          "type": "address"
        },
        {
          "indexed": false,
          "internalType": "uint256",
          "name": "amount",
          "type": "uint256"
        }
      ],
      "name": "Transfer",
      "type": "event"
    },
    {
      "inputs": [],
      "name": "NO_ERROR",
      "outputs": [
        {
          "internalType": "uint256",
          "name": "",
          "type": "uint256"
        }
      ],
      "stateMutability": "view",
      "type": "function"
    },
    {
      "inputs": [],
      "name": "_acceptAdmin",
      "outputs": [
        {
          "internalType": "uint256",
          "name": "",
          "type": "uint256"
        }
      ],
      "stateMutability": "nonpayable",
      "type": "function"
    },
    {
      "inputs": [],
      "name": "_accountant",
      "outputs": [
        {
          "internalType": "contract AccountantInterface",
          "name": "",
          "type": "address"
        }
      ],
      "stateMutability": "view",
      "type": "function"
    },
    {
      "inputs": [
        {
          "internalType": "uint256",
          "name": "addAmount",
          "type": "uint256"
        }
      ],
      "name": "_addReserves",
      "outputs": [
        {
          "internalType": "uint256",
          "name": "",
          "type": "uint256"
        }
      ],
      "stateMutability": "nonpayable",
      "type": "function"
    },
    {
      "inputs": [
        {
          "internalType": "bytes",
          "name": "data",
          "type": "bytes"
        }
      ],
      "name": "_becomeImplementation",
      "outputs": [],
      "stateMutability": "nonpayable",
      "type": "function"
    },
    {
      "inputs": [
        {
          "internalType": "address",
          "name": "compLikeDelegatee",
          "type": "address"
        }
      ],
      "name": "_delegateCompLikeTo",
      "outputs": [],
      "stateMutability": "nonpayable",
      "type": "function"
    },
    {
      "inputs": [
        {
          "internalType": "uint256",
          "name": "reduceAmount",
          "type": "uint256"
        }
      ],
      "name": "_reduceReserves",
      "outputs": [
        {
          "internalType": "uint256",
          "name": "",
          "type": "uint256"
        }
      ],
      "stateMutability": "nonpayable",
      "type": "function"
    },
    {
      "inputs": [],
      "name": "_resignImplementation",
      "outputs": [],
      "stateMutability": "nonpayable",
      "type": "function"
    },
    {
      "inputs": [
        {
          "internalType": "contract ComptrollerInterface",
          "name": "newComptroller",
          "type": "address"
        }
      ],
      "name": "_setComptroller",
      "outputs": [
        {
          "internalType": "uint256",
          "name": "",
          "type": "uint256"
        }
      ],
      "stateMutability": "nonpayable",
      "type": "function"
    },
    {
      "inputs": [
        {
          "internalType": "contract InterestRateModel",
          "name": "newInterestRateModel",
          "type": "address"
        }
      ],
      "name": "_setInterestRateModel",
      "outputs": [
        {
          "internalType": "uint256",
          "name": "",
          "type": "uint256"
        }
      ],
      "stateMutability": "nonpayable",
      "type": "function"
    },
    {
      "inputs": [
        {
          "internalType": "address payable",
          "name": "newPendingAdmin",
          "type": "address"
        }
      ],
      "name": "_setPendingAdmin",
      "outputs": [
        {
          "internalType": "uint256",
          "name": "",
          "type": "uint256"
        }
      ],
      "stateMutability": "nonpayable",
      "type": "function"
    },
    {
      "inputs": [
        {
          "internalType": "uint256",
          "name": "newReserveFactorMantissa",
          "type": "uint256"
        }
      ],
      "name": "_setReserveFactor",
      "outputs": [
        {
          "internalType": "uint256",
          "name": "",
          "type": "uint256"
        }
      ],
      "stateMutability": "nonpayable",
      "type": "function"
    },
    {
      "inputs": [],
      "name": "accrualBlockNumber",
      "outputs": [
        {
          "internalType": "uint256",
          "name": "",
          "type": "uint256"
        }
      ],
      "stateMutability": "view",
      "type": "function"
    },
    {
      "inputs": [],
      "name": "accrueInterest",
      "outputs": [
        {
          "internalType": "uint256",
          "name": "",
          "type": "uint256"
        }
      ],
      "stateMutability": "nonpayable",
      "type": "function"
    },
    {
      "inputs": [],
      "name": "admin",
      "outputs": [
        {
          "internalType": "address payable",
          "name": "",
          "type": "address"
        }
      ],
      "stateMutability": "view",
      "type": "function"
    },
    {
      "inputs": [
        {
          "internalType": "address",
          "name": "owner",
          "type": "address"
        },
        {
          "internalType": "address",
          "name": "spender",
          "type": "address"
        }
      ],
      "name": "allowance",
      "outputs": [
        {
          "internalType": "uint256",
          "name": "",
          "type": "uint256"
        }
      ],
      "stateMutability": "view",
      "type": "function"
    },
    {
      "inputs": [
        {
          "internalType": "address",
          "name": "spender",
          "type": "address"
        },
        {
          "internalType": "uint256",
          "name": "amount",
          "type": "uint256"
        }
      ],
      "name": "approve",
      "outputs": [
        {
          "internalType": "bool",
          "name": "",
          "type": "bool"
        }
      ],
      "stateMutability": "nonpayable",
      "type": "function"
    },
    {
      "inputs": [
        {
          "internalType": "address",
          "name": "owner",
          "type": "address"
        }
      ],
      "name": "balanceOf",
      "outputs": [
        {
          "internalType": "uint256",
          "name": "",
          "type": "uint256"
        }
      ],
      "stateMutability": "view",
      "type": "function"
    },
    {
      "inputs": [
        {
          "internalType": "address",
          "name": "owner",
          "type": "address"
        }
      ],
      "name": "balanceOfUnderlying",
      "outputs": [
        {
          "internalType": "uint256",
          "name": "",
          "type": "uint256"
        }
      ],
      "stateMutability": "nonpayable",
      "type": "function"
    },
    {
      "inputs": [
        {
          "internalType": "uint256",
          "name": "borrowAmount",
          "type": "uint256"
        }
      ],
      "name": "borrow",
      "outputs": [
        {
          "internalType": "uint256",
          "name": "",
          "type": "uint256"
        }
      ],
      "stateMutability": "nonpayable",
      "type": "function"
    },
    {
      "inputs": [
        {
          "internalType": "address",
          "name": "account",
          "type": "address"
        }
      ],
      "name": "borrowBalanceCurrent",
      "outputs": [
        {
          "internalType": "uint256",
          "name": "",
          "type": "uint256"
        }
      ],
      "stateMutability": "nonpayable",
      "type": "function"
    },
    {
      "inputs": [
        {
          "internalType": "address",
          "name": "account",
          "type": "address"
        }
      ],
      "name": "borrowBalanceStored",
      "outputs": [
        {
          "internalType": "uint256",
          "name": "",
          "type": "uint256"
        }
      ],
      "stateMutability": "view",
      "type": "function"
    },
    {
      "inputs": [],
      "name": "borrowIndex",
      "outputs": [
        {
          "internalType": "uint256",
          "name": "",
          "type": "uint256"
        }
      ],
      "stateMutability": "view",
      "type": "function"
    },
    {
      "inputs": [],
      "name": "borrowRatePerBlock",
      "outputs": [
        {
          "internalType": "uint256",
          "name": "",
          "type": "uint256"
        }
      ],
      "stateMutability": "view",
      "type": "function"
    },
    {
      "inputs": [],
      "name": "comptroller",
      "outputs": [
        {
          "internalType": "contract ComptrollerInterface",
          "name": "",
          "type": "address"
        }
      ],
      "stateMutability": "view",
      "type": "function"
    },
    {
      "inputs": [],
      "name": "decimals",
      "outputs": [
        {
          "internalType": "uint8",
          "name": "",
          "type": "uint8"
        }
      ],
      "stateMutability": "view",
      "type": "function"
    },
    {
      "inputs": [],
      "name": "exchangeRateCurrent",
      "outputs": [
        {
          "internalType": "uint256",
          "name": "",
          "type": "uint256"
        }
      ],
      "stateMutability": "nonpayable",
      "type": "function"
    },
    {
      "inputs": [],
      "name": "exchangeRateStored",
      "outputs": [
        {
          "internalType": "uint256",
          "name": "",
          "type": "uint256"
        }
      ],
      "stateMutability": "view",
      "type": "function"
    },
    {
      "inputs": [
        {
          "internalType": "address",
          "name": "account",
          "type": "address"
        }
      ],
      "name": "getAccountSnapshot",
      "outputs": [
        {
          "internalType": "uint256",
          "name": "",
          "type": "uint256"
        },
        {
          "internalType": "uint256",
          "name": "",
          "type": "uint256"
        },
        {
          "internalType": "uint256",
          "name": "",
          "type": "uint256"
        },
        {
          "internalType": "uint256",
          "name": "",
          "type": "uint256"
        }
      ],
      "stateMutability": "view",
      "type": "function"
    },
    {
      "inputs": [],
      "name": "getAccountant",
      "outputs": [
        {
          "internalType": "address",
          "name": "",
          "type": "address"
        }
      ],
      "stateMutability": "view",
      "type": "function"
    },
    {
      "inputs": [],
      "name": "getCash",
      "outputs": [
        {
          "internalType": "uint256",
          "name": "",
          "type": "uint256"
        }
      ],
      "stateMutability": "view",
      "type": "function"
    },
    {
      "inputs": [],
      "name": "implementation",
      "outputs": [
        {
          "internalType": "address",
          "name": "",
          "type": "address"
        }
      ],
      "stateMutability": "view",
      "type": "function"
    },
    {
      "inputs": [
        {
          "internalType": "contract ComptrollerInterface",
          "name": "comptroller_",
          "type": "address"
        },
        {
          "internalType": "contract InterestRateModel",
          "name": "interestRateModel_",
          "type": "address"
        },
        {
          "internalType": "uint256",
          "name": "initialExchangeRateMantissa_",
          "type": "uint256"
        },
        {
          "internalType": "string",
          "name": "name_",
          "type": "string"
        },
        {
          "internalType": "string",
          "name": "symbol_",
          "type": "string"
        },
        {
          "internalType": "uint8",
          "name": "decimals_",
          "type": "uint8"
        },
        {
          "internalType": "uint8",
          "name": "stable_",
          "type": "uint8"
        }
      ],
      "name": "initialize",
      "outputs": [],
      "stateMutability": "nonpayable",
      "type": "function"
    },
    {
      "inputs": [
        {
          "internalType": "address",
          "name": "underlying_",
          "type": "address"
        },
        {
          "internalType": "contract ComptrollerInterface",
          "name": "comptroller_",
          "type": "address"
        },
        {
          "internalType": "contract InterestRateModel",
          "name": "interestRateModel_",
          "type": "address"
        },
        {
          "internalType": "uint256",
          "name": "initialExchangeRateMantissa_",
          "type": "uint256"
        },
        {
          "internalType": "string",
          "name": "name_",
          "type": "string"
        },
        {
          "internalType": "string",
          "name": "symbol_",
          "type": "string"
        },
        {
          "internalType": "uint8",
          "name": "decimals_",
          "type": "uint8"
        },
        {
          "internalType": "uint8",
          "name": "stable_",
          "type": "uint8"
        }
      ],
      "name": "initialize",
      "outputs": [],
      "stateMutability": "nonpayable",
      "type": "function"
    },
    {
      "inputs": [],
      "name": "interestRateModel",
      "outputs": [
        {
          "internalType": "contract InterestRateModel",
          "name": "",
          "type": "address"
        }
      ],
      "stateMutability": "view",
      "type": "function"
    },
    {
      "inputs": [],
      "name": "isCToken",
      "outputs": [
        {
          "internalType": "bool",
          "name": "",
          "type": "bool"
        }
      ],
      "stateMutability": "view",
      "type": "function"
    },
    {
      "inputs": [
        {
          "internalType": "address",
          "name": "borrower",
          "type": "address"
        },
        {
          "internalType": "uint256",
          "name": "repayAmount",
          "type": "uint256"
        },
        {
          "internalType": "contract CTokenInterface",
          "name": "cTokenCollateral",
          "type": "address"
        }
      ],
      "name": "liquidateBorrow",
      "outputs": [
        {
          "internalType": "uint256",
          "name": "",
          "type": "uint256"
        }
      ],
      "stateMutability": "nonpayable",
      "type": "function"
    },
    {
      "inputs": [
        {
          "internalType": "uint256",
          "name": "mintAmount",
          "type": "uint256"
        }
      ],
      "name": "mint",
      "outputs": [
        {
          "internalType": "uint256",
          "name": "",
          "type": "uint256"
        }
      ],
      "stateMutability": "nonpayable",
      "type": "function"
    },
    {
      "inputs": [],
      "name": "name",
      "outputs": [
        {
          "internalType": "string",
          "name": "",
          "type": "string"
        }
      ],
      "stateMutability": "view",
      "type": "function"
    },
    {
      "inputs": [],
      "name": "pendingAdmin",
      "outputs": [
        {
          "internalType": "address payable",
          "name": "",
          "type": "address"
        }
      ],
      "stateMutability": "view",
      "type": "function"
    },
    {
      "inputs": [],
      "name": "protocolSeizeShareMantissa",
      "outputs": [
        {
          "internalType": "uint256",
          "name": "",
          "type": "uint256"
        }
      ],
      "stateMutability": "view",
      "type": "function"
    },
    {
      "inputs": [
        {
          "internalType": "uint256",
          "name": "redeemTokens",
          "type": "uint256"
        }
      ],
      "name": "redeem",
      "outputs": [
        {
          "internalType": "uint256",
          "name": "",
          "type": "uint256"
        }
      ],
      "stateMutability": "nonpayable",
      "type": "function"
    },
    {
      "inputs": [
        {
          "internalType": "uint256",
          "name": "redeemAmount",
          "type": "uint256"
        }
      ],
      "name": "redeemUnderlying",
      "outputs": [
        {
          "internalType": "uint256",
          "name": "",
          "type": "uint256"
        }
      ],
      "stateMutability": "nonpayable",
      "type": "function"
    },
    {
      "inputs": [
        {
          "internalType": "uint256",
          "name": "repayAmount",
          "type": "uint256"
        }
      ],
      "name": "repayBorrow",
      "outputs": [
        {
          "internalType": "uint256",
          "name": "",
          "type": "uint256"
        }
      ],
      "stateMutability": "nonpayable",
      "type": "function"
    },
    {
      "inputs": [
        {
          "internalType": "address",
          "name": "borrower",
          "type": "address"
        },
        {
          "internalType": "uint256",
          "name": "repayAmount",
          "type": "uint256"
        }
      ],
      "name": "repayBorrowBehalf",
      "outputs": [
        {
          "internalType": "uint256",
          "name": "",
          "type": "uint256"
        }
      ],
      "stateMutability": "nonpayable",
      "type": "function"
    },
    {
      "inputs": [],
      "name": "reserveFactorMantissa",
      "outputs": [
        {
          "internalType": "uint256",
          "name": "",
          "type": "uint256"
        }
      ],
      "stateMutability": "view",
      "type": "function"
    },
    {
      "inputs": [
        {
          "internalType": "address",
          "name": "liquidator",
          "type": "address"
        },
        {
          "internalType": "address",
          "name": "borrower",
          "type": "address"
        },
        {
          "internalType": "uint256",
          "name": "seizeTokens",
          "type": "uint256"
        }
      ],
      "name": "seize",
      "outputs": [
        {
          "internalType": "uint256",
          "name": "",
          "type": "uint256"
        }
      ],
      "stateMutability": "nonpayable",
      "type": "function"
    },
    {
      "inputs": [
        {
          "internalType": "address",
          "name": "accountant_",
          "type": "address"
        }
      ],
      "name": "setAccountantContract",
      "outputs": [],
      "stateMutability": "nonpayable",
      "type": "function"
    },
    {
      "inputs": [],
      "name": "stable",
      "outputs": [
        {
          "internalType": "uint8",
          "name": "",
          "type": "uint8"
        }
      ],
      "stateMutability": "view",
      "type": "function"
    },
    {
      "inputs": [],
      "name": "supplyRatePerBlock",
      "outputs": [
        {
          "internalType": "uint256",
          "name": "",
          "type": "uint256"
        }
      ],
      "stateMutability": "view",
      "type": "function"
    },
    {
      "inputs": [
        {
          "internalType": "contract EIP20NonStandardInterface",
          "name": "token",
          "type": "address"
        }
      ],
      "name": "sweepToken",
      "outputs": [],
      "stateMutability": "nonpayable",
      "type": "function"
    },
    {
      "inputs": [],
      "name": "symbol",
      "outputs": [
        {
          "internalType": "string",
          "name": "",
          "type": "string"
        }
      ],
      "stateMutability": "view",
      "type": "function"
    },
    {
      "inputs": [],
      "name": "totalBorrows",
      "outputs": [
        {
          "internalType": "uint256",
          "name": "",
          "type": "uint256"
        }
      ],
      "stateMutability": "view",
      "type": "function"
    },
    {
      "inputs": [],
      "name": "totalBorrowsCurrent",
      "outputs": [
        {
          "internalType": "uint256",
          "name": "",
          "type": "uint256"
        }
      ],
      "stateMutability": "nonpayable",
      "type": "function"
    },
    {
      "inputs": [],
      "name": "totalReserves",
      "outputs": [
        {
          "internalType": "uint256",
          "name": "",
          "type": "uint256"
        }
      ],
      "stateMutability": "view",
      "type": "function"
    },
    {
      "inputs": [],
      "name": "totalSupply",
      "outputs": [
        {
          "internalType": "uint256",
          "name": "",
          "type": "uint256"
        }
      ],
      "stateMutability": "view",
      "type": "function"
    },
    {
      "inputs": [
        {
          "internalType": "address",
          "name": "dst",
          "type": "address"
        },
        {
          "internalType": "uint256",
          "name": "amount",
          "type": "uint256"
        }
      ],
      "name": "transfer",
      "outputs": [
        {
          "internalType": "bool",
          "name": "",
          "type": "bool"
        }
      ],
      "stateMutability": "nonpayable",
      "type": "function"
    },
    {
      "inputs": [
        {
          "internalType": "address",
          "name": "src",
          "type": "address"
        },
        {
          "internalType": "address",
          "name": "dst",
          "type": "address"
        },
        {
          "internalType": "uint256",
          "name": "amount",
          "type": "uint256"
        }
      ],
      "name": "transferFrom",
      "outputs": [
        {
          "internalType": "bool",
          "name": "",
          "type": "bool"
        }
      ],
      "stateMutability": "nonpayable",
      "type": "function"
    },
    {
      "inputs": [],
      "name": "underlying",
      "outputs": [
        {
          "internalType": "address",
          "name": "",
          "type": "address"
        }
      ],
      "stateMutability": "view",
      "type": "function"
    }
  ],
  "transactionHash": "0x2f9a2f994e89af09b0a06ee539483a78972ca8192e3de7edacbd9179f4ca7ca6",
  "args": [],
  "numDeployments": 3,
  "solcInputHash": "e0d58323eecab65c0e238d24be016b29",
  "bytecode": "0x608060405234801561001057600080fd5b50614101806100206000396000f3fe608060405234801561001057600080fd5b50600436106103995760003560e01c80636f307dc3116101e9578063b71d1a0c1161010f578063f2b3abbd116100ad578063f851a4401161007c578063f851a440146107ac578063f8f9da28146107c4578063fca7820b146107cc578063fe9c44ae146107df57600080fd5b8063f2b3abbd14610760578063f3fdb15a14610773578063f4fc613314610786578063f5e3c4621461079957600080fd5b8063c5ebeaec116100e9578063c5ebeaec146106f9578063db006a751461070c578063dd62ed3e1461071f578063e9c714f21461075857600080fd5b8063b71d1a0c146106ab578063bd6d894d146106be578063c37f68e2146106c657600080fd5b806395d89b4111610187578063a9059cbb11610156578063a9059cbb14610674578063aa5af0fd14610687578063ae9d70b014610690578063b2a02ff11461069857600080fd5b806395d89b411461063e57806395dd919314610646578063a0712d6814610659578063a6afed951461066c57600080fd5b80637de9cd22116101c35780637de9cd22146105fe5780637f1e06be1461060f578063852a12e3146106225780638f840ddd1461063557600080fd5b80636f307dc3146105ba57806370a08231146105cd57806373acee98146105f657600080fd5b80633af9e669116102ce57806358f98f6c1161026c578063601a0bf11161023b578063601a0bf1146105885780636752e7021461059b57806369ab3250146105a95780636c540baf146105b157600080fd5b806358f98f6c1461053c5780635c60da1b1461054f5780635cb89568146105625780635fe3b5671461057557600080fd5b80634576b5db116102a85780634576b5db146104fa57806347bd37181461050d5780634ba1c02f1461051657806356e677281461052957600080fd5b80633af9e669146104cc5780633b1d21a2146104df5780633e941010146104e757600080fd5b8063182df0f51161033b57806323b872dd1161031557806323b872dd1461046e5780632608f818146104815780632678224714610494578063313ce567146104bf57600080fd5b8063182df0f51461042f5780631be195601461043757806322be3de11461044a57600080fd5b8063153ab50511610377578063153ab50514610400578063173b99041461040a57806317bfdfbc1461041357806318160ddd1461042657600080fd5b806306fdde031461039e578063095ea7b3146103bc5780630e752702146103df575b600080fd5b6103a66107e7565b6040516103b39190613b14565b60405180910390f35b6103cf6103ca366004613b7e565b610875565b60405190151581526020016103b3565b6103f26103ed366004613baa565b6108e3565b6040519081526020016103b3565b6104086108f6565b005b6103f260085481565b6103f2610421366004613bc3565b610972565b6103f2600d5481565b6103f26109d9565b610408610445366004613bc3565b6109e8565b60005461045c90610100900460ff1681565b60405160ff90911681526020016103b3565b6103cf61047c366004613be0565b610bb4565b6103f261048f366004613b7e565b610c18565b6004546104a7906001600160a01b031681565b6040516001600160a01b0390911681526020016103b3565b60035461045c9060ff1681565b6103f26104da366004613bc3565b610c2d565b6103f2610c73565b6103f26104f5366004613baa565b610c7d565b6103f2610508366004613bc3565b610c8e565b6103f2600b5481565b610408610524366004613ce3565b610de0565b610408610537366004613d97565b61104e565b6013546104a7906001600160a01b031681565b6012546104a7906001600160a01b031681565b610408610570366004613bc3565b6110c6565b6005546104a7906001600160a01b031681565b6103f2610596366004613baa565b6111b4565b6103f2666379da05b6000081565b6103f2600081565b6103f260095481565b6011546104a7906001600160a01b031681565b6103f26105db366004613bc3565b6001600160a01b03166000908152600e602052604090205490565b6103f2611207565b6013546001600160a01b03166104a7565b61040861061d366004613bc3565b611265565b6103f2610630366004613baa565b61133c565b6103f2600c5481565b6103a6611347565b6103f2610654366004613bc3565b611354565b6103f2610667366004613baa565b61135f565b6103f261136a565b6103cf610682366004613b7e565b611558565b6103f2600a5481565b6103f26115bb565b6103f26106a6366004613be0565b611653565b6103f26106b9366004613bc3565b6116b6565b6103f2611743565b6106d96106d4366004613bc3565b6117a7565b6040805194855260208501939093529183015260608201526080016103b3565b6103f2610707366004613baa565b6117e8565b6103f261071a366004613baa565b6117f3565b6103f261072d366004613de0565b6001600160a01b039182166000908152600f6020908152604080832093909416825291909152205490565b6103f26117fe565b6103f261076e366004613bc3565b611905565b6006546104a7906001600160a01b031681565b610408610794366004613e19565b611919565b6103f26107a7366004613ee0565b6119b0565b6003546104a79061010090046001600160a01b031681565b6103f26119c7565b6103f26107da366004613baa565b611a1a565b6103cf600181565b600180546107f490613f22565b80601f016020809104026020016040519081016040528092919081815260200182805461082090613f22565b801561086d5780601f106108425761010080835404028352916020019161086d565b820191906000526020600020905b81548152906001019060200180831161085057829003601f168201915b505050505081565b336000818152600f602090815260408083206001600160a01b03871680855292528083208590555191929182907f8c5be1e5ebec7d5bd14f71427d1e84f3dd0314c0f7b2291e5b200ac8c7c3b925906108d19087815260200190565b60405180910390a35060019392505050565b60006108ee82611a6d565b506000919050565b60035461010090046001600160a01b031633146109705760405162461bcd60e51b815260206004820152602d60248201527f6f6e6c79207468652061646d696e206d61792063616c6c205f72657369676e4960448201526c36b83632b6b2b73a30ba34b7b760991b60648201526084015b60405180910390fd5b565b6013546000906001600160a01b031633146109a95760005460ff166109a95760405162461bcd60e51b815260040161096790613f5d565b6000805460ff191690556109bb61136a565b506109c582611354565b90506000805460ff19166001179055919050565b60006109e3611ad0565b905090565b60035461010090046001600160a01b03163314610a5f5760405162461bcd60e51b815260206004820152602f60248201527f4345726332303a3a7377656570546f6b656e3a206f6e6c792061646d696e206360448201526e616e20737765657020746f6b656e7360881b6064820152608401610967565b6011546001600160a01b0382811691161415610ad85760405162461bcd60e51b815260206004820152603260248201527f4345726332303a3a7377656570546f6b656e3a2063616e206e6f74207377656560448201527138103ab73232b9363cb4b733903a37b5b2b760711b6064820152608401610967565b6040516370a0823160e01b81523060048201526000906001600160a01b038316906370a0823190602401602060405180830381865afa158015610b1f573d6000803e3d6000fd5b505050506040513d601f19601f82011682018060405250810190610b439190613f81565b60035460405163a9059cbb60e01b81526001600160a01b03610100909204821660048201526024810183905291925083169063a9059cbb90604401600060405180830381600087803b158015610b9857600080fd5b505af1158015610bac573d6000803e3d6000fd5b505050505050565b6013546000906001600160a01b03163314610beb5760005460ff16610beb5760405162461bcd60e51b815260040161096790613f5d565b6000805460ff19168155610c0133868686611b22565b1490506000805460ff191660011790559392505050565b6000610c248383611d50565b50600092915050565b6000806040518060200160405280610c43611743565b90526001600160a01b0384166000908152600e6020526040902054909150610c6c908290611db4565b9392505050565b60006109e3611dcc565b6000610c8882611e49565b92915050565b60035460009061010090046001600160a01b03163314610cc15760405163d219dc1f60e01b815260040160405180910390fd5b60055460408051623f1ee960e11b815290516001600160a01b0392831692851691627e3dd29160048083019260209291908290030181865afa158015610d0b573d6000803e3d6000fd5b505050506040513d601f19601f82011682018060405250810190610d2f9190613f9a565b610d7b5760405162461bcd60e51b815260206004820152601c60248201527f6d61726b6572206d6574686f642072657475726e65642066616c7365000000006044820152606401610967565b600580546001600160a01b0319166001600160a01b0385811691821790925560408051928416835260208301919091527f7ac369dbd14fa5ea3f473ed67cc9d598964a77501540ba6751eb0b3decf5870d91015b60405180910390a150600092915050565b60035461010090046001600160a01b03163314610e4b5760405162461bcd60e51b8152602060048201526024808201527f6f6e6c792061646d696e206d617920696e697469616c697a6520746865206d616044820152631c9ad95d60e21b6064820152608401610967565b600954158015610e5b5750600a54155b610eb35760405162461bcd60e51b815260206004820152602360248201527f6d61726b6574206d6179206f6e6c7920626520696e697469616c697a6564206f6044820152626e636560e81b6064820152608401610967565b600785905584610f1e5760405162461bcd60e51b815260206004820152603060248201527f696e697469616c2065786368616e67652072617465206d75737420626520677260448201526f32b0ba32b9103a3430b7103d32b9379760811b6064820152608401610967565b6000805461ff00191661010060ff841602178155610f3b88610c8e565b90508015610f8b5760405162461bcd60e51b815260206004820152601a60248201527f73657474696e6720636f6d7074726f6c6c6572206661696c65640000000000006044820152606401610967565b43600955670de0b6b3a7640000600a55610fa487611eb4565b90508015610fff5760405162461bcd60e51b815260206004820152602260248201527f73657474696e6720696e7465726573742072617465206d6f64656c206661696c604482015261195960f21b6064820152608401610967565b8451611012906001906020880190613a84565b508351611026906002906020870190613a84565b50506003805460ff90931660ff19938416179055506000805490911660011790555050505050565b60035461010090046001600160a01b031633146110c35760405162461bcd60e51b815260206004820152602d60248201527f6f6e6c79207468652061646d696e206d61792063616c6c205f6265636f6d654960448201526c36b83632b6b2b73a30ba34b7b760991b6064820152608401610967565b50565b60035461010090046001600160a01b0316331461114b5760405162461bcd60e51b815260206004820152603f60248201527f434e6f74653a3a5f7365744163636f756e74616e74436f6e74726163743a4f6e60448201527f6c792061646d696e206d61792063616c6c20746869732066756e6374696f6e006064820152608401610967565b601354604080516001600160a01b03808516825290921660208301527f3d6761621144524fc2648d6d2bda0886cba4b9955287da686763570e73785668910160405180910390a1601380546001600160a01b0319166001600160a01b0392909216919091179055565b6013546000906001600160a01b031633146111eb5760005460ff166111eb5760405162461bcd60e51b815260040161096790613f5d565b6000805460ff191690556111fd61136a565b506109c582612029565b6013546000906001600160a01b0316331461123e5760005460ff1661123e5760405162461bcd60e51b815260040161096790613f5d565b6000805460ff1916905561125061136a565b5050600b546000805460ff1916600117905590565b60035461010090046001600160a01b031633146112da5760405162461bcd60e51b815260206004820152602d60248201527f6f6e6c79207468652061646d696e206d6179207365742074686520636f6d702d60448201526c6c696b652064656c656761746560981b6064820152608401610967565b6011546040516317066a5760e21b81526001600160a01b03838116600483015290911690635c19a95c90602401600060405180830381600087803b15801561132157600080fd5b505af1158015611335573d6000803e3d6000fd5b5050505050565b60006108ee82612144565b600280546107f490613f22565b6000610c88826121a7565b60006108ee826121f1565b6009546000904390808214156113835760009250505090565b600061138d611dcc565b600b54600c54600a546006546040516315f2405360e01b81526004810186905260248101859052604481018490529495509293919290916000916001600160a01b0316906315f2405390606401602060405180830381865afa1580156113f7573d6000803e3d6000fd5b505050506040513d601f19601f8201168201806040525081019061141b9190613f81565b905065048c273950008111156114735760405162461bcd60e51b815260206004820152601c60248201527f626f72726f772072617465206973206162737572646c792068696768000000006044820152606401610967565b600061147f8789613fd2565b9050600061149b60405180602001604052808581525083612242565b905060006114a98288611db4565b905060006114b78883613fe9565b905060006114d66040518060200160405280600854815250848a612273565b905060006114e585898a612273565b60098e9055600a819055600b849055600c839055604080518d815260208101879052908101829052606081018590529091507f4dec04e750ca11537cabcd8a9eab06494de08da3735bc8871cd41250e190bc049060800160405180910390a160009d505050505050505050505050505090565b6013546000906001600160a01b0316331461158f5760005460ff1661158f5760405162461bcd60e51b815260040161096790613f5d565b6000805460ff191681556115a533808686611b22565b1490506000805460ff1916600117905592915050565b6006546000906001600160a01b031663b81688166115d7611dcc565b600b54600c546008546040516001600160e01b031960e087901b16815260048101949094526024840192909252604483015260648201526084015b602060405180830381865afa15801561162f573d6000803e3d6000fd5b505050506040513d601f19601f820116820180604052508101906109e39190613f81565b6013546000906001600160a01b0316331461168a5760005460ff1661168a5760405162461bcd60e51b815260040161096790613f5d565b6000805460ff191690556116a03385858561229d565b50600080805460ff191660011790559392505050565b60035460009061010090046001600160a01b031633146116e957604051635cb56c2b60e01b815260040160405180910390fd5b600480546001600160a01b038481166001600160a01b031983168117909355604080519190921680825260208201939093527fca4f2f25d0898edd99413412fb94012f9e54ec8142f9b093e7720646a95b16a99101610dcf565b6013546000906001600160a01b0316331461177a5760005460ff1661177a5760405162461bcd60e51b815260040161096790613f5d565b6000805460ff1916905561178c61136a565b506117956109d9565b90506000805460ff1916600117905590565b6001600160a01b0381166000908152600e602052604081205481908190819081906117d1876121a7565b6117d9611ad0565b93509350935093509193509193565b60006108ee82612516565b60006108ee82612567565b6004546000906001600160a01b031633141580611819575033155b1561183757604051631ba24f2960e21b815260040160405180910390fd5b60038054600480546001600160a01b03808216610100818102610100600160a81b0319871617968790556001600160a01b031990931690935560408051948390048216808652929095041660208401529290917ff9ffabca9c8276e99321725bcb43fb076a6c66a54b7f21c4e8146d8519b417dc910160405180910390a1600454604080516001600160a01b03808516825290921660208301527fca4f2f25d0898edd99413412fb94012f9e54ec8142f9b093e7720646a95b16a9910160405180910390a160009250505090565b600061190f61136a565b50610c8882611eb4565b61192887878787878787610de0565b601180546001600160a01b0319166001600160a01b038a16908117909155604080516318160ddd60e01b815290516318160ddd916004808201926020929091908290030181865afa158015611981573d6000803e3d6000fd5b505050506040513d601f19601f820116820180604052508101906119a59190613f81565b505050505050505050565b60006119bd8484846125ba565b5060009392505050565b6006546000906001600160a01b03166315f240536119e3611dcc565b600b54600c546040516001600160e01b031960e086901b168152600481019390935260248301919091526044820152606401611612565b6013546000906001600160a01b03163314611a515760005460ff16611a515760405162461bcd60e51b815260040161096790613f5d565b6000805460ff19169055611a6361136a565b506109c5826126aa565b6013546001600160a01b03163314611aa15760005460ff16611aa15760405162461bcd60e51b815260040161096790613f5d565b6000805460ff19169055611ab361136a565b50611abf333383612766565b50506000805460ff19166001179055565b600d5460009080611ae357505060075490565b6000600c54600b54611af59190613fd2565b9050600082611b0c670de0b6b3a764000084614001565b611b169190614020565b949350505050565b5090565b6005546040516317b9b84b60e31b81523060048201526001600160a01b038581166024830152848116604483015260648201849052600092839291169063bdcdc258906084016020604051808303816000875af1158015611b87573d6000803e3d6000fd5b505050506040513d601f19601f82011682018060405250810190611bab9190613f81565b90508015611bcf5760405163089d427760e11b815260048101829052602401610967565b836001600160a01b0316856001600160a01b03161415611c0257604051638cd22d1960e01b815260040160405180910390fd5b6000856001600160a01b0316876001600160a01b03161415611c275750600019611c4f565b506001600160a01b038086166000908152600f60209081526040808320938a16835292905220545b6000611c5b8583613fd2565b6001600160a01b0388166000908152600e602052604081205491925090611c83908790613fd2565b6001600160a01b0388166000908152600e602052604081205491925090611cab908890613fe9565b6001600160a01b03808b166000908152600e6020526040808220869055918b1681522081905590506000198414611d05576001600160a01b03808a166000908152600f60209081526040808320938e168352929052208390555b876001600160a01b0316896001600160a01b03166000805160206140ac83398151915289604051611d3891815260200190565b60405180910390a35060009998505050505050505050565b6013546001600160a01b03163314611d845760005460ff16611d845760405162461bcd60e51b815260040161096790613f5d565b6000805460ff19169055611d9661136a565b50611da2338383612766565b50506000805460ff1916600117905550565b600080611dc18484612242565b9050611b168161290f565b6011546013546040516370a0823160e01b81526001600160a01b039182166004820152600092919091169081906370a0823190602401602060405180830381865afa158015611e1f573d6000803e3d6000fd5b505050506040513d601f19601f82011682018060405250810190611e439190613f81565b91505090565b6013546000906001600160a01b03163314611e805760005460ff16611e805760405162461bcd60e51b815260040161096790613f5d565b6000805460ff19169055611e9261136a565b50611e9c82612927565b5050600090506000805460ff19166001179055919050565b600354600090819061010090046001600160a01b03163314611ee95760405163407fded560e01b815260040160405180910390fd5b4360095414611f0b57604051630be2a5cb60e11b815260040160405180910390fd5b600660009054906101000a90046001600160a01b03169050826001600160a01b0316632191f92a6040518163ffffffff1660e01b8152600401602060405180830381865afa158015611f61573d6000803e3d6000fd5b505050506040513d601f19601f82011682018060405250810190611f859190613f9a565b611fd15760405162461bcd60e51b815260206004820152601c60248201527f6d61726b6572206d6574686f642072657475726e65642066616c7365000000006044820152606401610967565b600680546001600160a01b0319166001600160a01b0385811691821790925560408051928416835260208301919091527fedffc32e068c7c95dfd4bdfd5c4d939a084d6b11c4199eac8436ed234d72f9269101610dcf565b600354600090819061010090046001600160a01b0316331461205e57604051630f7e5e6d60e41b815260040160405180910390fd5b436009541461208057604051630dff50cb60e41b815260040160405180910390fd5b82612089611dcc565b10156120a857604051633345e99960e01b815260040160405180910390fd5b600c548311156120cb576040516378d2980560e11b815260040160405180910390fd5b82600c546120d99190613fd2565b600c8190556003549091506120fc9061010090046001600160a01b0316846129bb565b7f3bad0c59cf2f06e7314077049f48a93578cd16f5ef92329f1dab1420a99c177e600360019054906101000a90046001600160a01b03168483604051610dcf93929190614042565b6013546001600160a01b031633146121785760005460ff166121785760405162461bcd60e51b815260040161096790613f5d565b6000805460ff1916905561218a61136a565b5061219733600083612c3c565b506000805460ff19166001179055565b6001600160a01b038116600090815260106020526040812080546121ce5750600092915050565b600a5481546000916121df91614001565b9050816001015481611b169190614020565b6013546001600160a01b031633146122255760005460ff166122255760405162461bcd60e51b815260040161096790613f5d565b6000805460ff1916905561223761136a565b506121973382612f19565b604080516020810190915260008152604051806020016040528061226a8560000151856130cf565b90529392505050565b6000806122808585612242565b905061229461228e8261290f565b846130db565b95945050505050565b60055460405163d02f735160e01b81523060048201526001600160a01b0386811660248301528581166044830152848116606483015260848201849052600092169063d02f73519060a4016020604051808303816000875af1158015612307573d6000803e3d6000fd5b505050506040513d601f19601f8201168201806040525081019061232b9190613f81565b9050801561234f576040516363e00e3360e11b815260048101829052602401610967565b836001600160a01b0316836001600160a01b0316141561238257604051633a94626760e11b815260040160405180910390fd5b60006123a3836040518060200160405280666379da05b600008152506130e7565b905060006123b18285613fd2565b9050600060405180602001604052806123c8611ad0565b9052905060006123d88285611db4565b9050600081600c546123ea9190613fe9565b600c819055600d54909150612400908690613fd2565b600d556001600160a01b0388166000908152600e6020526040902054612427908890613fd2565b6001600160a01b03808a166000908152600e602052604080822093909355908b1681522054612457908590613fe9565b6001600160a01b03808b166000818152600e602052604090819020939093559151908a16906000805160206140ac833981519152906124999088815260200190565b60405180910390a360405185815230906001600160a01b038a16906000805160206140ac8339815191529060200160405180910390a37fa91e67c5ea634cd43a12c5a482724b03de01e85ca68702a53d0c2f45cb7c1dc530838360405161250293929190614042565b60405180910390a150505050505050505050565b6013546001600160a01b0316331461254a5760005460ff1661254a5760405162461bcd60e51b815260040161096790613f5d565b6000805460ff1916905561255c61136a565b50612197338261310a565b6013546001600160a01b0316331461259b5760005460ff1661259b5760405162461bcd60e51b815260040161096790613f5d565b6000805460ff191690556125ad61136a565b5061219733826000612c3c565b6013546001600160a01b031633146125ee5760005460ff166125ee5760405162461bcd60e51b815260040161096790613f5d565b6000805460ff1916905561260061136a565b506000816001600160a01b031663a6afed956040518163ffffffff1660e01b81526004016020604051808303816000875af1158015612643573d6000803e3d6000fd5b505050506040513d601f19601f820116820180604052508101906126679190613f81565b9050801561268b57604051633eea49b760e11b815260048101829052602401610967565b612697338585856132a9565b50506000805460ff191660011790555050565b60035460009061010090046001600160a01b031633146126dd57604051631205b57b60e11b815260040160405180910390fd5b43600954146126ff57604051637dfca6b760e11b815260040160405180910390fd5b670de0b6b3a76400008211156127285760405163717220f360e11b815260040160405180910390fd5b600880549083905560408051828152602081018590527faaa68312e2ea9d50e16af5068410ab56e1a1fd06037b1a35664812c30f8214609101610dcf565b600554604051631200453160e11b81523060048201526001600160a01b03858116602483015284811660448301526064820184905260009283929116906324008a62906084016020604051808303816000875af11580156127cb573d6000803e3d6000fd5b505050506040513d601f19601f820116820180604052508101906127ef9190613f81565b9050801561281357604051638c81362d60e01b815260048101829052602401610967565b43600954146128355760405163c9021e2f60e01b815260040160405180910390fd5b6000612840856121a7565b9050600060001985146128535784612855565b815b905060006128638883613763565b905060006128718285613fd2565b9050600082600b546128839190613fd2565b6001600160a01b038a8116600081815260106020908152604091829020878155600a54600190910155600b8590558151938f168452830191909152810185905260608101849052608081018290529091507f1a2a22cb034d26d1854bdc6666a5b91fe25efbbb5dcad3b0355478d6f5c362a19060a00160405180910390a1509098975050505050505050565b8051600090610c8890670de0b6b3a764000090614020565b60008080804360095414612951576040516338acf79960e01b815260048101829052602401610967565b61295b3386613763565b905080600c5461296b9190613fe9565b915081600c819055507fa91e67c5ea634cd43a12c5a482724b03de01e85ca68702a53d0c2f45cb7c1dc53382846040516129a793929190614042565b60405180910390a160009590945092505050565b6013546001600160a01b03166129d057600080fd5b6011546013546001600160a01b0391821691848116911614612a825760135460405163778bc48760e01b8152600481018490526000916001600160a01b03169063778bc487906024016020604051808303816000875af1158015612a38573d6000803e3d6000fd5b505050506040513d601f19601f82011682018060405250810190612a5c9190613f81565b90508015612a805760405163559a735f60e11b815260048101849052602401610967565b505b60405163a9059cbb60e01b81526001600160a01b0384811660048301526024820184905282169063a9059cbb906044016020604051808303816000875af1158015612ad1573d6000803e3d6000fd5b505050506040513d601f19601f82011682018060405250810190612af59190613f9a565b5060003d8015612b0c5760208114612b1657600080fd5b6000199150612b22565b60206000803e60005191505b5080612b705760405162461bcd60e51b815260206004820152601960248201527f544f4b454e5f5452414e534645525f4f55545f4641494c4544000000000000006044820152606401610967565b6040516370a0823160e01b81523060048201526001600160a01b038316906370a0823190602401602060405180830381865afa158015612bb4573d6000803e3d6000fd5b505050506040513d601f19601f82011682018060405250810190612bd89190613f81565b15612c365760405162461bcd60e51b815260206004820152602860248201527f634e6f74653a3a646f5472616e736665724f75743a205472616e736665724f756044820152671d0811985a5b195960c21b6064820152608401610967565b50505050565b811580612c47575080155b612cb05760405162461bcd60e51b815260206004820152603460248201527f6f6e65206f662072656465656d546f6b656e73496e206f722072656465656d416044820152736d6f756e74496e206d757374206265207a65726f60601b6064820152608401610967565b60006040518060200160405280612cc5611ad0565b905290506000808415612ce657849150612cdf8386611db4565b9050612cf6565b612cf08484613a5f565b91508390505b60055460405163eabe7d9160e01b81526000916001600160a01b03169063eabe7d9190612d2b9030908b908890600401614063565b6020604051808303816000875af1158015612d4a573d6000803e3d6000fd5b505050506040513d601f19601f82011682018060405250810190612d6e9190613f81565b90508015612d925760405163480f424760e01b815260048101829052602401610967565b4360095414612db4576040516397b5cfcd60e01b815260040160405180910390fd5b81612dbd611dcc565b1015612ddc576040516391240a1b60e01b815260040160405180910390fd5b82600d54612dea9190613fd2565b600d556001600160a01b0387166000908152600e6020526040902054612e11908490613fd2565b6001600160a01b0388166000908152600e6020526040902055612e3487836129bb565b60405183815230906001600160a01b038916906000805160206140ac8339815191529060200160405180910390a37fe5b754fb1abb7f01b499791d0b820ae3b6af3424ac1c59768edb53f4ec31a929878385604051612e9593929190614042565b60405180910390a16005546040516351dff98960e01b81523060048201526001600160a01b0389811660248301526044820185905260648201869052909116906351dff98990608401600060405180830381600087803b158015612ef857600080fd5b505af1158015612f0c573d6000803e3d6000fd5b5050505050505050505050565b600554604051634ef4c3e160e01b81526000916001600160a01b031690634ef4c3e190612f4e90309087908790600401614063565b6020604051808303816000875af1158015612f6d573d6000803e3d6000fd5b505050506040513d601f19601f82011682018060405250810190612f919190613f81565b90508015612fb5576040516349abd4fd60e01b815260048101829052602401610967565b4360095414612fd7576040516338d8859760e01b815260040160405180910390fd5b60006040518060200160405280612fec611ad0565b905290506000612ffc8585613763565b9050600061300a8284613a5f565b905080600d5461301a9190613fe9565b600d556001600160a01b0386166000908152600e6020526040902054613041908290613fe9565b6001600160a01b0387166000908152600e60205260409081902091909155517f4c209b5fc8ad50758f13e2e1088ba56a560dff690a1c6fef26394f4c03821c4f9061309190889085908590614042565b60405180910390a16040518181526001600160a01b0387169030906000805160206140ac8339815191529060200160405180910390a3505050505050565b6000610c6c8284614001565b6000610c6c8284613fe9565b6000670de0b6b3a76400006131008484600001516130cf565b610c6c9190614020565b60055460405163368f515360e21b81526000916001600160a01b03169063da3d454c9061313f90309087908790600401614063565b6020604051808303816000875af115801561315e573d6000803e3d6000fd5b505050506040513d601f19601f820116820180604052508101906131829190613f81565b905080156131a65760405163918db40f60e01b815260048101829052602401610967565b43600954146131c857604051630e8d8c6160e21b815260040160405180910390fd5b816131d1611dcc565b10156131f0576040516348c2588160e01b815260040160405180910390fd5b60006131fb846121a7565b905060006132098483613fe9565b9050600084600b5461321b9190613fe9565b6001600160a01b0387166000908152601060205260409020838155600a54600190910155600b819055905061325086866129bb565b604080516001600160a01b038816815260208101879052908101839052606081018290527f13ed6866d4e1ee6da46f845c46d7e54120883d75c5ea9a2dacc1c4ca8984ab809060800160405180910390a1505050505050565b600554604051632fe3f38f60e11b81523060048201526001600160a01b03838116602483015286811660448301528581166064830152608482018590526000921690635fc7e71e9060a4016020604051808303816000875af1158015613313573d6000803e3d6000fd5b505050506040513d601f19601f820116820180604052508101906133379190613f81565b9050801561335b57604051630a14d17960e11b815260048101829052602401610967565b436009541461337d576040516380965b1b60e01b815260040160405180910390fd5b43826001600160a01b0316636c540baf6040518163ffffffff1660e01b8152600401602060405180830381865afa1580156133bc573d6000803e3d6000fd5b505050506040513d601f19601f820116820180604052508101906133e09190613f81565b146133fe57604051631046f38d60e31b815260040160405180910390fd5b846001600160a01b0316846001600160a01b0316141561343157604051631bd1a62160e21b815260040160405180910390fd5b8261344f5760405163d29da7ef60e01b815260040160405180910390fd5b60001983141561347257604051635982c5bb60e11b815260040160405180910390fd5b600061347f868686612766565b60055460405163c488847b60e01b815291925060009182916001600160a01b03169063c488847b906134b990309089908890600401614063565b6040805180830381865afa1580156134d5573d6000803e3d6000fd5b505050506040513d601f19601f820116820180604052508101906134f99190614087565b91509150600082146135695760405162461bcd60e51b815260206004820152603360248201527f4c49515549444154455f434f4d5054524f4c4c45525f43414c43554c4154455f604482015272105353d5539517d4d152569157d19052531151606a1b6064820152608401610967565b6040516370a0823160e01b81526001600160a01b0388811660048301528291908716906370a0823190602401602060405180830381865afa1580156135b2573d6000803e3d6000fd5b505050506040513d601f19601f820116820180604052508101906135d69190613f81565b10156136245760405162461bcd60e51b815260206004820152601860248201527f4c49515549444154455f5345495a455f544f4f5f4d55434800000000000000006044820152606401610967565b6001600160a01b038516301415613646576136413089898461229d565b613700565b60405163b2a02ff160e01b81526000906001600160a01b0387169063b2a02ff190613679908c908c908790600401614063565b6020604051808303816000875af1158015613698573d6000803e3d6000fd5b505050506040513d601f19601f820116820180604052508101906136bc9190613f81565b146137005760405162461bcd60e51b81526020600482015260146024820152731d1bdad95b881cd95a5e9d5c994819985a5b195960621b6044820152606401610967565b604080516001600160a01b038a811682528981166020830152818301869052871660608201526080810183905290517f298637f684da70674f26509b10f07ec2fbc77a335ab1e7d6215a4b2484d8bb529181900360a00190a15050505050505050565b6013546000906001600160a01b031661377b57600080fd5b6011546040516323b872dd60e01b81526001600160a01b039091169081906323b872dd906137b190879030908890600401614063565b6020604051808303816000875af11580156137d0573d6000803e3d6000fd5b505050506040513d601f19601f820116820180604052508101906137f49190613f9a565b5060003d801561380b576020811461381557600080fd5b6000199150613821565b60206000803e60005191505b508061386f5760405162461bcd60e51b815260206004820152601860248201527f544f4b454e5f5452414e534645525f494e5f4641494c454400000000000000006044820152606401610967565b6040516370a0823160e01b81523060048201526000906001600160a01b038416906370a0823190602401602060405180830381865afa1580156138b6573d6000803e3d6000fd5b505050506040513d601f19601f820116820180604052508101906138da9190613f81565b6013549091506001600160a01b0387811691161461229457601354604051638003c7d360e01b8152600481018390526000916001600160a01b031690638003c7d3906024016020604051808303816000875af115801561393e573d6000803e3d6000fd5b505050506040513d601f19601f820116820180604052508101906139629190613f81565b905080156139865760405163de70540b60e01b815260048101839052602401610967565b6040516370a0823160e01b81523060048201526000906001600160a01b038616906370a0823190602401602060405180830381865afa1580156139cd573d6000803e3d6000fd5b505050506040513d601f19601f820116820180604052508101906139f19190613f81565b90508015613a545760405162461bcd60e51b815260206004820152602a60248201527f4163636f756e74616e7420686173206e6f74206265656e20636f72726563746c6044820152691e481cdd5c1c1b1a595960b21b6064820152608401610967565b505095945050505050565b6000610c6c613a7684670de0b6b3a76400006130cf565b83516000610c6c8284614020565b828054613a9090613f22565b90600052602060002090601f016020900481019282613ab25760008555613af8565b82601f10613acb57805160ff1916838001178555613af8565b82800160010185558215613af8579182015b82811115613af8578251825591602001919060010190613add565b50611b1e9291505b80821115611b1e5760008155600101613b00565b600060208083528351808285015260005b81811015613b4157858101830151858201604001528201613b25565b81811115613b53576000604083870101525b50601f01601f1916929092016040019392505050565b6001600160a01b03811681146110c357600080fd5b60008060408385031215613b9157600080fd5b8235613b9c81613b69565b946020939093013593505050565b600060208284031215613bbc57600080fd5b5035919050565b600060208284031215613bd557600080fd5b8135610c6c81613b69565b600080600060608486031215613bf557600080fd5b8335613c0081613b69565b92506020840135613c1081613b69565b929592945050506040919091013590565b634e487b7160e01b600052604160045260246000fd5b600067ffffffffffffffff80841115613c5257613c52613c21565b604051601f8501601f19908116603f01168101908282118183101715613c7a57613c7a613c21565b81604052809350858152868686011115613c9357600080fd5b858560208301376000602087830101525050509392505050565b600082601f830112613cbe57600080fd5b610c6c83833560208501613c37565b803560ff81168114613cde57600080fd5b919050565b600080600080600080600060e0888a031215613cfe57600080fd5b8735613d0981613b69565b96506020880135613d1981613b69565b955060408801359450606088013567ffffffffffffffff80821115613d3d57600080fd5b613d498b838c01613cad565b955060808a0135915080821115613d5f57600080fd5b50613d6c8a828b01613cad565b935050613d7b60a08901613ccd565b9150613d8960c08901613ccd565b905092959891949750929550565b600060208284031215613da957600080fd5b813567ffffffffffffffff811115613dc057600080fd5b8201601f81018413613dd157600080fd5b611b1684823560208401613c37565b60008060408385031215613df357600080fd5b8235613dfe81613b69565b91506020830135613e0e81613b69565b809150509250929050565b600080600080600080600080610100898b031215613e3657600080fd5b8835613e4181613b69565b97506020890135613e5181613b69565b96506040890135613e6181613b69565b955060608901359450608089013567ffffffffffffffff80821115613e8557600080fd5b613e918c838d01613cad565b955060a08b0135915080821115613ea757600080fd5b50613eb48b828c01613cad565b935050613ec360c08a01613ccd565b9150613ed160e08a01613ccd565b90509295985092959890939650565b600080600060608486031215613ef557600080fd5b8335613f0081613b69565b9250602084013591506040840135613f1781613b69565b809150509250925092565b600181811c90821680613f3657607f821691505b60208210811415613f5757634e487b7160e01b600052602260045260246000fd5b50919050565b6020808252600a90820152691c994b595b9d195c995960b21b604082015260600190565b600060208284031215613f9357600080fd5b5051919050565b600060208284031215613fac57600080fd5b81518015158114610c6c57600080fd5b634e487b7160e01b600052601160045260246000fd5b600082821015613fe457613fe4613fbc565b500390565b60008219821115613ffc57613ffc613fbc565b500190565b600081600019048311821515161561401b5761401b613fbc565b500290565b60008261403d57634e487b7160e01b600052601260045260246000fd5b500490565b6001600160a01b039390931683526020830191909152604082015260600190565b6001600160a01b039384168152919092166020820152604081019190915260600190565b6000806040838503121561409a57600080fd5b50508051602090910151909290915056feddf252ad1be2c89b69c2b068fc378daa952ba7f163c4a11628f55a4df523b3efa2646970667358221220ca1e9427ae504213b8279773421b70d3221f3ca9049b8c613a3578c8401be3cf64736f6c634300080b0033",
  "devdoc": {
    "kind": "dev",
    "methods": {
      "_acceptAdmin()": {
        "details": "Admin function for pending admin to accept role and update admin",
        "returns": {
          "_0": "uint 0=success, otherwise a failure (see ErrorReporter.sol for details)"
        }
      },
      "_addReserves(uint256)": {
        "params": {
          "addAmount": "The amount fo underlying token to add as reserves"
        },
        "returns": {
          "_0": "uint 0=success, otherwise a failure (see ErrorReporter.sol for details)"
        }
      },
      "_becomeImplementation(bytes)": {
        "params": {
          "data": "The encoded bytes data for any initialization"
        }
      },
      "_delegateCompLikeTo(address)": {
        "details": "CTokens whose underlying are not CompLike should revert here",
        "params": {
          "compLikeDelegatee": "The address to delegate votes to"
        }
      },
      "_reduceReserves(uint256)": {
        "params": {
          "reduceAmount": "Amount of reduction to reserves"
        },
        "returns": {
          "_0": "uint 0=success, otherwise a failure (see ErrorReporter.sol for details)"
        }
      },
      "_setComptroller(address)": {
        "details": "Admin function to set a new comptroller",
        "returns": {
          "_0": "uint 0=success, otherwise a failure (see ErrorReporter.sol for details)"
        }
      },
      "_setInterestRateModel(address)": {
        "details": "Admin function to accrue interest and update the interest rate model",
        "params": {
          "newInterestRateModel": "the new interest rate model to use"
        },
        "returns": {
          "_0": "uint 0=success, otherwise a failure (see ErrorReporter.sol for details)"
        }
      },
      "_setPendingAdmin(address)": {
        "details": "Admin function to begin change of admin. The newPendingAdmin must call `_acceptAdmin` to finalize the transfer.",
        "params": {
          "newPendingAdmin": "New pending admin."
        },
        "returns": {
          "_0": "uint 0=success, otherwise a failure (see ErrorReporter.sol for details)"
        }
      },
      "_setReserveFactor(uint256)": {
        "details": "Admin function to accrue interest and set a new reserve factor",
        "returns": {
          "_0": "uint 0=success, otherwise a failure (see ErrorReporter.sol for details)"
        }
      },
      "accrueInterest()": {
        "details": "This calculates interest accrued from the last checkpointed block   up to the current block and writes new checkpoint to storage."
      },
      "allowance(address,address)": {
        "params": {
          "owner": "The address of the account which owns the tokens to be spent",
          "spender": "The address of the account which may transfer tokens"
        },
        "returns": {
          "_0": "The number of tokens allowed to be spent (-1 means infinite)"
        }
      },
      "approve(address,uint256)": {
        "details": "This will overwrite the approval amount for `spender`  and is subject to issues noted [here](https://eips.ethereum.org/EIPS/eip-20#approve)",
        "params": {
          "amount": "The number of tokens that are approved (uint256.max means infinite)",
          "spender": "The address of the account which may transfer tokens"
        },
        "returns": {
          "_0": "Whether or not the approval succeeded"
        }
      },
      "balanceOf(address)": {
        "params": {
          "owner": "The address of the account to query"
        },
        "returns": {
          "_0": "The number of tokens owned by `owner`"
        }
      },
      "balanceOfUnderlying(address)": {
        "details": "This also accrues interest in a transaction",
        "params": {
          "owner": "The address of the account to query"
        },
        "returns": {
          "_0": "The amount of underlying owned by `owner`"
        }
      },
      "borrow(uint256)": {
        "params": {
          "borrowAmount": "The amount of the underlying asset to borrow"
        },
        "returns": {
          "_0": "uint 0=success, otherwise a failure (see ErrorReporter.sol for details)"
        }
      },
      "borrowBalanceCurrent(address)": {
        "params": {
          "account": "The address whose balance should be calculated after updating borrowIndex"
        },
        "returns": {
          "_0": "The calculated balance"
        }
      },
      "borrowBalanceStored(address)": {
        "params": {
          "account": "The address whose balance should be calculated"
        },
        "returns": {
          "_0": "The calculated balance"
        }
      },
      "borrowRatePerBlock()": {
        "returns": {
          "_0": "The borrow interest rate per block, scaled by 1e18"
        }
      },
      "exchangeRateCurrent()": {
        "returns": {
          "_0": "Calculated exchange rate scaled by 1e18"
        }
      },
      "exchangeRateStored()": {
        "details": "This function does not accrue interest before calculating the exchange rate",
        "returns": {
          "_0": "Calculated exchange rate scaled by 1e18"
        }
      },
      "getAccountSnapshot(address)": {
        "details": "This is used by comptroller to more efficiently perform liquidity checks.",
        "params": {
          "account": "Address of the account to snapshot"
        },
        "returns": {
          "_0": "(possible error, token balance, borrow balance, exchange rate mantissa)"
        }
      },
      "getAccountant()": {
        "details": "return the current address of the Accounant"
      },
      "getCash()": {
        "returns": {
          "_0": "The quantity of underlying asset owned by this contract"
        }
      },
      "initialize(address,address,address,uint256,string,string,uint8,uint8)": {
        "params": {
          "comptroller_": "The address of the Comptroller",
          "decimals_": "ERC-20 decimal precision of this token",
          "initialExchangeRateMantissa_": "The initial exchange rate, scaled by 1e18",
          "interestRateModel_": "The address of the interest rate model",
          "name_": "ERC-20 name of this token",
          "symbol_": "ERC-20 symbol of this token",
          "underlying_": "The address of the underlying asset"
        }
      },
      "initialize(address,address,uint256,string,string,uint8,uint8)": {
        "params": {
          "comptroller_": "The address of the Comptroller",
          "decimals_": "EIP-20 decimal precision of this token",
          "initialExchangeRateMantissa_": "The initial exchange rate, scaled by 1e18",
          "interestRateModel_": "The address of the interest rate model",
          "name_": "EIP-20 name of this token",
          "symbol_": "EIP-20 symbol of this token"
        }
      },
      "liquidateBorrow(address,uint256,address)": {
        "params": {
          "borrower": "The borrower of this cToken to be liquidated",
          "cTokenCollateral": "The market in which to seize collateral from the borrower",
          "repayAmount": "The amount of the underlying borrowed asset to repay"
        },
        "returns": {
          "_0": "uint 0=success, otherwise a failure (see ErrorReporter.sol for details)"
        }
      },
      "mint(uint256)": {
        "details": "Accrues interest whether or not the operation succeeds, unless reverted",
        "params": {
          "mintAmount": "The amount of the underlying asset to supply"
        },
        "returns": {
          "_0": "uint 0=success, otherwise a failure (see ErrorReporter.sol for details)"
        }
      },
      "redeem(uint256)": {
        "details": "Accrues interest whether or not the operation succeeds, unless reverted",
        "params": {
          "redeemTokens": "The number of cTokens to redeem into underlying"
        },
        "returns": {
          "_0": "uint 0=success, otherwise a failure (see ErrorReporter.sol for details)"
        }
      },
      "redeemUnderlying(uint256)": {
        "details": "Accrues interest whether or not the operation succeeds, unless reverted",
        "params": {
          "redeemAmount": "The amount of underlying to redeem"
        },
        "returns": {
          "_0": "uint 0=success, otherwise a failure (see ErrorReporter.sol for details)"
        }
      },
      "repayBorrow(uint256)": {
        "params": {
          "repayAmount": "The amount to repay, or -1 for the full outstanding amount"
        },
        "returns": {
          "_0": "uint 0=success, otherwise a failure (see ErrorReporter.sol for details)"
        }
      },
      "repayBorrowBehalf(address,uint256)": {
        "params": {
          "borrower": "the account with the debt being payed off",
          "repayAmount": "The amount to repay, or -1 for the full outstanding amount"
        },
        "returns": {
          "_0": "uint 0=success, otherwise a failure (see ErrorReporter.sol for details)"
        }
      },
      "seize(address,address,uint256)": {
        "details": "Will fail unless called by another cToken during the process of liquidation.  Its absolutely critical to use msg.sender as the borrowed cToken and not a parameter.",
        "params": {
          "borrower": "The account having collateral seized",
          "liquidator": "The account receiving seized collateral",
          "seizeTokens": "The number of cTokens to seize"
        },
        "returns": {
          "_0": "uint 0=success, otherwise a failure (see ErrorReporter.sol for details)"
        }
      },
      "supplyRatePerBlock()": {
        "returns": {
          "_0": "The supply interest rate per block, scaled by 1e18"
        }
      },
      "sweepToken(address)": {
        "params": {
          "token": "The address of the ERC-20 token to sweep"
        }
      },
      "totalBorrowsCurrent()": {
        "returns": {
          "_0": "The total borrows with interest"
        }
      },
      "transfer(address,uint256)": {
        "params": {
          "amount": "The number of tokens to transfer",
          "dst": "The address of the destination account"
        },
        "returns": {
          "_0": "Whether or not the transfer succeeded"
        }
      },
      "transferFrom(address,address,uint256)": {
        "params": {
          "amount": "The number of tokens to transfer",
          "dst": "The address of the destination account",
          "src": "The address of the source account"
        },
        "returns": {
          "_0": "Whether or not the transfer succeeded"
        }
      }
    },
    "version": 1
  },
  "userdoc": {
    "events": {
      "AccrueInterest(uint256,uint256,uint256,uint256)": {
        "notice": "Event emitted when interest is accrued"
      },
      "Approval(address,address,uint256)": {
        "notice": "EIP20 Approval event"
      },
      "Borrow(address,uint256,uint256,uint256)": {
        "notice": "Event emitted when underlying is borrowed"
      },
      "LiquidateBorrow(address,address,uint256,address,uint256)": {
        "notice": "Event emitted when a borrow is liquidated"
      },
      "Mint(address,uint256,uint256)": {
        "notice": "Event emitted when tokens are minted"
      },
      "NewAdmin(address,address)": {
        "notice": "Event emitted when pendingAdmin is accepted, which means admin is updated"
      },
      "NewComptroller(address,address)": {
        "notice": "Event emitted when comptroller is changed"
      },
      "NewMarketInterestRateModel(address,address)": {
        "notice": "Event emitted when interestRateModel is changed"
      },
      "NewPendingAdmin(address,address)": {
        "notice": "Event emitted when pendingAdmin is changed"
      },
      "NewReserveFactor(uint256,uint256)": {
        "notice": "Event emitted when the reserve factor is changed"
      },
      "Redeem(address,uint256,uint256)": {
        "notice": "Event emitted when tokens are redeemed"
      },
      "RepayBorrow(address,address,uint256,uint256,uint256)": {
        "notice": "Event emitted when a borrow is repaid"
      },
      "ReservesAdded(address,uint256,uint256)": {
        "notice": "Event emitted when the reserves are added"
      },
      "ReservesReduced(address,uint256,uint256)": {
        "notice": "Event emitted when the reserves are reduced"
      },
      "Transfer(address,address,uint256)": {
        "notice": "EIP20 Transfer event"
      }
    },
    "kind": "user",
    "methods": {
      "_acceptAdmin()": {
        "notice": "Accepts transfer of admin rights. msg.sender must be pendingAdmin"
      },
      "_addReserves(uint256)": {
        "notice": "The sender adds to reserves."
      },
      "_becomeImplementation(bytes)": {
        "notice": "Called by the delegator on a delegate to initialize it for duty"
      },
      "_delegateCompLikeTo(address)": {
        "notice": "Admin call to delegate the votes of the COMP-like underlying"
      },
      "_reduceReserves(uint256)": {
        "notice": "Accrues interest and reduces reserves by transferring to admin"
      },
      "_resignImplementation()": {
        "notice": "Called by the delegator on a delegate to forfeit its responsibility"
      },
      "_setComptroller(address)": {
        "notice": "Sets a new comptroller for the market"
      },
      "_setInterestRateModel(address)": {
        "notice": "accrues interest and updates the interest rate model using _setInterestRateModelFresh"
      },
      "_setPendingAdmin(address)": {
        "notice": "Begins transfer of admin rights. The newPendingAdmin must call `_acceptAdmin` to finalize the transfer."
      },
      "_setReserveFactor(uint256)": {
        "notice": "accrues interest and sets a new reserve factor for the protocol using _setReserveFactorFresh"
      },
      "accrualBlockNumber()": {
        "notice": "Block number that interest was last accrued at"
      },
      "accrueInterest()": {
        "notice": "Applies accrued interest to total borrows and reserves"
      },
      "admin()": {
        "notice": "Administrator for this contract"
      },
      "allowance(address,address)": {
        "notice": "Get the current allowance from `owner` for `spender`"
      },
      "approve(address,uint256)": {
        "notice": "Approve `spender` to transfer up to `amount` from `src`"
      },
      "balanceOf(address)": {
        "notice": "Get the token balance of the `owner`"
      },
      "balanceOfUnderlying(address)": {
        "notice": "Get the underlying balance of the `owner`"
      },
      "borrow(uint256)": {
        "notice": "Sender borrows assets from the protocol to their own address"
      },
      "borrowBalanceCurrent(address)": {
        "notice": "Accrue interest to updated borrowIndex and then calculate account's borrow balance using the updated borrowIndex"
      },
      "borrowBalanceStored(address)": {
        "notice": "Return the borrow balance of account based on stored data"
      },
      "borrowIndex()": {
        "notice": "Accumulator of the total earned interest rate since the opening of the market"
      },
      "borrowRatePerBlock()": {
        "notice": "Returns the current per-block borrow interest rate for this cToken"
      },
      "comptroller()": {
        "notice": "Contract which oversees inter-cToken operations"
      },
      "decimals()": {
        "notice": "EIP-20 token decimals for this token"
      },
      "exchangeRateCurrent()": {
        "notice": "Accrue interest then return the up-to-date exchange rate"
      },
      "exchangeRateStored()": {
        "notice": "Calculates the exchange rate from the underlying to the CToken"
      },
      "getAccountSnapshot(address)": {
        "notice": "Get a snapshot of the account's balances, and the cached exchange rate"
      },
      "getCash()": {
        "notice": "Get cash balance of this cToken in the underlying asset"
      },
      "implementation()": {
        "notice": "Implementation address for this contract"
      },
      "initialize(address,address,address,uint256,string,string,uint8,uint8)": {
        "notice": "Initialize the new money market"
      },
      "initialize(address,address,uint256,string,string,uint8,uint8)": {
        "notice": "Initialize the money market"
      },
      "interestRateModel()": {
        "notice": "Model which tells what the current interest rate should be"
      },
      "isCToken()": {
        "notice": "Indicator that this is a CToken contract (for inspection)"
      },
      "liquidateBorrow(address,uint256,address)": {
        "notice": "The sender liquidates the borrowers collateral.  The collateral seized is transferred to the liquidator."
      },
      "mint(uint256)": {
        "notice": "Sender supplies assets into the market and receives cTokens in exchange"
      },
      "name()": {
        "notice": "EIP-20 token name for this token"
      },
      "pendingAdmin()": {
        "notice": "Pending administrator for this contract"
      },
      "protocolSeizeShareMantissa()": {
        "notice": "Share of seized collateral that is added to reserves"
      },
      "redeem(uint256)": {
        "notice": "Sender redeems cTokens in exchange for the underlying asset"
      },
      "redeemUnderlying(uint256)": {
        "notice": "Sender redeems cTokens in exchange for a specified amount of underlying asset"
      },
      "repayBorrow(uint256)": {
        "notice": "Sender repays their own borrow"
      },
      "repayBorrowBehalf(address,uint256)": {
        "notice": "Sender repays a borrow belonging to borrower"
      },
      "reserveFactorMantissa()": {
        "notice": "Fraction of interest currently set aside for reserves"
      },
      "seize(address,address,uint256)": {
        "notice": "Transfers collateral tokens (this market) to the liquidator."
      },
      "supplyRatePerBlock()": {
        "notice": "Returns the current per-block supply interest rate for this cToken"
      },
      "sweepToken(address)": {
        "notice": "A public function to sweep accidental ERC-20 transfers to this contract. Tokens are sent to admin (timelock)"
      },
      "symbol()": {
        "notice": "EIP-20 token symbol for this token"
      },
      "totalBorrows()": {
        "notice": "Total amount of outstanding borrows of the underlying in this market"
      },
      "totalBorrowsCurrent()": {
        "notice": "Returns the current total borrows plus accrued interest"
      },
      "totalReserves()": {
        "notice": "Total amount of reserves of the underlying held in this market"
      },
      "totalSupply()": {
        "notice": "Total number of tokens in circulation"
      },
      "transfer(address,uint256)": {
        "notice": "Transfer `amount` tokens from `msg.sender` to `dst`"
      },
      "transferFrom(address,address,uint256)": {
        "notice": "Transfer `amount` tokens from `src` to `dst`"
      },
      "underlying()": {
        "notice": "Underlying asset for this CToken"
      }
    },
    "version": 1
  },
  "storageLayout": {
    "storage": [
      {
        "astId": 5979,
        "contract": "contracts/CNote.sol:CNote",
        "label": "_notEntered",
        "offset": 0,
        "slot": "0",
        "type": "t_bool"
      },
      {
        "astId": 5981,
        "contract": "contracts/CNote.sol:CNote",
        "label": "stable",
        "offset": 1,
        "slot": "0",
        "type": "t_uint8"
      },
      {
        "astId": 5984,
        "contract": "contracts/CNote.sol:CNote",
        "label": "name",
        "offset": 0,
        "slot": "1",
        "type": "t_string_storage"
      },
      {
        "astId": 5987,
        "contract": "contracts/CNote.sol:CNote",
        "label": "symbol",
        "offset": 0,
        "slot": "2",
        "type": "t_string_storage"
      },
      {
        "astId": 5990,
        "contract": "contracts/CNote.sol:CNote",
        "label": "decimals",
        "offset": 0,
        "slot": "3",
        "type": "t_uint8"
      },
      {
        "astId": 5999,
        "contract": "contracts/CNote.sol:CNote",
        "label": "admin",
        "offset": 1,
        "slot": "3",
        "type": "t_address_payable"
      },
      {
        "astId": 6002,
        "contract": "contracts/CNote.sol:CNote",
        "label": "pendingAdmin",
        "offset": 0,
        "slot": "4",
        "type": "t_address_payable"
      },
      {
        "astId": 6006,
        "contract": "contracts/CNote.sol:CNote",
        "label": "comptroller",
        "offset": 0,
        "slot": "5",
        "type": "t_contract(ComptrollerInterface)14521"
      },
      {
        "astId": 6010,
        "contract": "contracts/CNote.sol:CNote",
        "label": "interestRateModel",
        "offset": 0,
        "slot": "6",
        "type": "t_contract(InterestRateModel)18595"
      },
      {
        "astId": 6012,
        "contract": "contracts/CNote.sol:CNote",
        "label": "initialExchangeRateMantissa",
        "offset": 0,
        "slot": "7",
        "type": "t_uint256"
      },
      {
        "astId": 6015,
        "contract": "contracts/CNote.sol:CNote",
        "label": "reserveFactorMantissa",
        "offset": 0,
        "slot": "8",
        "type": "t_uint256"
      },
      {
        "astId": 6018,
        "contract": "contracts/CNote.sol:CNote",
        "label": "accrualBlockNumber",
        "offset": 0,
        "slot": "9",
        "type": "t_uint256"
      },
      {
        "astId": 6021,
        "contract": "contracts/CNote.sol:CNote",
        "label": "borrowIndex",
        "offset": 0,
        "slot": "10",
        "type": "t_uint256"
      },
      {
        "astId": 6024,
        "contract": "contracts/CNote.sol:CNote",
        "label": "totalBorrows",
        "offset": 0,
        "slot": "11",
        "type": "t_uint256"
      },
      {
        "astId": 6027,
        "contract": "contracts/CNote.sol:CNote",
        "label": "totalReserves",
        "offset": 0,
        "slot": "12",
        "type": "t_uint256"
      },
      {
        "astId": 6030,
        "contract": "contracts/CNote.sol:CNote",
        "label": "totalSupply",
        "offset": 0,
        "slot": "13",
        "type": "t_uint256"
      },
      {
        "astId": 6034,
        "contract": "contracts/CNote.sol:CNote",
        "label": "accountTokens",
        "offset": 0,
        "slot": "14",
        "type": "t_mapping(t_address,t_uint256)"
      },
      {
        "astId": 6040,
        "contract": "contracts/CNote.sol:CNote",
        "label": "transferAllowances",
        "offset": 0,
        "slot": "15",
        "type": "t_mapping(t_address,t_mapping(t_address,t_uint256))"
      },
      {
        "astId": 6050,
        "contract": "contracts/CNote.sol:CNote",
        "label": "accountBorrows",
        "offset": 0,
        "slot": "16",
        "type": "t_mapping(t_address,t_struct(BorrowSnapshot)6045_storage)"
      },
      {
        "astId": 6373,
        "contract": "contracts/CNote.sol:CNote",
        "label": "underlying",
        "offset": 0,
        "slot": "17",
        "type": "t_address"
      },
      {
        "astId": 6449,
        "contract": "contracts/CNote.sol:CNote",
        "label": "implementation",
        "offset": 0,
        "slot": "18",
        "type": "t_address"
      },
      {
        "astId": 3468,
        "contract": "contracts/CNote.sol:CNote",
        "label": "_accountant",
        "offset": 0,
        "slot": "19",
        "type": "t_contract(AccountantInterface)714"
      }
    ],
    "types": {
      "t_address": {
        "encoding": "inplace",
        "label": "address",
        "numberOfBytes": "20"
      },
      "t_address_payable": {
        "encoding": "inplace",
        "label": "address payable",
        "numberOfBytes": "20"
      },
      "t_bool": {
        "encoding": "inplace",
        "label": "bool",
        "numberOfBytes": "1"
      },
      "t_contract(AccountantInterface)714": {
        "encoding": "inplace",
        "label": "contract AccountantInterface",
        "numberOfBytes": "20"
      },
      "t_contract(ComptrollerInterface)14521": {
        "encoding": "inplace",
        "label": "contract ComptrollerInterface",
        "numberOfBytes": "20"
      },
      "t_contract(InterestRateModel)18595": {
        "encoding": "inplace",
        "label": "contract InterestRateModel",
        "numberOfBytes": "20"
      },
      "t_mapping(t_address,t_mapping(t_address,t_uint256))": {
        "encoding": "mapping",
        "key": "t_address",
        "label": "mapping(address => mapping(address => uint256))",
        "numberOfBytes": "32",
        "value": "t_mapping(t_address,t_uint256)"
      },
      "t_mapping(t_address,t_struct(BorrowSnapshot)6045_storage)": {
        "encoding": "mapping",
        "key": "t_address",
        "label": "mapping(address => struct CTokenStorage.BorrowSnapshot)",
        "numberOfBytes": "32",
        "value": "t_struct(BorrowSnapshot)6045_storage"
      },
      "t_mapping(t_address,t_uint256)": {
        "encoding": "mapping",
        "key": "t_address",
        "label": "mapping(address => uint256)",
        "numberOfBytes": "32",
        "value": "t_uint256"
      },
      "t_string_storage": {
        "encoding": "bytes",
        "label": "string",
        "numberOfBytes": "32"
      },
      "t_struct(BorrowSnapshot)6045_storage": {
        "encoding": "inplace",
        "label": "struct CTokenStorage.BorrowSnapshot",
        "members": [
          {
            "astId": 6042,
            "contract": "contracts/CNote.sol:CNote",
            "label": "principal",
            "offset": 0,
            "slot": "0",
            "type": "t_uint256"
          },
          {
            "astId": 6044,
            "contract": "contracts/CNote.sol:CNote",
            "label": "interestIndex",
            "offset": 0,
            "slot": "1",
            "type": "t_uint256"
          }
        ],
        "numberOfBytes": "64"
      },
      "t_uint256": {
        "encoding": "inplace",
        "label": "uint256",
        "numberOfBytes": "32"
      },
      "t_uint8": {
        "encoding": "inplace",
        "label": "uint8",
        "numberOfBytes": "1"
      }
    }
  }
}