{
  "address": "0x9DDd55856ED78F06b52e7584Af67e5Af072107C0",
  "abi": [
    {
      "anonymous": false,
      "inputs": [
        {
          "indexed": false,
          "internalType": "address",
          "name": "oldAdmin",
          "type": "address"
        },
        {
          "indexed": false,
          "internalType": "address",
          "name": "newAdmin",
          "type": "address"
        }
      ],
      "name": "NewAdmin",
      "type": "event"
    },
    {
      "anonymous": false,
      "inputs": [
        {
          "indexed": false,
          "internalType": "address",
          "name": "oldImplementation",
          "type": "address"
        },
        {
          "indexed": false,
          "internalType": "address",
          "name": "newImplementation",
          "type": "address"
        }
      ],
      "name": "NewImplementation",
      "type": "event"
    },
    {
      "anonymous": false,
      "inputs": [
        {
          "indexed": false,
          "internalType": "address",
          "name": "oldPendingAdmin",
          "type": "address"
        },
        {
          "indexed": false,
          "internalType": "address",
          "name": "newPendingAdmin",
          "type": "address"
        }
      ],
      "name": "NewPendingAdmin",
      "type": "event"
    },
    {
      "anonymous": false,
      "inputs": [
        {
          "indexed": false,
          "internalType": "uint256",
          "name": "id",
          "type": "uint256"
        }
      ],
      "name": "ProposalCanceled",
      "type": "event"
    },
    {
      "anonymous": false,
      "inputs": [
        {
          "indexed": false,
          "internalType": "uint256",
          "name": "id",
          "type": "uint256"
        },
        {
          "indexed": false,
          "internalType": "address",
          "name": "proposer",
          "type": "address"
        },
        {
          "indexed": false,
          "internalType": "address[]",
          "name": "targets",
          "type": "address[]"
        },
        {
          "indexed": false,
          "internalType": "uint256[]",
          "name": "values",
          "type": "uint256[]"
        },
        {
          "indexed": false,
          "internalType": "string[]",
          "name": "signatures",
          "type": "string[]"
        },
        {
          "indexed": false,
          "internalType": "bytes[]",
          "name": "calldatas",
          "type": "bytes[]"
        },
        {
          "indexed": false,
          "internalType": "uint256",
          "name": "startBlock",
          "type": "uint256"
        },
        {
          "indexed": false,
          "internalType": "uint256",
          "name": "endBlock",
          "type": "uint256"
        },
        {
          "indexed": false,
          "internalType": "string",
          "name": "description",
          "type": "string"
        }
      ],
      "name": "ProposalCreated",
      "type": "event"
    },
    {
      "anonymous": false,
      "inputs": [
        {
          "indexed": false,
          "internalType": "uint256",
          "name": "id",
          "type": "uint256"
        }
      ],
      "name": "ProposalExecuted",
      "type": "event"
    },
    {
      "anonymous": false,
      "inputs": [
        {
          "indexed": false,
          "internalType": "uint256",
          "name": "id",
          "type": "uint256"
        },
        {
          "indexed": false,
          "internalType": "uint256",
          "name": "eta",
          "type": "uint256"
        }
      ],
      "name": "ProposalQueued",
      "type": "event"
    },
    {
      "anonymous": false,
      "inputs": [
        {
          "indexed": false,
          "internalType": "uint256",
          "name": "oldProposalThreshold",
          "type": "uint256"
        },
        {
          "indexed": false,
          "internalType": "uint256",
          "name": "newProposalThreshold",
          "type": "uint256"
        }
      ],
      "name": "ProposalThresholdSet",
      "type": "event"
    },
    {
      "inputs": [],
      "name": "BALLOT_TYPEHASH",
      "outputs": [
        {
          "internalType": "bytes32",
          "name": "",
          "type": "bytes32"
        }
      ],
      "stateMutability": "view",
      "type": "function"
    },
    {
      "inputs": [],
      "name": "DOMAIN_TYPEHASH",
      "outputs": [
        {
          "internalType": "bytes32",
          "name": "",
          "type": "bytes32"
        }
      ],
      "stateMutability": "view",
      "type": "function"
    },
    {
      "inputs": [],
      "name": "_acceptAdmin",
      "outputs": [],
      "stateMutability": "nonpayable",
      "type": "function"
    },
    {
      "inputs": [],
      "name": "_initiate",
      "outputs": [],
      "stateMutability": "nonpayable",
      "type": "function"
    },
    {
      "inputs": [
        {
          "internalType": "address",
          "name": "newPendingAdmin",
          "type": "address"
        }
      ],
      "name": "_setPendingAdmin",
      "outputs": [],
      "stateMutability": "nonpayable",
      "type": "function"
    },
    {
      "inputs": [],
      "name": "admin",
      "outputs": [
        {
          "internalType": "address",
          "name": "",
          "type": "address"
        }
      ],
      "stateMutability": "view",
      "type": "function"
    },
    {
      "inputs": [
        {
          "internalType": "uint256",
          "name": "proposalId",
          "type": "uint256"
        }
      ],
      "name": "execute",
      "outputs": [],
      "stateMutability": "payable",
      "type": "function"
    },
    {
      "inputs": [
        {
          "internalType": "uint256",
          "name": "proposalId",
          "type": "uint256"
        }
      ],
      "name": "getActions",
      "outputs": [
        {
          "internalType": "address[]",
          "name": "targets",
          "type": "address[]"
        },
        {
          "internalType": "uint256[]",
          "name": "values",
          "type": "uint256[]"
        },
        {
          "internalType": "string[]",
          "name": "signatures",
          "type": "string[]"
        },
        {
          "internalType": "bytes[]",
          "name": "calldatas",
          "type": "bytes[]"
        }
      ],
      "stateMutability": "view",
      "type": "function"
    },
    {
      "inputs": [],
      "name": "implementation",
      "outputs": [
        {
          "internalType": "address",
          "name": "",
          "type": "address"
        }
      ],
      "stateMutability": "view",
      "type": "function"
    },
    {
      "inputs": [],
      "name": "initialProposalId",
      "outputs": [
        {
          "internalType": "uint256",
          "name": "",
          "type": "uint256"
        }
      ],
      "stateMutability": "view",
      "type": "function"
    },
    {
      "inputs": [
        {
          "internalType": "address",
          "name": "timelock_",
          "type": "address"
        }
      ],
      "name": "initialize",
      "outputs": [],
      "stateMutability": "nonpayable",
      "type": "function"
    },
    {
      "inputs": [
        {
          "internalType": "address",
          "name": "",
          "type": "address"
        }
      ],
      "name": "latestProposalIds",
      "outputs": [
        {
          "internalType": "uint256",
          "name": "",
          "type": "uint256"
        }
      ],
      "stateMutability": "view",
      "type": "function"
    },
    {
      "inputs": [],
      "name": "name",
      "outputs": [
        {
          "internalType": "string",
          "name": "",
          "type": "string"
        }
      ],
      "stateMutability": "view",
      "type": "function"
    },
    {
      "inputs": [],
      "name": "pendingAdmin",
      "outputs": [
        {
          "internalType": "address",
          "name": "",
          "type": "address"
        }
      ],
      "stateMutability": "view",
      "type": "function"
    },
    {
      "inputs": [],
      "name": "proposalMaxOperations",
      "outputs": [
        {
          "internalType": "uint256",
          "name": "",
          "type": "uint256"
        }
      ],
      "stateMutability": "view",
      "type": "function"
    },
    {
      "inputs": [],
      "name": "proposalThreshold",
      "outputs": [
        {
          "internalType": "uint256",
          "name": "",
          "type": "uint256"
        }
      ],
      "stateMutability": "view",
      "type": "function"
    },
    {
      "inputs": [
        {
          "internalType": "uint256",
          "name": "",
          "type": "uint256"
        }
      ],
      "name": "proposals",
      "outputs": [
        {
          "internalType": "uint256",
          "name": "id",
          "type": "uint256"
        },
        {
          "internalType": "address",
          "name": "proposer",
          "type": "address"
        },
        {
          "internalType": "uint256",
          "name": "eta",
          "type": "uint256"
        },
        {
          "internalType": "bool",
          "name": "canceled",
          "type": "bool"
        },
        {
          "internalType": "bool",
          "name": "executed",
          "type": "bool"
        }
      ],
      "stateMutability": "view",
      "type": "function"
    },
    {
      "inputs": [
        {
          "internalType": "uint256",
          "name": "proposalId",
          "type": "uint256"
        }
      ],
      "name": "queue",
      "outputs": [],
      "stateMutability": "nonpayable",
      "type": "function"
    },
    {
      "inputs": [
        {
          "internalType": "uint256",
          "name": "proposalId",
          "type": "uint256"
        }
      ],
      "name": "state",
      "outputs": [
        {
          "internalType": "enum GovernorBravoDelegateStorageV1.ProposalState",
          "name": "",
          "type": "uint8"
        }
      ],
      "stateMutability": "view",
      "type": "function"
    },
    {
      "inputs": [],
      "name": "timelock",
      "outputs": [
        {
          "internalType": "contract TimelockInterface",
          "name": "",
          "type": "address"
        }
      ],
      "stateMutability": "view",
      "type": "function"
    }
  ],
  "transactionHash": "0x5488669bab1e302f5afd87af1f84e23b858913b31c8d57275453ceb7fae613f5",
  "args": [],
  "numDeployments": 3,
  "solcInputHash": "e0d58323eecab65c0e238d24be016b29",
  "bytecode": "0x608060405234801561001057600080fd5b50611fff806100206000396000f3fe60806040526004361061011f5760003560e01c8063b58131b0116100a0578063deaaa7cc11610064578063deaaa7cc146103f1578063e9c714f214610425578063f851a4401461043a578063fc4eee421461045a578063fe0d94c11461047057600080fd5b8063b58131b01461035b578063b71d1a0c14610371578063c4d66de814610391578063d33219b4146103b1578063ddf0b009146103d157600080fd5b8063328dd982116100e7578063328dd982146102b25780633e4f49e6146102e25780635c60da1b1461030f5780637bdbe4d01461032f578063878f14821461034457600080fd5b8063013cf08b1461012457806306fdde03146101b557806317977c611461020b57806320606b7014610246578063267822471461027a575b600080fd5b34801561013057600080fd5b5061017c61013f366004611833565b600660205260009081526040902080546001820154600283015460079093015491926001600160a01b039091169160ff8082169161010090041685565b604080519586526001600160a01b03909416602086015292840191909152151560608301521515608082015260a0015b60405180910390f35b3480156101c157600080fd5b506101fe6040518060400160405280601781526020017f436f6d706f756e6420476f7665726e6f7220427261766f00000000000000000081525081565b6040516101ac91906118a4565b34801561021757600080fd5b506102386102263660046118cc565b60076020526000908152604090205481565b6040519081526020016101ac565b34801561025257600080fd5b506102387f8cad95687ba82c2ce50e74f7b754645e5117c3a5bec8151c0726d5857980a86681565b34801561028657600080fd5b5060015461029a906001600160a01b031681565b6040516001600160a01b0390911681526020016101ac565b3480156102be57600080fd5b506102d26102cd366004611833565b610483565b6040516101ac949392919061193b565b3480156102ee57600080fd5b506103026102fd366004611833565b610714565b6040516101ac91906119fd565b34801561031b57600080fd5b5060025461029a906001600160a01b031681565b34801561033b57600080fd5b50610238600a81565b34801561035057600080fd5b506103596107d5565b005b34801561036757600080fd5b5061023860035481565b34801561037d57600080fd5b5061035961038c3660046118cc565b610913565b34801561039d57600080fd5b506103596103ac3660046118cc565b6109e2565b3480156103bd57600080fd5b5060055461029a906001600160a01b031681565b3480156103dd57600080fd5b506103596103ec366004611833565b610b75565b3480156103fd57600080fd5b506102387f150214d74d59b7d1e90c73fc22ef3d991dd0a76b046543d4d80ab92d2a50328f81565b34801561043157600080fd5b50610359611075565b34801561044657600080fd5b5060005461029a906001600160a01b031681565b34801561046657600080fd5b5061023860045481565b61035961047e366004611833565b611194565b6060806060806000600660008781526020019081526020016000209050806003018160040182600501836006018380548060200260200160405190810160405280929190818152602001828054801561050557602002820191906000526020600020905b81546001600160a01b031681526001909101906020018083116104e7575b505050505093508280548060200260200160405190810160405280929190818152602001828054801561055757602002820191906000526020600020905b815481526020019060010190808311610543575b5050505050925081805480602002602001604051908101604052809291908181526020016000905b8282101561062b57838290600052602060002001805461059e90611a25565b80601f01602080910402602001604051908101604052809291908181526020018280546105ca90611a25565b80156106175780601f106105ec57610100808354040283529160200191610617565b820191906000526020600020905b8154815290600101906020018083116105fa57829003601f168201915b50505050508152602001906001019061057f565b50505050915080805480602002602001604051908101604052809291908181526020016000905b828210156106fe57838290600052602060002001805461067190611a25565b80601f016020809104026020016040519081016040528092919081815260200182805461069d90611a25565b80156106ea5780601f106106bf576101008083540402835291602001916106ea565b820191906000526020600020905b8154815290600101906020018083116106cd57829003601f168201915b505050505081526020019060010190610652565b5050505090509450945094509450509193509193565b60008181526006602052604081206007810154610100900460ff161561073d5750600292915050565b6002810154600554604080516360d143f160e11b815290516107b793926001600160a01b03169163c1a287e29160048083019260209291908290030181865afa15801561078e573d6000803e3d6000fd5b505050506040513d601f19601f820116820180604052508101906107b29190611a5a565b6113d1565b42106107c65750600192915050565b50600092915050565b50919050565b6000546001600160a01b031633146108405760405162461bcd60e51b8152602060048201526024808201527f476f7665726e6f72427261766f3a3a5f696e6974696174653a2061646d696e206044820152636f6e6c7960e01b60648201526084015b60405180910390fd5b600454156108a95760405162461bcd60e51b815260206004820152603060248201527f476f7665726e6f72427261766f3a3a5f696e6974696174653a2063616e206f6e60448201526f6c7920696e697469617465206f6e636560801b6064820152608401610837565b600560009054906101000a90046001600160a01b03166001600160a01b0316630e18b6816040518163ffffffff1660e01b8152600401600060405180830381600087803b1580156108f957600080fd5b505af115801561090d573d6000803e3d6000fd5b50505050565b6000546001600160a01b031633146109805760405162461bcd60e51b815260206004820152602a60248201527f476f7665726e6f72427261766f3a5f73657450656e64696e6741646d696e3a2060448201526961646d696e206f6e6c7960b01b6064820152608401610837565b600180546001600160a01b038381166001600160a01b031983168117909355604080519190921680825260208201939093527fca4f2f25d0898edd99413412fb94012f9e54ec8142f9b093e7720646a95b16a991015b60405180910390a15050565b6005546001600160a01b031615610a575760405162461bcd60e51b815260206004820152603360248201527f476f7665726e6f72427261766f3a3a696e697469616c697a653a2063616e206f6044820152726e6c7920696e697469616c697a65206f6e636560681b6064820152608401610837565b6000546001600160a01b03163314610abf5760405162461bcd60e51b815260206004820152602560248201527f476f7665726e6f72427261766f3a3a696e697469616c697a653a2061646d696e604482015264206f6e6c7960d81b6064820152608401610837565b6001600160a01b038116610b315760405162461bcd60e51b815260206004820152603360248201527f476f7665726e6f72427261766f3a3a696e697469616c697a653a20696e76616c60448201527269642074696d656c6f636b206164647265737360681b6064820152608401610837565b600880547330e20d0a642adb85cb6e9da8fb9e3aadb0f593c06001600160a01b031991821617909155600580549091166001600160a01b0392909216919091179055565b600854604051631e1c28f760e31b8152600481018390526000916001600160a01b03169063f0e147b890602401600060405180830381865afa158015610bbf573d6000803e3d6000fd5b505050506040513d6000823e601f3d908101601f19168201604052610be79190810190611cc2565b9050806080015151816060015151148015610c0b57508060a0015151816060015151145b8015610c2057508060c0015151816060015151145b610ca05760405162461bcd60e51b8152602060048201526044602482018190527f476f7665726e6f72427261766f3a3a70726f706f73653a2070726f706f73616c908201527f2066756e6374696f6e20696e666f726d6174696f6e206172697479206d69736d6064820152630c2e8c6d60e31b608482015260a401610837565b606081015151610d075760405162461bcd60e51b815260206004820152602c60248201527f476f7665726e6f72427261766f3a3a70726f706f73653a206d7573742070726f60448201526b7669646520616374696f6e7360a01b6064820152608401610837565b600a8160600151511115610d6e5760405162461bcd60e51b815260206004820152602860248201527f476f7665726e6f72427261766f3a3a70726f706f73653a20746f6f206d616e7960448201526720616374696f6e7360c01b6064820152608401610837565b80516000908152600660205260408082208351835291205415610d9057600080fd5b815181556000600282015560608201518051610db69160038401916020909101906115e2565b5060808201518051610dd2916004840191602090910190611647565b5060a08201518051610dee916005840191602090910190611682565b5060c08201518051610e0a9160068401916020909101906116db565b506000610e6442600560009054906101000a90046001600160a01b03166001600160a01b0316636a42b8f86040518163ffffffff1660e01b8152600401602060405180830381865afa15801561078e573d6000803e3d6000fd5b905060005b600383015481101561102e5761101c836003018281548110610e8d57610e8d611ded565b6000918252602090912001546004850180546001600160a01b039092169184908110610ebb57610ebb611ded565b9060005260206000200154856005018481548110610edb57610edb611ded565b906000526020600020018054610ef090611a25565b80601f0160208091040260200160405190810160405280929190818152602001828054610f1c90611a25565b8015610f695780601f10610f3e57610100808354040283529160200191610f69565b820191906000526020600020905b815481529060010190602001808311610f4c57829003601f168201915b5050505050866006018581548110610f8357610f83611ded565b906000526020600020018054610f9890611a25565b80601f0160208091040260200160405190810160405280929190818152602001828054610fc490611a25565b80156110115780601f10610fe657610100808354040283529160200191611011565b820191906000526020600020905b815481529060010190602001808311610ff457829003601f168201915b50505050508661142b565b8061102681611e19565b915050610e69565b506002820181905560408051858152602081018390527f9a2e42fd6722813d69113e7d0079d3d940171428df7373df9c7f7617cfda2892910160405180910390a150505050565b6001546001600160a01b031633146110e65760405162461bcd60e51b815260206004820152602e60248201527f476f7665726e6f72427261766f3a5f61636365707441646d696e3a2070656e6460448201526d696e672061646d696e206f6e6c7960901b6064820152608401610837565b60008054600180546001600160a01b038082166001600160a01b031980861682179096559490911690915560408051919092168082526020820184905292917ff9ffabca9c8276e99321725bcb43fb076a6c66a54b7f21c4e8146d8519b417dc910160405180910390a1600154604080516001600160a01b03808516825290921660208301527fca4f2f25d0898edd99413412fb94012f9e54ec8142f9b093e7720646a95b16a991016109d6565b600061119f82610714565b60028111156111b0576111b06119e7565b146112315760405162461bcd60e51b815260206004820152604560248201527f476f7665726e6f72427261766f3a3a657865637574653a2070726f706f73616c60448201527f2063616e206f6e6c7920626520657865637574656420696620697420697320716064820152641d595d595960da1b608482015260a401610837565b600081815260066020526040812060078101805461ff001916610100179055905b60038201548110156113a0576005546004830180546001600160a01b0390921691630825f38f91908490811061128a5761128a611ded565b90600052602060002001548460030184815481106112aa576112aa611ded565b6000918252602090912001546004860180546001600160a01b0390921691869081106112d8576112d8611ded565b90600052602060002001548660050186815481106112f8576112f8611ded565b9060005260206000200187600601878154811061131757611317611ded565b9060005260206000200188600201546040518763ffffffff1660e01b8152600401611346959493929190611ed5565b60006040518083038185885af1158015611364573d6000803e3d6000fd5b50505050506040513d6000823e601f3d908101601f1916820160405261138d9190810190611f21565b508061139881611e19565b915050611252565b506040518281527f712ae1383f79ac853f8d882153778e0260ef8f03b504e2866e0593e04d2b291f906020016109d6565b6000806113de8385611f56565b9050838110156114245760405162461bcd60e51b81526020600482015260116024820152706164646974696f6e206f766572666c6f7760781b6044820152606401610837565b9392505050565b6005546040516001600160a01b039091169063f2b06537906114599088908890889088908890602001611f6e565b604051602081830303815290604052805190602001206040518263ffffffff1660e01b815260040161148d91815260200190565b602060405180830381865afa1580156114aa573d6000803e3d6000fd5b505050506040513d601f19601f820116820180604052508101906114ce9190611fa7565b1561155f5760405162461bcd60e51b815260206004820152605560248201527f476f7665726e6f72427261766f3a3a71756575654f72526576657274496e746560448201527f726e616c3a206964656e746963616c2070726f706f73616c20616374696f6e20606482015274616c7265616479207175657565642061742065746160581b608482015260a401610837565b600554604051633a66f90160e01b81526001600160a01b0390911690633a66f901906115979088908890889088908890600401611f6e565b6020604051808303816000875af11580156115b6573d6000803e3d6000fd5b505050506040513d601f19601f820116820180604052508101906115da9190611a5a565b505050505050565b828054828255906000526020600020908101928215611637579160200282015b8281111561163757825182546001600160a01b0319166001600160a01b03909116178255602090920191600190910190611602565b50611643929150611734565b5090565b828054828255906000526020600020908101928215611637579160200282015b82811115611637578251825591602001919060010190611667565b8280548282559060005260206000209081019282156116cf579160200282015b828111156116cf57825180516116bf918491602090910190611749565b50916020019190600101906116a2565b506116439291506117bc565b828054828255906000526020600020908101928215611728579160200282015b828111156117285782518051611718918491602090910190611749565b50916020019190600101906116fb565b506116439291506117d9565b5b808211156116435760008155600101611735565b82805461175590611a25565b90600052602060002090601f0160209004810192826117775760008555611637565b82601f1061179057805160ff1916838001178555611637565b828001600101855582156116375791820182811115611637578251825591602001919060010190611667565b808211156116435760006117d082826117f6565b506001016117bc565b808211156116435760006117ed82826117f6565b506001016117d9565b50805461180290611a25565b6000825580601f10611812575050565b601f0160209004906000526020600020908101906118309190611734565b50565b60006020828403121561184557600080fd5b5035919050565b60005b8381101561186757818101518382015260200161184f565b8381111561090d5750506000910152565b6000815180845261189081602086016020860161184c565b601f01601f19169290920160200192915050565b6020815260006114246020830184611878565b6001600160a01b038116811461183057600080fd5b6000602082840312156118de57600080fd5b8135611424816118b7565b6000815180845260208085019450848260051b860182860160005b8581101561192e57838303895261191c838351611878565b98850198925090840190600101611904565b5090979650505050505050565b6080808252855190820181905260009060209060a0840190828901845b8281101561197d5781516001600160a01b031684529284019290840190600101611958565b5050508381038285015286518082528783019183019060005b818110156119b257835183529284019291840191600101611996565b505084810360408601526119c681886118e9565b9250505082810360608401526119dc81856118e9565b979650505050505050565b634e487b7160e01b600052602160045260246000fd5b6020810160038310611a1f57634e487b7160e01b600052602160045260246000fd5b91905290565b600181811c90821680611a3957607f821691505b602082108114156107cf57634e487b7160e01b600052602260045260246000fd5b600060208284031215611a6c57600080fd5b5051919050565b634e487b7160e01b600052604160045260246000fd5b60405160e0810167ffffffffffffffff81118282101715611aac57611aac611a73565b60405290565b604051601f8201601f1916810167ffffffffffffffff81118282101715611adb57611adb611a73565b604052919050565b600082601f830112611af457600080fd5b815167ffffffffffffffff811115611b0e57611b0e611a73565b611b21601f8201601f1916602001611ab2565b818152846020838601011115611b3657600080fd5b611b4782602083016020870161184c565b949350505050565b600067ffffffffffffffff821115611b6957611b69611a73565b5060051b60200190565b600082601f830112611b8457600080fd5b81516020611b99611b9483611b4f565b611ab2565b82815260059290921b84018101918181019086841115611bb857600080fd5b8286015b84811015611bdc578051611bcf816118b7565b8352918301918301611bbc565b509695505050505050565b600082601f830112611bf857600080fd5b81516020611c08611b9483611b4f565b82815260059290921b84018101918181019086841115611c2757600080fd5b8286015b84811015611bdc5780518352918301918301611c2b565b600082601f830112611c5357600080fd5b81516020611c63611b9483611b4f565b82815260059290921b84018101918181019086841115611c8257600080fd5b8286015b84811015611bdc57805167ffffffffffffffff811115611ca65760008081fd5b611cb48986838b0101611ae3565b845250918301918301611c86565b600060208284031215611cd457600080fd5b815167ffffffffffffffff80821115611cec57600080fd5b9083019060e08286031215611d0057600080fd5b611d08611a89565b82518152602083015182811115611d1e57600080fd5b611d2a87828601611ae3565b602083015250604083015182811115611d4257600080fd5b611d4e87828601611ae3565b604083015250606083015182811115611d6657600080fd5b611d7287828601611b73565b606083015250608083015182811115611d8a57600080fd5b611d9687828601611be7565b60808301525060a083015182811115611dae57600080fd5b611dba87828601611c42565b60a08301525060c083015182811115611dd257600080fd5b611dde87828601611c42565b60c08301525095945050505050565b634e487b7160e01b600052603260045260246000fd5b634e487b7160e01b600052601160045260246000fd5b6000600019821415611e2d57611e2d611e03565b5060010190565b8054600090600181811c9080831680611e4e57607f831692505b6020808410821415611e7057634e487b7160e01b600052602260045260246000fd5b838852818015611e875760018114611e9b57611ec9565b60ff19861689830152604089019650611ec9565b876000528160002060005b86811015611ec15781548b8201850152908501908301611ea6565b8a0183019750505b50505050505092915050565b60018060a01b038616815284602082015260a060408201526000611efc60a0830186611e34565b8281036060840152611f0e8186611e34565b9150508260808301529695505050505050565b600060208284031215611f3357600080fd5b815167ffffffffffffffff811115611f4a57600080fd5b611b4784828501611ae3565b60008219821115611f6957611f69611e03565b500190565b60018060a01b038616815284602082015260a060408201526000611f9560a0830186611878565b8281036060840152611f0e8186611878565b600060208284031215611fb957600080fd5b8151801515811461142457600080fdfea2646970667358221220c149420543ef89942c71e34559e8bd48e4a0ec832c8d09276467e80ac6bc3e8e64736f6c634300080b0033",
  "devdoc": {
    "kind": "dev",
    "methods": {
      "_acceptAdmin()": {
        "details": "Admin function for pending admin to accept role and update admin"
      },
      "_initiate()": {
        "details": "Admin only. Sets initial proposal id which initiates the contract, ensuring a continuous proposal id count"
      },
      "_setPendingAdmin(address)": {
        "details": "Admin function to begin change of admin. The newPendingAdmin must call `_acceptAdmin` to finalize the transfer.",
        "params": {
          "newPendingAdmin": "New pending admin."
        }
      },
      "execute(uint256)": {
        "params": {
          "proposalId": "The id of the proposal to execute"
        }
      },
      "getActions(uint256)": {
        "params": {
          "proposalId": "the id of the proposal"
        },
        "returns": {
          "calldatas": "of the proposal actions",
          "signatures": "of the proposal actions",
          "targets": "of the proposal actions",
          "values": "of the proposal actions"
        }
      },
      "initialize(address)": {
        "params": {
          "timelock_": "The address of the Timelock"
        }
      },
      "queue(uint256)": {
        "params": {
          "proposalId": "The id of the proposal to queue"
        }
      },
      "state(uint256)": {
        "params": {
          "proposalId": "The id of the proposal"
        },
        "returns": {
          "_0": "Proposal state"
        }
      }
    },
    "version": 1
  },
  "userdoc": {
    "events": {
      "NewAdmin(address,address)": {
        "notice": "Emitted when pendingAdmin is accepted, which means admin is updated"
      },
      "NewImplementation(address,address)": {
        "notice": "Emitted when implementation is changed"
      },
      "NewPendingAdmin(address,address)": {
        "notice": "Emitted when pendingAdmin is changed"
      },
      "ProposalCanceled(uint256)": {
        "notice": "An event emitted when a proposal has been canceled"
      },
      "ProposalCreated(uint256,address,address[],uint256[],string[],bytes[],uint256,uint256,string)": {
        "notice": "An event emitted when a new proposal is created"
      },
      "ProposalExecuted(uint256)": {
        "notice": "An event emitted when a proposal has been executed in the Timelock"
      },
      "ProposalQueued(uint256,uint256)": {
        "notice": "An event emitted when a proposal has been queued in the Timelock"
      },
      "ProposalThresholdSet(uint256,uint256)": {
        "notice": "Emitted when proposal threshold is set"
      }
    },
    "kind": "user",
    "methods": {
      "BALLOT_TYPEHASH()": {
        "notice": "The EIP-712 typehash for the ballot struct used by the contract"
      },
      "DOMAIN_TYPEHASH()": {
        "notice": "The EIP-712 typehash for the contract's domain"
      },
      "_acceptAdmin()": {
        "notice": "Accepts transfer of admin rights. msg.sender must be pendingAdmin"
      },
      "_initiate()": {
        "notice": "Initiate the GovernorBravo contract"
      },
      "_setPendingAdmin(address)": {
        "notice": "Begins transfer of admin rights. The newPendingAdmin must call `_acceptAdmin` to finalize the transfer."
      },
      "admin()": {
        "notice": "Administrator for this contract"
      },
      "execute(uint256)": {
        "notice": "Executes a queued proposal if eta has passed"
      },
      "getActions(uint256)": {
        "notice": "Gets actions of a proposal"
      },
      "implementation()": {
        "notice": "Active brains of Governor"
      },
      "initialize(address)": {
        "notice": "Used to initialize the contract during delegator constructor"
      },
      "latestProposalIds(address)": {
        "notice": "The latest proposal for each proposer"
      },
      "name()": {
        "notice": "The name of this contract"
      },
      "pendingAdmin()": {
        "notice": "Pending administrator for this contract"
      },
      "proposalMaxOperations()": {
        "notice": "The maximum number of actions that can be included in a proposal"
      },
      "proposalThreshold()": {
        "notice": "The number of votes required in order for a voter to become a proposer"
      },
      "proposals(uint256)": {
        "notice": "The official record of all proposals ever proposed"
      },
      "queue(uint256)": {
        "notice": "Queues a proposal of state succeeded"
      },
      "state(uint256)": {
        "notice": "Gets the state of a proposal"
      },
      "timelock()": {
        "notice": "The address of the Compound Protocol Timelock"
      }
    },
    "version": 1
  },
  "storageLayout": {
    "storage": [
      {
        "astId": 18394,
        "contract": "contracts/Governance/GovernorBravoDelegate.sol:GovernorBravoDelegate",
        "label": "admin",
        "offset": 0,
        "slot": "0",
        "type": "t_address"
      },
      {
        "astId": 18397,
        "contract": "contracts/Governance/GovernorBravoDelegate.sol:GovernorBravoDelegate",
        "label": "pendingAdmin",
        "offset": 0,
        "slot": "1",
        "type": "t_address"
      },
      {
        "astId": 18400,
        "contract": "contracts/Governance/GovernorBravoDelegate.sol:GovernorBravoDelegate",
        "label": "implementation",
        "offset": 0,
        "slot": "2",
        "type": "t_address"
      },
      {
        "astId": 18407,
        "contract": "contracts/Governance/GovernorBravoDelegate.sol:GovernorBravoDelegate",
        "label": "proposalThreshold",
        "offset": 0,
        "slot": "3",
        "type": "t_uint256"
      },
      {
        "astId": 18409,
        "contract": "contracts/Governance/GovernorBravoDelegate.sol:GovernorBravoDelegate",
        "label": "initialProposalId",
        "offset": 0,
        "slot": "4",
        "type": "t_uint256"
      },
      {
        "astId": 18413,
        "contract": "contracts/Governance/GovernorBravoDelegate.sol:GovernorBravoDelegate",
        "label": "timelock",
        "offset": 0,
        "slot": "5",
        "type": "t_contract(TimelockInterface)18531"
      },
      {
        "astId": 18419,
        "contract": "contracts/Governance/GovernorBravoDelegate.sol:GovernorBravoDelegate",
        "label": "proposals",
        "offset": 0,
        "slot": "6",
        "type": "t_mapping(t_uint256,t_struct(Proposal)18456_storage)"
      },
      {
        "astId": 18424,
        "contract": "contracts/Governance/GovernorBravoDelegate.sol:GovernorBravoDelegate",
        "label": "latestProposalIds",
        "offset": 0,
        "slot": "7",
        "type": "t_mapping(t_address,t_uint256)"
      },
      {
        "astId": 18466,
        "contract": "contracts/Governance/GovernorBravoDelegate.sol:GovernorBravoDelegate",
        "label": "unigov",
        "offset": 0,
        "slot": "8",
        "type": "t_contract(IProposal)18561"
      }
    ],
    "types": {
      "t_address": {
        "encoding": "inplace",
        "label": "address",
        "numberOfBytes": "20"
      },
      "t_array(t_address)dyn_storage": {
        "base": "t_address",
        "encoding": "dynamic_array",
        "label": "address[]",
        "numberOfBytes": "32"
      },
      "t_array(t_bytes_storage)dyn_storage": {
        "base": "t_bytes_storage",
        "encoding": "dynamic_array",
        "label": "bytes[]",
        "numberOfBytes": "32"
      },
      "t_array(t_string_storage)dyn_storage": {
        "base": "t_string_storage",
        "encoding": "dynamic_array",
        "label": "string[]",
        "numberOfBytes": "32"
      },
      "t_array(t_uint256)dyn_storage": {
        "base": "t_uint256",
        "encoding": "dynamic_array",
        "label": "uint256[]",
        "numberOfBytes": "32"
      },
      "t_bool": {
        "encoding": "inplace",
        "label": "bool",
        "numberOfBytes": "1"
      },
      "t_bytes_storage": {
        "encoding": "bytes",
        "label": "bytes",
        "numberOfBytes": "32"
      },
      "t_contract(IProposal)18561": {
        "encoding": "inplace",
        "label": "contract IProposal",
        "numberOfBytes": "20"
      },
      "t_contract(TimelockInterface)18531": {
        "encoding": "inplace",
        "label": "contract TimelockInterface",
        "numberOfBytes": "20"
      },
      "t_mapping(t_address,t_uint256)": {
        "encoding": "mapping",
        "key": "t_address",
        "label": "mapping(address => uint256)",
        "numberOfBytes": "32",
        "value": "t_uint256"
      },
      "t_mapping(t_uint256,t_struct(Proposal)18456_storage)": {
        "encoding": "mapping",
        "key": "t_uint256",
        "label": "mapping(uint256 => struct GovernorBravoDelegateStorageV1.Proposal)",
        "numberOfBytes": "32",
        "value": "t_struct(Proposal)18456_storage"
      },
      "t_string_storage": {
        "encoding": "bytes",
        "label": "string",
        "numberOfBytes": "32"
      },
      "t_struct(Proposal)18456_storage": {
        "encoding": "inplace",
        "label": "struct GovernorBravoDelegateStorageV1.Proposal",
        "members": [
          {
            "astId": 18427,
            "contract": "contracts/Governance/GovernorBravoDelegate.sol:GovernorBravoDelegate",
            "label": "id",
            "offset": 0,
            "slot": "0",
            "type": "t_uint256"
          },
          {
            "astId": 18430,
            "contract": "contracts/Governance/GovernorBravoDelegate.sol:GovernorBravoDelegate",
            "label": "proposer",
            "offset": 0,
            "slot": "1",
            "type": "t_address"
          },
          {
            "astId": 18433,
            "contract": "contracts/Governance/GovernorBravoDelegate.sol:GovernorBravoDelegate",
            "label": "eta",
            "offset": 0,
            "slot": "2",
            "type": "t_uint256"
          },
          {
            "astId": 18437,
            "contract": "contracts/Governance/GovernorBravoDelegate.sol:GovernorBravoDelegate",
            "label": "targets",
            "offset": 0,
            "slot": "3",
            "type": "t_array(t_address)dyn_storage"
          },
          {
            "astId": 18441,
            "contract": "contracts/Governance/GovernorBravoDelegate.sol:GovernorBravoDelegate",
            "label": "values",
            "offset": 0,
            "slot": "4",
            "type": "t_array(t_uint256)dyn_storage"
          },
          {
            "astId": 18445,
            "contract": "contracts/Governance/GovernorBravoDelegate.sol:GovernorBravoDelegate",
            "label": "signatures",
            "offset": 0,
            "slot": "5",
            "type": "t_array(t_string_storage)dyn_storage"
          },
          {
            "astId": 18449,
            "contract": "contracts/Governance/GovernorBravoDelegate.sol:GovernorBravoDelegate",
            "label": "calldatas",
            "offset": 0,
            "slot": "6",
            "type": "t_array(t_bytes_storage)dyn_storage"
          },
          {
            "astId": 18452,
            "contract": "contracts/Governance/GovernorBravoDelegate.sol:GovernorBravoDelegate",
            "label": "canceled",
            "offset": 0,
            "slot": "7",
            "type": "t_bool"
          },
          {
            "astId": 18455,
            "contract": "contracts/Governance/GovernorBravoDelegate.sol:GovernorBravoDelegate",
            "label": "executed",
            "offset": 1,
            "slot": "7",
            "type": "t_bool"
          }
        ],
        "numberOfBytes": "256"
      },
      "t_uint256": {
        "encoding": "inplace",
        "label": "uint256",
        "numberOfBytes": "32"
      }
    }
  }
}