{
  "address": "0x4BfE8f8526E6a6c44ece3eD093514c2124cEB87d",
  "abi": [
    {
      "inputs": [],
      "stateMutability": "nonpayable",
      "type": "constructor"
    },
    {
      "anonymous": false,
      "inputs": [
        {
          "indexed": true,
          "internalType": "address",
          "name": "owner",
          "type": "address"
        },
        {
          "indexed": true,
          "internalType": "address",
          "name": "spender",
          "type": "address"
        },
        {
          "indexed": false,
          "internalType": "uint256",
          "name": "amount",
          "type": "uint256"
        }
      ],
      "name": "Approval",
      "type": "event"
    },
    {
      "anonymous": false,
      "inputs": [
        {
          "indexed": true,
          "internalType": "address",
          "name": "from",
          "type": "address"
        },
        {
          "indexed": true,
          "internalType": "address",
          "name": "to",
          "type": "address"
        },
        {
          "indexed": false,
          "internalType": "uint256",
          "name": "amount",
          "type": "uint256"
        }
      ],
      "name": "Transfer",
      "type": "event"
    },
    {
      "inputs": [],
      "name": "RetAccountant",
      "outputs": [
        {
          "internalType": "address",
          "name": "",
          "type": "address"
        }
      ],
      "stateMutability": "view",
      "type": "function"
    },
    {
      "inputs": [],
      "name": "_initialSupply",
      "outputs": [
        {
          "internalType": "uint256",
          "name": "",
          "type": "uint256"
        }
      ],
      "stateMutability": "view",
      "type": "function"
    },
    {
      "inputs": [
        {
          "internalType": "address",
          "name": "accountant_",
          "type": "address"
        }
      ],
      "name": "_setAccountantAddress",
      "outputs": [],
      "stateMutability": "nonpayable",
      "type": "function"
    },
    {
      "inputs": [],
      "name": "accountant",
      "outputs": [
        {
          "internalType": "address",
          "name": "",
          "type": "address"
        }
      ],
      "stateMutability": "view",
      "type": "function"
    },
    {
      "inputs": [],
      "name": "admin",
      "outputs": [
        {
          "internalType": "address",
          "name": "",
          "type": "address"
        }
      ],
      "stateMutability": "view",
      "type": "function"
    },
    {
      "inputs": [
        {
          "internalType": "address",
          "name": "owner",
          "type": "address"
        },
        {
          "internalType": "address",
          "name": "spender",
          "type": "address"
        }
      ],
      "name": "allowance",
      "outputs": [
        {
          "internalType": "uint256",
          "name": "",
          "type": "uint256"
        }
      ],
      "stateMutability": "view",
      "type": "function"
    },
    {
      "inputs": [
        {
          "internalType": "address",
          "name": "spender",
          "type": "address"
        },
        {
          "internalType": "uint256",
          "name": "amount",
          "type": "uint256"
        }
      ],
      "name": "approve",
      "outputs": [
        {
          "internalType": "bool",
          "name": "",
          "type": "bool"
        }
      ],
      "stateMutability": "nonpayable",
      "type": "function"
    },
    {
      "inputs": [
        {
          "internalType": "address",
          "name": "account",
          "type": "address"
        }
      ],
      "name": "balanceOf",
      "outputs": [
        {
          "internalType": "uint256",
          "name": "",
          "type": "uint256"
        }
      ],
      "stateMutability": "view",
      "type": "function"
    },
    {
      "inputs": [],
      "name": "decimals",
      "outputs": [
        {
          "internalType": "uint8",
          "name": "",
          "type": "uint8"
        }
      ],
      "stateMutability": "view",
      "type": "function"
    },
    {
      "inputs": [
        {
          "internalType": "address",
          "name": "spender",
          "type": "address"
        },
        {
          "internalType": "uint256",
          "name": "subtractedValue",
          "type": "uint256"
        }
      ],
      "name": "decreaseAllowance",
      "outputs": [
        {
          "internalType": "bool",
          "name": "",
          "type": "bool"
        }
      ],
      "stateMutability": "nonpayable",
      "type": "function"
    },
    {
      "inputs": [
        {
          "internalType": "address",
          "name": "spender",
          "type": "address"
        },
        {
          "internalType": "uint256",
          "name": "addedValue",
          "type": "uint256"
        }
      ],
      "name": "increaseAllowance",
      "outputs": [
        {
          "internalType": "bool",
          "name": "",
          "type": "bool"
        }
      ],
      "stateMutability": "nonpayable",
      "type": "function"
    },
    {
      "inputs": [],
      "name": "name",
      "outputs": [
        {
          "internalType": "string",
          "name": "",
          "type": "string"
        }
      ],
      "stateMutability": "view",
      "type": "function"
    },
    {
      "inputs": [],
      "name": "symbol",
      "outputs": [
        {
          "internalType": "string",
          "name": "",
          "type": "string"
        }
      ],
      "stateMutability": "view",
      "type": "function"
    },
    {
      "inputs": [],
      "name": "totalSupply",
      "outputs": [
        {
          "internalType": "uint256",
          "name": "",
          "type": "uint256"
        }
      ],
      "stateMutability": "view",
      "type": "function"
    },
    {
      "inputs": [
        {
          "internalType": "address",
          "name": "to",
          "type": "address"
        },
        {
          "internalType": "uint256",
          "name": "amount",
          "type": "uint256"
        }
      ],
      "name": "transfer",
      "outputs": [
        {
          "internalType": "bool",
          "name": "",
          "type": "bool"
        }
      ],
      "stateMutability": "nonpayable",
      "type": "function"
    },
    {
      "inputs": [
        {
          "internalType": "address",
          "name": "from",
          "type": "address"
        },
        {
          "internalType": "address",
          "name": "to",
          "type": "address"
        },
        {
          "internalType": "uint256",
          "name": "amount",
          "type": "uint256"
        }
      ],
      "name": "transferFrom",
      "outputs": [
        {
          "internalType": "bool",
          "name": "",
          "type": "bool"
        }
      ],
      "stateMutability": "nonpayable",
      "type": "function"
    }
  ],
  "transactionHash": "0x4977f6f9e0eb417416722192c328b5e4b0e31ca992749f7ea4294d701c17cea7",
  "args": [],
  "numDeployments": 3,
  "solcInputHash": "e0d58323eecab65c0e238d24be016b29",
  "bytecode": "0x608060405260001960065534801561001657600080fd5b506040805180820182526004808252634e6f746560e01b60208084019182528451808601909552828552634e4f544560e01b90850152825192939260009261005f929091610095565b508151610073906005906020850190610095565b5060038190556002555050600880546001600160a01b03191633179055610169565b8280546100a19061012e565b90600052602060002090601f0160209004810192826100c35760008555610109565b82601f106100dc57805160ff1916838001178555610109565b82800160010185558215610109579182015b828111156101095782518255916020019190600101906100ee565b50610115929150610119565b5090565b5b80821115610115576000815560010161011a565b600181811c9082168061014257607f821691505b6020821081141561016357634e487b7160e01b600052602260045260246000fd5b50919050565b610af7806101786000396000f3fe608060405234801561001057600080fd5b50600436106101005760003560e01c806370a0823111610097578063c3b2d33711610066578063c3b2d3371461021c578063dd62ed3e14610225578063f7e5930014610238578063f851a4401461024d57600080fd5b806370a08231146101c557806395d89b41146101ee578063a457c2d7146101f6578063a9059cbb1461020957600080fd5b8063313ce567116100d3578063313ce5671461016b578063395093511461017a5780634e2a792e1461018d5780634fb3ccc5146101b257600080fd5b806306fdde0314610105578063095ea7b31461012357806318160ddd1461014657806323b872dd14610158575b600080fd5b61010d610260565b60405161011a9190610915565b60405180910390f35b610136610131366004610986565b6102f2565b604051901515815260200161011a565b6002545b60405190815260200161011a565b6101366101663660046109b0565b61030a565b6040516012815260200161011a565b610136610188366004610986565b61032e565b6007546001600160a01b03165b6040516001600160a01b03909116815260200161011a565b60075461019a906001600160a01b031681565b61014a6101d33660046109ec565b6001600160a01b031660009081526020819052604090205490565b61010d610350565b610136610204366004610986565b61035f565b610136610217366004610986565b6103e1565b61014a60035481565b61014a610233366004610a0e565b6103ef565b61024b6102463660046109ec565b61041a565b005b60085461019a906001600160a01b031681565b60606004805461026f90610a41565b80601f016020809104026020016040519081016040528092919081815260200182805461029b90610a41565b80156102e85780601f106102bd576101008083540402835291602001916102e8565b820191906000526020600020905b8154815290600101906020018083116102cb57829003601f168201915b5050505050905090565b6000336103008185856104b7565b5060019392505050565b6000336103188582856105db565b610323858585610657565b506001949350505050565b60003361030081858561034183836103ef565b61034b9190610a92565b6104b7565b60606005805461026f90610a41565b6000338161036d82866103ef565b9050838110156103d25760405162461bcd60e51b815260206004820152602560248201527f45524332303a2064656372656173656420616c6c6f77616e63652062656c6f77604482015264207a65726f60d81b60648201526084015b60405180910390fd5b610323828661034b8785610aaa565b600033610300818585610657565b6001600160a01b03918216600090815260016020908152604080832093909416825291909152205490565b6008546001600160a01b0316331461043157600080fd5b6007546001600160a01b03161561044757600080fd5b600780546001600160a01b0319166001600160a01b038316908117909155600090815260208190526040902054600019146104b457600754610491906001600160a01b031661082f565b600754600880546001600160a01b0319166001600160a01b039092169190911790555b50565b6001600160a01b0383166105195760405162461bcd60e51b8152602060048201526024808201527f45524332303a20617070726f76652066726f6d20746865207a65726f206164646044820152637265737360e01b60648201526084016103c9565b6001600160a01b03821661057a5760405162461bcd60e51b815260206004820152602260248201527f45524332303a20617070726f766520746f20746865207a65726f206164647265604482015261737360f01b60648201526084016103c9565b6001600160a01b0383811660008181526001602090815260408083209487168084529482529182902085905590518481527f8c5be1e5ebec7d5bd14f71427d1e84f3dd0314c0f7b2291e5b200ac8c7c3b925910160405180910390a3505050565b60006105e784846103ef565b9050600654811461065157818110156106425760405162461bcd60e51b815260206004820152601d60248201527f45524332303a20696e73756666696369656e7420616c6c6f77616e636500000060448201526064016103c9565b610651848461034b8585610aaa565b50505050565b6001600160a01b0383166106bb5760405162461bcd60e51b815260206004820152602560248201527f45524332303a207472616e736665722066726f6d20746865207a65726f206164604482015264647265737360d81b60648201526084016103c9565b6001600160a01b03821661071d5760405162461bcd60e51b815260206004820152602360248201527f45524332303a207472616e7366657220746f20746865207a65726f206164647260448201526265737360e81b60648201526084016103c9565b6001600160a01b038316600090815260208190526040902054818110156107955760405162461bcd60e51b815260206004820152602660248201527f45524332303a207472616e7366657220616d6f756e7420657863656564732062604482015265616c616e636560d01b60648201526084016103c9565b61079f8282610aaa565b6001600160a01b0380861660009081526020819052604080822093909355908516815290812080548492906107d5908490610a92565b92505081905550826001600160a01b0316846001600160a01b03167fddf252ad1be2c89b69c2b068fc378daa952ba7f163c4a11628f55a4df523b3ef8460405161082191815260200190565b60405180910390a350505050565b6104b4816000196001600160a01b03821661088c5760405162461bcd60e51b815260206004820152601f60248201527f45524332303a206d696e7420746f20746865207a65726f20616464726573730060448201526064016103c9565b806002600082825461089e9190610a92565b90915550506001600160a01b038216600090815260208190526040812080548392906108cb908490610a92565b90915550506040518181526001600160a01b038316906000907fddf252ad1be2c89b69c2b068fc378daa952ba7f163c4a11628f55a4df523b3ef9060200160405180910390a35050565b600060208083528351808285015260005b8181101561094257858101830151858201604001528201610926565b81811115610954576000604083870101525b50601f01601f1916929092016040019392505050565b80356001600160a01b038116811461098157600080fd5b919050565b6000806040838503121561099957600080fd5b6109a28361096a565b946020939093013593505050565b6000806000606084860312156109c557600080fd5b6109ce8461096a565b92506109dc6020850161096a565b9150604084013590509250925092565b6000602082840312156109fe57600080fd5b610a078261096a565b9392505050565b60008060408385031215610a2157600080fd5b610a2a8361096a565b9150610a386020840161096a565b90509250929050565b600181811c90821680610a5557607f821691505b60208210811415610a7657634e487b7160e01b600052602260045260246000fd5b50919050565b634e487b7160e01b600052601160045260246000fd5b60008219821115610aa557610aa5610a7c565b500190565b600082821015610abc57610abc610a7c565b50039056fea264697066735822122036c830614d6e0d3c4ea93332d94233735de757f9b5f9eeaeff1d25e537b9b14d64736f6c634300080b0033",
  "devdoc": {
    "kind": "dev",
    "methods": {
      "allowance(address,address)": {
        "details": "See {IERC20-allowance}."
      },
      "approve(address,uint256)": {
        "details": "See {IERC20-approve}. NOTE: If `amount` is the maximum `uint256`, the allowance is not updated on `transferFrom`. This is semantically equivalent to an infinite approval. Requirements: - `spender` cannot be the zero address."
      },
      "balanceOf(address)": {
        "details": "See {IERC20-balanceOf}."
      },
      "decimals()": {
        "details": "Returns the number of decimals used to get its user representation. For example, if `decimals` equals `2`, a balance of `505` tokens should be displayed to a user as `5.05` (`505 / 10 ** 2`). Tokens usually opt for a value of 18, imitating the relationship between Ether and Wei. This is the value {ERC20} uses, unless this function is overridden; NOTE: This information is only used for _display_ purposes: it in no way affects any of the arithmetic of the contract, including {IERC20-balanceOf} and {IERC20-transfer}."
      },
      "decreaseAllowance(address,uint256)": {
        "details": "Atomically decreases the allowance granted to `spender` by the caller. This is an alternative to {approve} that can be used as a mitigation for problems described in {IERC20-approve}. Emits an {Approval} event indicating the updated allowance. Requirements: - `spender` cannot be the zero address. - `spender` must have allowance for the caller of at least `subtractedValue`."
      },
      "increaseAllowance(address,uint256)": {
        "details": "Atomically increases the allowance granted to `spender` by the caller. This is an alternative to {approve} that can be used as a mitigation for problems described in {IERC20-approve}. Emits an {Approval} event indicating the updated allowance. Requirements: - `spender` cannot be the zero address."
      },
      "name()": {
        "details": "Returns the name of the token."
      },
      "symbol()": {
        "details": "Returns the symbol of the token, usually a shorter version of the name."
      },
      "totalSupply()": {
        "details": "See {IERC20-totalSupply}."
      },
      "transfer(address,uint256)": {
        "details": "See {IERC20-transfer}. Requirements: - `to` cannot be the zero address. - the caller must have a balance of at least `amount`."
      },
      "transferFrom(address,address,uint256)": {
        "details": "See {IERC20-transferFrom}. Emits an {Approval} event indicating the updated allowance. This is not required by the EIP. See the note at the beginning of {ERC20}. NOTE: Does not update the allowance if the current allowance is the maximum `uint256`. Requirements: - `from` and `to` cannot be the zero address. - `from` must have a balance of at least `amount`. - the caller must have allowance for ``from``'s tokens of at least `amount`."
      }
    },
    "version": 1
  },
  "userdoc": {
    "kind": "user",
    "methods": {},
    "version": 1
  },
  "storageLayout": {
    "storage": [
      {
        "astId": 15177,
        "contract": "contracts/Note.sol:Note",
        "label": "_balances",
        "offset": 0,
        "slot": "0",
        "type": "t_mapping(t_address,t_uint256)"
      },
      {
        "astId": 15183,
        "contract": "contracts/Note.sol:Note",
        "label": "_allowances",
        "offset": 0,
        "slot": "1",
        "type": "t_mapping(t_address,t_mapping(t_address,t_uint256))"
      },
      {
        "astId": 15185,
        "contract": "contracts/Note.sol:Note",
        "label": "_totalSupply",
        "offset": 0,
        "slot": "2",
        "type": "t_uint256"
      },
      {
        "astId": 15187,
        "contract": "contracts/Note.sol:Note",
        "label": "_initialSupply",
        "offset": 0,
        "slot": "3",
        "type": "t_uint256"
      },
      {
        "astId": 15189,
        "contract": "contracts/Note.sol:Note",
        "label": "_name",
        "offset": 0,
        "slot": "4",
        "type": "t_string_storage"
      },
      {
        "astId": 15191,
        "contract": "contracts/Note.sol:Note",
        "label": "_symbol",
        "offset": 0,
        "slot": "5",
        "type": "t_string_storage"
      },
      {
        "astId": 15198,
        "contract": "contracts/Note.sol:Note",
        "label": "MAX_INT",
        "offset": 0,
        "slot": "6",
        "type": "t_uint256"
      },
      {
        "astId": 20388,
        "contract": "contracts/Note.sol:Note",
        "label": "accountant",
        "offset": 0,
        "slot": "7",
        "type": "t_address"
      },
      {
        "astId": 20390,
        "contract": "contracts/Note.sol:Note",
        "label": "admin",
        "offset": 0,
        "slot": "8",
        "type": "t_address"
      }
    ],
    "types": {
      "t_address": {
        "encoding": "inplace",
        "label": "address",
        "numberOfBytes": "20"
      },
      "t_mapping(t_address,t_mapping(t_address,t_uint256))": {
        "encoding": "mapping",
        "key": "t_address",
        "label": "mapping(address => mapping(address => uint256))",
        "numberOfBytes": "32",
        "value": "t_mapping(t_address,t_uint256)"
      },
      "t_mapping(t_address,t_uint256)": {
        "encoding": "mapping",
        "key": "t_address",
        "label": "mapping(address => uint256)",
        "numberOfBytes": "32",
        "value": "t_uint256"
      },
      "t_string_storage": {
        "encoding": "bytes",
        "label": "string",
        "numberOfBytes": "32"
      },
      "t_uint256": {
        "encoding": "inplace",
        "label": "uint256",
        "numberOfBytes": "32"
      }
    }
  }
}