{
  "address": "0x34cfa1DfF7927E67875E1B0928461005CEbF0bCE",
  "abi": [
    {
      "inputs": [
        {
          "internalType": "uint256",
          "name": "_baseRatePerYear",
          "type": "uint256"
        }
      ],
      "stateMutability": "nonpayable",
      "type": "constructor"
    },
    {
      "inputs": [
        {
          "internalType": "contract CToken",
          "name": "ctoken",
          "type": "address"
        }
      ],
      "name": "FailedPriceRetrieval",
      "type": "error"
    },
    {
      "inputs": [
        {
          "internalType": "address",
          "name": "sender",
          "type": "address"
        }
      ],
      "name": "SenderNotAdmin",
      "type": "error"
    },
    {
      "anonymous": false,
      "inputs": [
        {
          "indexed": false,
          "internalType": "uint256",
          "name": "oldAdjusterCoefficient",
          "type": "uint256"
        },
        {
          "indexed": false,
          "internalType": "uint256",
          "name": "newAdjusterCoefficient",
          "type": "uint256"
        }
      ],
      "name": "NewAdjusterCoefficient",
      "type": "event"
    },
    {
      "anonymous": false,
      "inputs": [
        {
          "indexed": false,
          "internalType": "address",
          "name": "oldAdmin",
          "type": "address"
        },
        {
          "indexed": false,
          "internalType": "address",
          "name": "newAdmin",
          "type": "address"
        }
      ],
      "name": "NewAdmin",
      "type": "event"
    },
    {
      "anonymous": false,
      "inputs": [
        {
          "indexed": false,
          "internalType": "uint256",
          "name": "oldBaseRateMantissa",
          "type": "uint256"
        },
        {
          "indexed": false,
          "internalType": "uint256",
          "name": "newBaseRateMantissa",
          "type": "uint256"
        }
      ],
      "name": "NewBaseRate",
      "type": "event"
    },
    {
      "anonymous": false,
      "inputs": [
        {
          "indexed": false,
          "internalType": "uint256",
          "name": "baserateperblock",
          "type": "uint256"
        }
      ],
      "name": "NewInterestParams",
      "type": "event"
    },
    {
      "anonymous": false,
      "inputs": [
        {
          "indexed": false,
          "internalType": "address",
          "name": "oldOracle",
          "type": "address"
        },
        {
          "indexed": false,
          "internalType": "address",
          "name": "newOracle",
          "type": "address"
        }
      ],
      "name": "NewPriceOracle",
      "type": "event"
    },
    {
      "anonymous": false,
      "inputs": [
        {
          "indexed": false,
          "internalType": "uint256",
          "name": "oldUpdateFrequency",
          "type": "uint256"
        },
        {
          "indexed": false,
          "internalType": "uint256",
          "name": "newUpdateFrequency",
          "type": "uint256"
        }
      ],
      "name": "NewUpdateFrequency",
      "type": "event"
    },
    {
      "inputs": [],
      "name": "BASE",
      "outputs": [
        {
          "internalType": "int256",
          "name": "",
          "type": "int256"
        }
      ],
      "stateMutability": "view",
      "type": "function"
    },
    {
      "inputs": [],
      "name": "BlocksPerYear",
      "outputs": [
        {
          "internalType": "uint256",
          "name": "",
          "type": "uint256"
        }
      ],
      "stateMutability": "view",
      "type": "function"
    },
    {
      "inputs": [
        {
          "internalType": "uint256",
          "name": "newAdjusterCoefficient",
          "type": "uint256"
        }
      ],
      "name": "_setAdjusterCoefficient",
      "outputs": [],
      "stateMutability": "nonpayable",
      "type": "function"
    },
    {
      "inputs": [
        {
          "internalType": "uint256",
          "name": "newBaseRateMantissa",
          "type": "uint256"
        }
      ],
      "name": "_setBaseRatePerYear",
      "outputs": [],
      "stateMutability": "nonpayable",
      "type": "function"
    },
    {
      "inputs": [
        {
          "internalType": "uint256",
          "name": "newUpdateFrequency",
          "type": "uint256"
        }
      ],
      "name": "_setUpdateFrequency",
      "outputs": [],
      "stateMutability": "nonpayable",
      "type": "function"
    },
    {
      "inputs": [],
      "name": "adjusterCoefficient",
      "outputs": [
        {
          "internalType": "uint256",
          "name": "",
          "type": "uint256"
        }
      ],
      "stateMutability": "view",
      "type": "function"
    },
    {
      "inputs": [],
      "name": "baseRatePerBlock",
      "outputs": [
        {
          "internalType": "uint256",
          "name": "",
          "type": "uint256"
        }
      ],
      "stateMutability": "view",
      "type": "function"
    },
    {
      "inputs": [],
      "name": "baseRatePerYear",
      "outputs": [
        {
          "internalType": "uint256",
          "name": "",
          "type": "uint256"
        }
      ],
      "stateMutability": "view",
      "type": "function"
    },
    {
      "inputs": [],
      "name": "cNote",
      "outputs": [
        {
          "internalType": "contract CErc20",
          "name": "",
          "type": "address"
        }
      ],
      "stateMutability": "view",
      "type": "function"
    },
    {
      "inputs": [
        {
          "internalType": "uint256",
          "name": "cash",
          "type": "uint256"
        },
        {
          "internalType": "uint256",
          "name": "borrows",
          "type": "uint256"
        },
        {
          "internalType": "uint256",
          "name": "reserves",
          "type": "uint256"
        }
      ],
      "name": "getBorrowRate",
      "outputs": [
        {
          "internalType": "uint256",
          "name": "",
          "type": "uint256"
        }
      ],
      "stateMutability": "view",
      "type": "function"
    },
    {
      "inputs": [
        {
          "internalType": "uint256",
          "name": "cash",
          "type": "uint256"
        },
        {
          "internalType": "uint256",
          "name": "borrows",
          "type": "uint256"
        },
        {
          "internalType": "uint256",
          "name": "reserves",
          "type": "uint256"
        },
        {
          "internalType": "uint256",
          "name": "reserveFactorMantissa",
          "type": "uint256"
        }
      ],
      "name": "getSupplyRate",
      "outputs": [
        {
          "internalType": "uint256",
          "name": "",
          "type": "uint256"
        }
      ],
      "stateMutability": "view",
      "type": "function"
    },
    {
      "inputs": [
        {
          "internalType": "address",
          "name": "noteAddr",
          "type": "address"
        },
        {
          "internalType": "address",
          "name": "oracleAddress",
          "type": "address"
        }
      ],
      "name": "initialize",
      "outputs": [],
      "stateMutability": "nonpayable",
      "type": "function"
    },
    {
      "inputs": [],
      "name": "isInterestRateModel",
      "outputs": [
        {
          "internalType": "bool",
          "name": "",
          "type": "bool"
        }
      ],
      "stateMutability": "view",
      "type": "function"
    },
    {
      "inputs": [],
      "name": "lastUpdateBlock",
      "outputs": [
        {
          "internalType": "uint256",
          "name": "",
          "type": "uint256"
        }
      ],
      "stateMutability": "view",
      "type": "function"
    },
    {
      "inputs": [],
      "name": "oracle",
      "outputs": [
        {
          "internalType": "contract PriceOracle",
          "name": "",
          "type": "address"
        }
      ],
      "stateMutability": "view",
      "type": "function"
    },
    {
      "inputs": [
        {
          "internalType": "address",
          "name": "newAdmin",
          "type": "address"
        }
      ],
      "name": "setAdmin",
      "outputs": [],
      "stateMutability": "nonpayable",
      "type": "function"
    },
    {
      "inputs": [
        {
          "internalType": "uint256",
          "name": "newBaseRatePerYear",
          "type": "uint256"
        }
      ],
      "name": "updateBaseRate",
      "outputs": [],
      "stateMutability": "nonpayable",
      "type": "function"
    },
    {
      "inputs": [],
      "name": "updateFrequency",
      "outputs": [
        {
          "internalType": "uint256",
          "name": "",
          "type": "uint256"
        }
      ],
      "stateMutability": "view",
      "type": "function"
    }
  ],
  "transactionHash": "0x5c894a90c23c554cecb7a43215a0ef734d8eb33fe8c45522a83bd063c176d78c",
  "args": [
    "2000000000000000"
  ],
  "numDeployments": 3,
  "solcInputHash": "e0d58323eecab65c0e238d24be016b29",
  "bytecode": "0x60806040524360005534801561001457600080fd5b50604051610de5380380610de583398101604081905261003391610133565b8060018190555061005462503340826100a460201b6107281790919060201c565b60028190556040519081527f482980278ae2c1b5635532c44722d084a208f79b8f4212a3fc8e6042901552cb9060200160405180910390a150600780546001600160a01b031916331790556101c3565b60006100ec83836040518060400160405280601a81526020017f536166654d6174683a206469766973696f6e206279207a65726f0000000000008152506100f360201b60201c565b9392505050565b6000818361011d5760405162461bcd60e51b8152600401610114919061014c565b60405180910390fd5b50600061012a84866101a1565b95945050505050565b60006020828403121561014557600080fd5b5051919050565b600060208083528351808285015260005b818110156101795785810183015185820160400152820161015d565b8181111561018b576000604083870101525b50601f01601f1916929092016040019392505050565b6000826101be57634e487b7160e01b600052601260045260246000fd5b500490565b610c13806101d26000396000f3fe608060405234801561001057600080fd5b50600436106101165760003560e01c8063673ea086116100a2578063a6b7cf6d11610071578063a6b7cf6d1461021d578063b816881614610230578063de3f948514610243578063ec342ad01461024c578063f14039de1461025b57600080fd5b8063673ea086146101cd578063704b6c02146101d65780637dc0d1d0146101e9578063a218141b1461021457600080fd5b80632d349a94116100e95780632d349a9414610178578063330283aa14610181578063477caf6b14610194578063485cc955146101a75780634930e038146101ba57600080fd5b80630984dea41461011b57806315f24053146101385780632191f92a1461014b57806324d6f33314610163575b600080fd5b6101256250334081565b6040519081526020015b60405180910390f35b610125610146366004610904565b610264565b610153600181565b604051901515815260200161012f565b610176610171366004610930565b610276565b005b61012560035481565b61017661018f366004610930565b61032f565b6101766101a2366004610930565b6104d4565b6101766101b5366004610965565b610584565b6101766101c8366004610930565b610622565b61012560045481565b6101766101e4366004610998565b6106c6565b6005546101fc906001600160a01b031681565b6040516001600160a01b03909116815260200161012f565b61012560005481565b6006546101fc906001600160a01b031681565b61012561023e3660046109b3565b610715565b61012560015481565b610125670de0b6b3a764000081565b61012560025481565b600061026e610771565b949350505050565b6007546001600160a01b031633146102e95760405162461bcd60e51b815260206004820152602b60248201527f6f6e6c79207468652061646d696e206d6179207365742074686520757064617460448201526a65206672657175656e637960a81b60648201526084015b60405180910390fd5b600480549082905560408051828152602081018490527f24eb712b5908e642132e2dd0ee4c85e189162ea03242c80f82d94db64f2ba9d191015b60405180910390a15050565b6007546001600160a01b031633146103995760405162461bcd60e51b815260206004820152602760248201527f6f6e6c79207468652061646d696e206d617920757064617465207468652062616044820152667365207261746560c81b60648201526084016102e0565b600080544391906103ab908390610863565b90506004548111156104cf5760055460065460405163fc57d4df60e01b81526001600160a01b039182166004820152600092919091169063fc57d4df90602401602060405180830381865afa158015610408573d6000803e3d6000fd5b505050506040513d601f19601f8201168201806040525081019061042c91906109e5565b9050600061044282670de0b6b3a7640000610a14565b90506000670de0b6b3a76400006003548361045d9190610a53565b6104679190610aee565b90506000600154826104799190610b1c565b9050600081121561048b57600061048d565b805b600181905560008790556040519081527f482980278ae2c1b5635532c44722d084a208f79b8f4212a3fc8e6042901552cb9060200160405180910390a1505050505b505050565b6007546001600160a01b031633146105465760405162461bcd60e51b815260206004820152602f60248201527f6f6e6c79207468652061646d696e206d617920736574207468652061646a757360448201526e1d195c8818dbd959999a58da595b9d608a1b60648201526084016102e0565b600380549082905560408051828152602081018490527fae1920adb21e7676257fad295b40649a2bea63dc815e66532950aba41e2d4fee9101610323565b6007546001600160a01b031633146105b15760405163c0d4daef60e01b81523360048201526024016102e0565b60058054600680546001600160a01b038681166001600160a01b0319928316179092558482169083168117909355604080519190921680825260208201939093527fd52b2b9b7e9ee655fcb95d2e5b9e0c9f69e7ef2b8e9d2d0ea78402d576d22e22910160405180910390a1505050565b6007546001600160a01b031633146106885760405162461bcd60e51b8152602060048201526024808201527f6f6e6c79207468652061646d696e206d617920736574207468652062617365206044820152637261746560e01b60648201526084016102e0565b600180549082905560408051828152602081018490527f725ddbfd43744d5aa9deca7b3f1d89f8d0ab476b969a23d69d083f5b37d994369101610323565b6007546001600160a01b031633146106f35760405163c0d4daef60e01b81523360048201526024016102e0565b600780546001600160a01b0319166001600160a01b0392909216919091179055565b600061071f610771565b95945050505050565b600061076a83836040518060400160405280601a81526020017f536166654d6174683a206469766973696f6e206279207a65726f0000000000008152506108a5565b9392505050565b60055460065460405163fc57d4df60e01b81526001600160a01b0391821660048201526000928392169063fc57d4df90602401602060405180830381865afa1580156107c1573d6000803e3d6000fd5b505050506040513d601f19601f820116820180604052508101906107e591906109e5565b905060006107fb82670de0b6b3a7640000610a14565b90506000670de0b6b3a7640000600354836108169190610a53565b6108209190610aee565b90506000600154826108329190610b1c565b9050600080821215610845576000610847565b815b905060006108588262503340610728565b979650505050505050565b600061076a83836040518060400160405280601f81526020017f536166654d6174683a207375627472616374696f6e20756e646572666c6f77008152506108d3565b600081836108c65760405162461bcd60e51b81526004016102e09190610b5d565b50600061071f8486610bb2565b600081848411156108f75760405162461bcd60e51b81526004016102e09190610b5d565b50600061071f8486610bc6565b60008060006060848603121561091957600080fd5b505081359360208301359350604090920135919050565b60006020828403121561094257600080fd5b5035919050565b80356001600160a01b038116811461096057600080fd5b919050565b6000806040838503121561097857600080fd5b61098183610949565b915061098f60208401610949565b90509250929050565b6000602082840312156109aa57600080fd5b61076a82610949565b600080600080608085870312156109c957600080fd5b5050823594602084013594506040840135936060013592509050565b6000602082840312156109f757600080fd5b5051919050565b634e487b7160e01b600052601160045260246000fd5b60008083128015600160ff1b850184121615610a3257610a326109fe565b6001600160ff1b0384018313811615610a4d57610a4d6109fe565b50500390565b60006001600160ff1b0381841382841380821686840486111615610a7957610a796109fe565b600160ff1b6000871282811687830589121615610a9857610a986109fe565b60008712925087820587128484161615610ab457610ab46109fe565b87850587128184161615610aca57610aca6109fe565b505050929093029392505050565b634e487b7160e01b600052601260045260246000fd5b600082610afd57610afd610ad8565b600160ff1b821460001984141615610b1757610b176109fe565b500590565b600080821280156001600160ff1b0384900385131615610b3e57610b3e6109fe565b600160ff1b8390038412811615610b5757610b576109fe565b50500190565b600060208083528351808285015260005b81811015610b8a57858101830151858201604001528201610b6e565b81811115610b9c576000604083870101525b50601f01601f1916929092016040019392505050565b600082610bc157610bc1610ad8565b500490565b600082821015610bd857610bd86109fe565b50039056fea26469706673582212204eac1a1246b2d4c981b2f0101cb7ab4ff3f8c52232a86882bcd38dff2a6bb89c64736f6c634300080b0033",
  "devdoc": {
    "author": "canto",
    "kind": "dev",
    "methods": {
      "_setAdjusterCoefficient(uint256)": {
        "details": "Admin function to set per-market adjuster coefficient",
        "params": {
          "newAdjusterCoefficient": "The new adjuster coefficient, scaled by 1e18"
        }
      },
      "_setBaseRatePerYear(uint256)": {
        "details": "Admin function to set per-market base interest rate",
        "params": {
          "newBaseRateMantissa": "The new base interest rate, scaled by 1e18"
        }
      },
      "_setUpdateFrequency(uint256)": {
        "details": "Admin function to set the update frequency",
        "params": {
          "newUpdateFrequency": "The new update frequency, scaled by 1e18"
        }
      },
      "constructor": {
        "params": {
          "_baseRatePerYear": "The approximate target base APR, as a mantissa (scaled by 1e18), set by admin, default 2%"
        }
      },
      "getBorrowRate(uint256,uint256,uint256)": {
        "params": {
          "borrows": "The total amount of borrows the market has outstanding",
          "cash": "The total amount of cash the market has",
          "reserves": "The total amount of reserves the market has"
        },
        "returns": {
          "_0": "The borrow rate per block (as a percentage, and scaled by 1e18)"
        }
      },
      "getSupplyRate(uint256,uint256,uint256,uint256)": {
        "returns": {
          "_0": "Note's supply rate percentage per block as a mantissa (scaled by 1e18)"
        }
      },
      "updateBaseRate(uint256)": {
        "params": {
          "newBaseRatePerYear": "The new base rate per year of Note"
        }
      }
    },
    "title": "note's interest rate model contract",
    "version": 1
  },
  "userdoc": {
    "errors": {
      "FailedPriceRetrieval(address)": [
        {
          "notice": "reverted if the getUnderlying Price fails "
        }
      ],
      "SenderNotAdmin(address)": [
        {
          "notice": "reverted if sender is not admin"
        }
      ]
    },
    "events": {
      "NewAdjusterCoefficient(uint256,uint256)": {
        "notice": "Emitted when adjuster coefficient is changed by admin"
      },
      "NewAdmin(address,address)": {
        "notice": "Emitted when new admin is set"
      },
      "NewBaseRate(uint256,uint256)": {
        "notice": "Emitted when base rate is changed by admin"
      },
      "NewInterestParams(uint256)": {
        "notice": "Emitted when new baserateperblock is set"
      },
      "NewPriceOracle(address,address)": {
        "notice": "Emitted when new PriceOracle is set"
      },
      "NewUpdateFrequency(uint256,uint256)": {
        "notice": "Emitted when update frequency is changed by admin"
      }
    },
    "kind": "user",
    "methods": {
      "BlocksPerYear()": {
        "notice": "The approximate number of blocks per year that is assumed by the interest rate model"
      },
      "_setAdjusterCoefficient(uint256)": {
        "notice": "Sets the adjuster coefficient for Note"
      },
      "_setBaseRatePerYear(uint256)": {
        "notice": "Sets the base interest rate for Note"
      },
      "_setUpdateFrequency(uint256)": {
        "notice": "Sets the update frequency for Note's interest rate"
      },
      "adjusterCoefficient()": {
        "notice": "The level of aggressiveness to adjust interest rate according to twap's deviation from the peg"
      },
      "baseRatePerBlock()": {
        "notice": "baseRatePerBlock The per block interest rate, as a mantissa (scaled by 1e18)"
      },
      "baseRatePerYear()": {
        "notice": "baseRatePerYear The per year interest rate, as a mantissa (scaled by 1e18)"
      },
      "cNote()": {
        "notice": "The CToken identifier for Note"
      },
      "constructor": {
        "notice": "Construct an interest rate model"
      },
      "getBorrowRate(uint256,uint256,uint256)": {
        "notice": "Calculates the current borrow interest rate per block"
      },
      "getSupplyRate(uint256,uint256,uint256,uint256)": {
        "notice": "Calculates the current supply rate per block, which is the same as the borrow rateThe following parameters are irrelevent for calculating Note's interest rate. They are passed in to align with the standard function definition `getSupplyRate` in InterestRateModel"
      },
      "isInterestRateModel()": {
        "notice": "Indicator that this is an InterestRateModel contract (for inspection)"
      },
      "lastUpdateBlock()": {
        "notice": "The variable to keep track of the last update on Note's interest rate, initialized at the current block number"
      },
      "updateBaseRate(uint256)": {
        "notice": "Updates the Note's base rate per year at a given intervalThis function should be called at a given interval (TBD)"
      },
      "updateFrequency()": {
        "notice": "The frequency of updating Note's base rate"
      }
    },
    "version": 1
  },
  "storageLayout": {
    "storage": [
      {
        "astId": 20500,
        "contract": "contracts/NoteInterest.sol:NoteRateModel",
        "label": "lastUpdateBlock",
        "offset": 0,
        "slot": "0",
        "type": "t_uint256"
      },
      {
        "astId": 20503,
        "contract": "contracts/NoteInterest.sol:NoteRateModel",
        "label": "baseRatePerYear",
        "offset": 0,
        "slot": "1",
        "type": "t_uint256"
      },
      {
        "astId": 20506,
        "contract": "contracts/NoteInterest.sol:NoteRateModel",
        "label": "baseRatePerBlock",
        "offset": 0,
        "slot": "2",
        "type": "t_uint256"
      },
      {
        "astId": 20509,
        "contract": "contracts/NoteInterest.sol:NoteRateModel",
        "label": "adjusterCoefficient",
        "offset": 0,
        "slot": "3",
        "type": "t_uint256"
      },
      {
        "astId": 20512,
        "contract": "contracts/NoteInterest.sol:NoteRateModel",
        "label": "updateFrequency",
        "offset": 0,
        "slot": "4",
        "type": "t_uint256"
      },
      {
        "astId": 20515,
        "contract": "contracts/NoteInterest.sol:NoteRateModel",
        "label": "oracle",
        "offset": 0,
        "slot": "5",
        "type": "t_contract(PriceOracle)20955"
      },
      {
        "astId": 20519,
        "contract": "contracts/NoteInterest.sol:NoteRateModel",
        "label": "cNote",
        "offset": 0,
        "slot": "6",
        "type": "t_contract(CErc20)1973"
      },
      {
        "astId": 20522,
        "contract": "contracts/NoteInterest.sol:NoteRateModel",
        "label": "admin",
        "offset": 0,
        "slot": "7",
        "type": "t_address"
      }
    ],
    "types": {
      "t_address": {
        "encoding": "inplace",
        "label": "address",
        "numberOfBytes": "20"
      },
      "t_contract(CErc20)1973": {
        "encoding": "inplace",
        "label": "contract CErc20",
        "numberOfBytes": "20"
      },
      "t_contract(PriceOracle)20955": {
        "encoding": "inplace",
        "label": "contract PriceOracle",
        "numberOfBytes": "20"
      },
      "t_uint256": {
        "encoding": "inplace",
        "label": "uint256",
        "numberOfBytes": "32"
      }
    }
  }
}