{
  "address": "0x90e882371b6e860aD4EF4063Fa9d980F560875E9",
  "abi": [
    {
      "inputs": [
        {
          "internalType": "address",
          "name": "note_",
          "type": "address"
        },
        {
          "internalType": "address",
          "name": "implementation_",
          "type": "address"
        },
        {
          "internalType": "address",
          "name": "admin_",
          "type": "address"
        }
      ],
      "stateMutability": "nonpayable",
      "type": "constructor"
    },
    {
      "inputs": [],
      "name": "FailedInitialization",
      "type": "error"
    },
    {
      "inputs": [
        {
          "internalType": "uint256",
          "name": "balance",
          "type": "uint256"
        },
        {
          "internalType": "uint256",
          "name": "funds",
          "type": "uint256"
        }
      ],
      "name": "InsufficientFunds",
      "type": "error"
    },
    {
      "inputs": [],
      "name": "InvalidAddress",
      "type": "error"
    },
    {
      "inputs": [
        {
          "internalType": "uint256",
          "name": "amount",
          "type": "uint256"
        }
      ],
      "name": "SendFundError",
      "type": "error"
    },
    {
      "inputs": [
        {
          "internalType": "address",
          "name": "sender",
          "type": "address"
        }
      ],
      "name": "SenderNotAdmin",
      "type": "error"
    },
    {
      "anonymous": false,
      "inputs": [
        {
          "indexed": false,
          "internalType": "address",
          "name": "oldImplementation",
          "type": "address"
        },
        {
          "indexed": false,
          "internalType": "address",
          "name": "newImplementation",
          "type": "address"
        }
      ],
      "name": "NewImplementation",
      "type": "event"
    },
    {
      "anonymous": false,
      "inputs": [
        {
          "indexed": false,
          "internalType": "address",
          "name": "sender",
          "type": "address"
        },
        {
          "indexed": false,
          "internalType": "uint256",
          "name": "amount",
          "type": "uint256"
        }
      ],
      "name": "Received",
      "type": "event"
    },
    {
      "stateMutability": "payable",
      "type": "fallback"
    },
    {
      "inputs": [],
      "name": "admin",
      "outputs": [
        {
          "internalType": "address",
          "name": "",
          "type": "address"
        }
      ],
      "stateMutability": "view",
      "type": "function"
    },
    {
      "inputs": [
        {
          "internalType": "bytes",
          "name": "data",
          "type": "bytes"
        }
      ],
      "name": "delegateToImplementation",
      "outputs": [
        {
          "internalType": "bytes",
          "name": "",
          "type": "bytes"
        }
      ],
      "stateMutability": "nonpayable",
      "type": "function"
    },
    {
      "inputs": [
        {
          "internalType": "bytes",
          "name": "data",
          "type": "bytes"
        }
      ],
      "name": "delegateToViewImplementation",
      "outputs": [
        {
          "internalType": "bytes",
          "name": "",
          "type": "bytes"
        }
      ],
      "stateMutability": "view",
      "type": "function"
    },
    {
      "inputs": [],
      "name": "implementation",
      "outputs": [
        {
          "internalType": "address",
          "name": "",
          "type": "address"
        }
      ],
      "stateMutability": "view",
      "type": "function"
    },
    {
      "inputs": [],
      "name": "note",
      "outputs": [
        {
          "internalType": "contract EIP20Interface",
          "name": "",
          "type": "address"
        }
      ],
      "stateMutability": "view",
      "type": "function"
    },
    {
      "inputs": [],
      "name": "queryCantoBalance",
      "outputs": [
        {
          "internalType": "uint256",
          "name": "",
          "type": "uint256"
        }
      ],
      "stateMutability": "view",
      "type": "function"
    },
    {
      "inputs": [],
      "name": "queryNoteBalance",
      "outputs": [
        {
          "internalType": "uint256",
          "name": "",
          "type": "uint256"
        }
      ],
      "stateMutability": "view",
      "type": "function"
    },
    {
      "inputs": [
        {
          "internalType": "address",
          "name": "cNote",
          "type": "address"
        },
        {
          "internalType": "uint256",
          "name": "cTokens",
          "type": "uint256"
        }
      ],
      "name": "redeem",
      "outputs": [],
      "stateMutability": "nonpayable",
      "type": "function"
    },
    {
      "inputs": [
        {
          "internalType": "address",
          "name": "recipient",
          "type": "address"
        },
        {
          "internalType": "uint256",
          "name": "amount",
          "type": "uint256"
        },
        {
          "internalType": "string",
          "name": "denom",
          "type": "string"
        }
      ],
      "name": "sendFund",
      "outputs": [],
      "stateMutability": "nonpayable",
      "type": "function"
    },
    {
      "inputs": [
        {
          "internalType": "address",
          "name": "implementation_",
          "type": "address"
        }
      ],
      "name": "setImplementation",
      "outputs": [],
      "stateMutability": "nonpayable",
      "type": "function"
    },
    {
      "inputs": [],
      "name": "unigov",
      "outputs": [
        {
          "internalType": "contract IProposal",
          "name": "",
          "type": "address"
        }
      ],
      "stateMutability": "view",
      "type": "function"
    },
    {
      "stateMutability": "payable",
      "type": "receive"
    }
  ],
  "transactionHash": "0x4827cbab5509e0d088981b6bc02532dcb2503687bfbbd3ec554171bada0aa60d",
  "args": [
    "0x4BfE8f8526E6a6c44ece3eD093514c2124cEB87d",
    "0xd9fc27CBc9BDF5850B902EcAD36244F4d72375bA",
    "0x1e67D1727e467E1102D6a31c17fDB664945148AD"
  ],
  "numDeployments": 3,
  "solcInputHash": "e0d58323eecab65c0e238d24be016b29",
  "bytecode": "0x60806040523480156200001157600080fd5b5060405162000e4638038062000e468339810160408190526200003491620002d0565b6001600160a01b0381166200004857600080fd5b600080546001600160a01b031916331790556040516001600160a01b0384166024820152620000aa90839060440160408051601f198184030181529190526020810180516001600160e01b0390811663189acdbd60e31b17909152620000df16565b50620000b6826200015e565b600080546001600160a01b0319166001600160a01b039290921691909117905550620003589050565b6060600080846001600160a01b031684604051620000fe91906200031a565b600060405180830381855af49150503d80600081146200013b576040519150601f19603f3d011682016040523d82523d6000602084013e62000140565b606091505b5091509150600082141562000156573d60208201fd5b949350505050565b6000546001600160a01b03163314620001d35760405162461bcd60e51b8152602060048201526035602482015260008051602062000e2683398151915260448201527f6d656e746174696f6e3a2061646d696e206f6e6c79000000000000000000000060648201526084015b60405180910390fd5b6001600160a01b038116620002525760405162461bcd60e51b8152602060048201526049602482015260008051602062000e2683398151915260448201527f6d656e746174696f6e3a20696e76616c696420696d706c656d656e746174696f6064820152686e206164647265737360b81b608482015260a401620001ca565b600180546001600160a01b038381166001600160a01b031983168117909355604080519190921680825260208201939093527fd604de94d45953f9138079ec1b82d533cb2160c906d1076d1f7ed54befbca97a910160405180910390a15050565b80516001600160a01b0381168114620002cb57600080fd5b919050565b600080600060608486031215620002e657600080fd5b620002f184620002b3565b92506200030160208501620002b3565b91506200031160408501620002b3565b90509250925092565b6000825160005b818110156200033d576020818601810151858301520162000321565b818111156200034d576000828501525b509190910192915050565b610abe80620003686000396000f3fe6080604052600436106100a05760003560e01c80634487152f116100645780634487152f146102975780635c60da1b146102b75780637b26673c146102d757806386439218146102f7578063d784d42614610317578063f851a44014610337576100df565b806303cc29a5146101d35780630933c1ed146101fb5780631ce78bb2146102285780631e9a69501461023d57806326d111f51461025f576100df565b366100df57604080513381523460208201527f88a5966d370b9919b20f3e2c13ff65706f196a4e32cc2c12bf57088f88525874910160405180910390a1005b34156101585760405162461bcd60e51b815260206004820152603960248201527f547265617375727944656c656761746f723a3a66616c6c6261636b3a63616e6e60448201527f6f742073656e642076616c756520746f2066616c6c6261636b0000000000000060648201526084015b60405180910390fd5b6001546040516000916001600160a01b0316906101789083903690610743565b600060405180830381855af49150503d80600081146101b3576040519150601f19603f3d011682016040523d82523d6000602084013e6101b8565b606091505b505090506040513d6000823e8180156101cf573d82f35b3d82fd5b3480156101df57600080fd5b506101e8610357565b6040519081526020015b60405180910390f35b34801561020757600080fd5b5061021b6102163660046107c2565b6103aa565b6040516101f29190610872565b34801561023457600080fd5b506101e86103c9565b34801561024957600080fd5b5061025d6102583660046108c1565b610400565b005b34801561026b57600080fd5b5060025461027f906001600160a01b031681565b6040516001600160a01b0390911681526020016101f2565b3480156102a357600080fd5b5061021b6102b23660046107c2565b610454565b3480156102c357600080fd5b5060015461027f906001600160a01b031681565b3480156102e357600080fd5b5061025d6102f23660046108eb565b61051a565b34801561030357600080fd5b5060035461027f906001600160a01b031681565b34801561032357600080fd5b5061025d610332366004610972565b61056a565b34801561034357600080fd5b5060005461027f906001600160a01b031681565b6040805160048152602481019091526020810180516001600160e01b03166303cc29a560e01b179052600090819061038e90610454565b9050808060200190518101906103a49190610994565b91505090565b6001546060906103c3906001600160a01b0316836106d1565b92915050565b6040805160048152602481019091526020810180516001600160e01b0316630e73c5d960e11b179052600090819061038e90610454565b6040516001600160a01b03831660248201526044810182905261044f9060640160408051601f198184030181529190526020810180516001600160e01b03166301e9a69560e41b1790526103aa565b505050565b6060600080306001600160a01b0316846040516024016104749190610872565b60408051601f198184030181529181526020820180516001600160e01b0316630933c1ed60e01b179052516104a991906109ad565b600060405180830381855afa9150503d80600081146104e4576040519150601f19603f3d011682016040523d82523d6000602084013e6104e9565b606091505b509150915060008214156104fe573d60208201fd5b8080602001905181019061051291906109c9565b949350505050565b610563848484846040516024016105349493929190610a40565b60408051601f198184030181529190526020810180516001600160e01b0316631ec999cf60e21b1790526103aa565b5050505050565b6000546001600160a01b031633146105e25760405162461bcd60e51b815260206004820152603560248201527f476f7665726e6f72427261766f44656c656761746f723a3a736574496d706c656044820152746d656e746174696f6e3a2061646d696e206f6e6c7960581b606482015260840161014f565b6001600160a01b0381166106705760405162461bcd60e51b815260206004820152604960248201527f476f7665726e6f72427261766f44656c656761746f723a3a736574496d706c6560448201527f6d656e746174696f6e3a20696e76616c696420696d706c656d656e746174696f6064820152686e206164647265737360b81b608482015260a40161014f565b600180546001600160a01b038381166001600160a01b031983168117909355604080519190921680825260208201939093527fd604de94d45953f9138079ec1b82d533cb2160c906d1076d1f7ed54befbca97a910160405180910390a15050565b6060600080846001600160a01b0316846040516106ee91906109ad565b600060405180830381855af49150503d8060008114610729576040519150601f19603f3d011682016040523d82523d6000602084013e61072e565b606091505b50915091506000821415610512573d60208201fd5b8183823760009101908152919050565b634e487b7160e01b600052604160045260246000fd5b604051601f8201601f1916810167ffffffffffffffff8111828210171561079257610792610753565b604052919050565b600067ffffffffffffffff8211156107b4576107b4610753565b50601f01601f191660200190565b6000602082840312156107d457600080fd5b813567ffffffffffffffff8111156107eb57600080fd5b8201601f810184136107fc57600080fd5b803561080f61080a8261079a565b610769565b81815285602083850101111561082457600080fd5b81602084016020830137600091810160200191909152949350505050565b60005b8381101561085d578181015183820152602001610845565b8381111561086c576000848401525b50505050565b6020815260008251806020840152610891816040850160208701610842565b601f01601f19169190910160400192915050565b80356001600160a01b03811681146108bc57600080fd5b919050565b600080604083850312156108d457600080fd5b6108dd836108a5565b946020939093013593505050565b6000806000806060858703121561090157600080fd5b61090a856108a5565b935060208501359250604085013567ffffffffffffffff8082111561092e57600080fd5b818701915087601f83011261094257600080fd5b81358181111561095157600080fd5b88602082850101111561096357600080fd5b95989497505060200194505050565b60006020828403121561098457600080fd5b61098d826108a5565b9392505050565b6000602082840312156109a657600080fd5b5051919050565b600082516109bf818460208701610842565b9190910192915050565b6000602082840312156109db57600080fd5b815167ffffffffffffffff8111156109f257600080fd5b8201601f81018413610a0357600080fd5b8051610a1161080a8261079a565b818152856020838501011115610a2657600080fd5b610a37826020830160208601610842565b95945050505050565b6001600160a01b0385168152602081018490526060604082018190528101829052818360808301376000818301608090810191909152601f909201601f19160101939250505056fea2646970667358221220c3f02c48e3f1950a4d59eb37a090e1110894afa94774c57eb7c28d2842a097f064736f6c634300080b0033476f7665726e6f72427261766f44656c656761746f723a3a736574496d706c65",
  "devdoc": {
    "kind": "dev",
    "methods": {
      "constructor": {
        "params": {
          "admin_": ", administrator of contract, generally speaking, will be Timelock",
          "implementation_": ", address of current implementation to delegate calls to",
          "note_": "address of Note ERC20 Contract to receive funds from"
        }
      },
      "delegateToImplementation(bytes)": {
        "details": "It returns to the external caller whatever the impledmentation returns or forwards reverts",
        "params": {
          "data": "The raw data to delegatecall"
        },
        "returns": {
          "_0": "bytes returned bytes from the delegater "
        }
      },
      "delegateToViewImplementation(bytes)": {
        "details": "It returns to the external caller whatever the implementation returns or forwards reverts  There are an additional 2 prefix uints from the wrapper returndata, which we ignore since we make an extra hop.",
        "params": {
          "data": "The raw data to delegatecall"
        },
        "returns": {
          "_0": "bytes returned bytes from the delegatecall"
        }
      },
      "queryCantoBalance()": {
        "returns": {
          "_0": "uint the canto balance"
        }
      },
      "queryNoteBalance()": {
        "returns": {
          "_0": "uint the note balance "
        }
      },
      "sendFund(address,uint256,string)": {
        "params": {
          "amount": "amount of funds to send to recipient",
          "denom": "denomination of funds to send",
          "recipient": "recipient of funds"
        }
      },
      "setImplementation(address)": {
        "params": {
          "implementation_": "The address of the new implementation for delegation"
        }
      }
    },
    "version": 1
  },
  "userdoc": {
    "kind": "user",
    "methods": {
      "delegateToImplementation(bytes)": {
        "notice": "Delegates execution to the implementation contract"
      },
      "delegateToViewImplementation(bytes)": {
        "notice": "Delegates execution to an implementation contract"
      },
      "queryCantoBalance()": {
        "notice": "Method to query current balance of CANTO in the treasury using a DELEGATECALL"
      },
      "queryNoteBalance()": {
        "notice": "Method to query current balance of NOTE in the treasury using a DELEGATECALL"
      },
      "sendFund(address,uint256,string)": {
        "notice": "Method to send funds to recipient using DELEGATECALL"
      },
      "setImplementation(address)": {
        "notice": "Method called by the admin to update the implementation of the delegator"
      }
    },
    "version": 1
  },
  "storageLayout": {
    "storage": [
      {
        "astId": 22675,
        "contract": "contracts/Treasury/TreasuryDelegator.sol:TreasuryDelegator",
        "label": "admin",
        "offset": 0,
        "slot": "0",
        "type": "t_address"
      },
      {
        "astId": 22677,
        "contract": "contracts/Treasury/TreasuryDelegator.sol:TreasuryDelegator",
        "label": "implementation",
        "offset": 0,
        "slot": "1",
        "type": "t_address"
      },
      {
        "astId": 22683,
        "contract": "contracts/Treasury/TreasuryDelegator.sol:TreasuryDelegator",
        "label": "note",
        "offset": 0,
        "slot": "2",
        "type": "t_contract(EIP20Interface)15096"
      },
      {
        "astId": 22686,
        "contract": "contracts/Treasury/TreasuryDelegator.sol:TreasuryDelegator",
        "label": "unigov",
        "offset": 0,
        "slot": "3",
        "type": "t_contract(IProposal)18561"
      }
    ],
    "types": {
      "t_address": {
        "encoding": "inplace",
        "label": "address",
        "numberOfBytes": "20"
      },
      "t_contract(EIP20Interface)15096": {
        "encoding": "inplace",
        "label": "contract EIP20Interface",
        "numberOfBytes": "20"
      },
      "t_contract(IProposal)18561": {
        "encoding": "inplace",
        "label": "contract IProposal",
        "numberOfBytes": "20"
      }
    }
  }
}