{
  "address": "0x1c53A7c762ff9295d6e736E1764BCe6C093EAEB9",
  "abi": [
    {
      "inputs": [],
      "name": "AcceptAdminPendingAdminCheck",
      "type": "error"
    },
    {
      "inputs": [
        {
          "internalType": "uint256",
          "name": "redeemAmount",
          "type": "uint256"
        }
      ],
      "name": "AccountantRedeemError",
      "type": "error"
    },
    {
      "inputs": [
        {
          "internalType": "uint256",
          "name": "borrowAmount",
          "type": "uint256"
        }
      ],
      "name": "AccountantSupplyError",
      "type": "error"
    },
    {
      "inputs": [
        {
          "internalType": "uint256",
          "name": "actualAddAmount",
          "type": "uint256"
        }
      ],
      "name": "AddReservesFactorFreshCheck",
      "type": "error"
    },
    {
      "inputs": [],
      "name": "BorrowCashNotAvailable",
      "type": "error"
    },
    {
      "inputs": [
        {
          "internalType": "uint256",
          "name": "errorCode",
          "type": "uint256"
        }
      ],
      "name": "BorrowComptrollerRejection",
      "type": "error"
    },
    {
      "inputs": [],
      "name": "BorrowFreshnessCheck",
      "type": "error"
    },
    {
      "inputs": [
        {
          "internalType": "uint256",
          "name": "errorCode",
          "type": "uint256"
        }
      ],
      "name": "LiquidateAccrueBorrowInterestFailed",
      "type": "error"
    },
    {
      "inputs": [
        {
          "internalType": "uint256",
          "name": "errorCode",
          "type": "uint256"
        }
      ],
      "name": "LiquidateAccrueCollateralInterestFailed",
      "type": "error"
    },
    {
      "inputs": [],
      "name": "LiquidateCloseAmountIsUintMax",
      "type": "error"
    },
    {
      "inputs": [],
      "name": "LiquidateCloseAmountIsZero",
      "type": "error"
    },
    {
      "inputs": [],
      "name": "LiquidateCollateralFreshnessCheck",
      "type": "error"
    },
    {
      "inputs": [
        {
          "internalType": "uint256",
          "name": "errorCode",
          "type": "uint256"
        }
      ],
      "name": "LiquidateComptrollerRejection",
      "type": "error"
    },
    {
      "inputs": [],
      "name": "LiquidateFreshnessCheck",
      "type": "error"
    },
    {
      "inputs": [],
      "name": "LiquidateLiquidatorIsBorrower",
      "type": "error"
    },
    {
      "inputs": [
        {
          "internalType": "uint256",
          "name": "errorCode",
          "type": "uint256"
        }
      ],
      "name": "LiquidateRepayBorrowFreshFailed",
      "type": "error"
    },
    {
      "inputs": [
        {
          "internalType": "uint256",
          "name": "errorCode",
          "type": "uint256"
        }
      ],
      "name": "LiquidateSeizeComptrollerRejection",
      "type": "error"
    },
    {
      "inputs": [],
      "name": "LiquidateSeizeLiquidatorIsBorrower",
      "type": "error"
    },
    {
      "inputs": [
        {
          "internalType": "uint256",
          "name": "errorCode",
          "type": "uint256"
        }
      ],
      "name": "MintComptrollerRejection",
      "type": "error"
    },
    {
      "inputs": [],
      "name": "MintFreshnessCheck",
      "type": "error"
    },
    {
      "inputs": [
        {
          "internalType": "uint256",
          "name": "errorCode",
          "type": "uint256"
        }
      ],
      "name": "RedeemComptrollerRejection",
      "type": "error"
    },
    {
      "inputs": [],
      "name": "RedeemFreshnessCheck",
      "type": "error"
    },
    {
      "inputs": [],
      "name": "RedeemTransferOutNotPossible",
      "type": "error"
    },
    {
      "inputs": [],
      "name": "ReduceReservesAdminCheck",
      "type": "error"
    },
    {
      "inputs": [],
      "name": "ReduceReservesCashNotAvailable",
      "type": "error"
    },
    {
      "inputs": [],
      "name": "ReduceReservesCashValidation",
      "type": "error"
    },
    {
      "inputs": [],
      "name": "ReduceReservesFreshCheck",
      "type": "error"
    },
    {
      "inputs": [
        {
          "internalType": "uint256",
          "name": "errorCode",
          "type": "uint256"
        }
      ],
      "name": "RepayBorrowComptrollerRejection",
      "type": "error"
    },
    {
      "inputs": [],
      "name": "RepayBorrowFreshnessCheck",
      "type": "error"
    },
    {
      "inputs": [],
      "name": "SetComptrollerOwnerCheck",
      "type": "error"
    },
    {
      "inputs": [],
      "name": "SetInterestRateModelFreshCheck",
      "type": "error"
    },
    {
      "inputs": [],
      "name": "SetInterestRateModelOwnerCheck",
      "type": "error"
    },
    {
      "inputs": [],
      "name": "SetPendingAdminOwnerCheck",
      "type": "error"
    },
    {
      "inputs": [],
      "name": "SetReserveFactorAdminCheck",
      "type": "error"
    },
    {
      "inputs": [],
      "name": "SetReserveFactorBoundsCheck",
      "type": "error"
    },
    {
      "inputs": [],
      "name": "SetReserveFactorFreshCheck",
      "type": "error"
    },
    {
      "inputs": [
        {
          "internalType": "uint256",
          "name": "errorCode",
          "type": "uint256"
        }
      ],
      "name": "TransferComptrollerRejection",
      "type": "error"
    },
    {
      "inputs": [],
      "name": "TransferNotAllowed",
      "type": "error"
    },
    {
      "inputs": [],
      "name": "TransferNotEnough",
      "type": "error"
    },
    {
      "inputs": [],
      "name": "TransferTooMuch",
      "type": "error"
    },
    {
      "anonymous": false,
      "inputs": [
        {
          "indexed": false,
          "internalType": "address",
          "name": "lendingMarketAddress",
          "type": "address"
        }
      ],
      "name": "AcctInit",
      "type": "event"
    },
    {
      "anonymous": false,
      "inputs": [
        {
          "indexed": false,
          "internalType": "uint256",
          "name": "amount",
          "type": "uint256"
        },
        {
          "indexed": false,
          "internalType": "uint256",
          "name": "err",
          "type": "uint256"
        }
      ],
      "name": "AcctSupplied",
      "type": "event"
    },
    {
      "anonymous": false,
      "inputs": [
        {
          "indexed": false,
          "internalType": "uint256",
          "name": "error",
          "type": "uint256"
        },
        {
          "indexed": false,
          "internalType": "uint256",
          "name": "info",
          "type": "uint256"
        },
        {
          "indexed": false,
          "internalType": "uint256",
          "name": "detail",
          "type": "uint256"
        }
      ],
      "name": "Failure",
      "type": "event"
    },
    {
      "inputs": [],
      "name": "NO_ERROR",
      "outputs": [
        {
          "internalType": "uint256",
          "name": "",
          "type": "uint256"
        }
      ],
      "stateMutability": "view",
      "type": "function"
    },
    {
      "inputs": [],
      "name": "admin",
      "outputs": [
        {
          "internalType": "address",
          "name": "",
          "type": "address"
        }
      ],
      "stateMutability": "view",
      "type": "function"
    },
    {
      "inputs": [],
      "name": "cnote",
      "outputs": [
        {
          "internalType": "contract CNote",
          "name": "",
          "type": "address"
        }
      ],
      "stateMutability": "view",
      "type": "function"
    },
    {
      "inputs": [],
      "name": "comptroller",
      "outputs": [
        {
          "internalType": "contract ComptrollerInterface",
          "name": "",
          "type": "address"
        }
      ],
      "stateMutability": "view",
      "type": "function"
    },
    {
      "inputs": [],
      "name": "implementation",
      "outputs": [
        {
          "internalType": "address",
          "name": "",
          "type": "address"
        }
      ],
      "stateMutability": "view",
      "type": "function"
    },
    {
      "inputs": [
        {
          "internalType": "address",
          "name": "treasury_",
          "type": "address"
        },
        {
          "internalType": "address",
          "name": "cnoteAddress_",
          "type": "address"
        },
        {
          "internalType": "address",
          "name": "noteAddress_",
          "type": "address"
        },
        {
          "internalType": "address",
          "name": "comptrollerAddress_",
          "type": "address"
        }
      ],
      "name": "initialize",
      "outputs": [],
      "stateMutability": "nonpayable",
      "type": "function"
    },
    {
      "inputs": [],
      "name": "note",
      "outputs": [
        {
          "internalType": "contract Note",
          "name": "",
          "type": "address"
        }
      ],
      "stateMutability": "view",
      "type": "function"
    },
    {
      "inputs": [
        {
          "internalType": "uint256",
          "name": "amount",
          "type": "uint256"
        }
      ],
      "name": "redeemMarket",
      "outputs": [
        {
          "internalType": "uint256",
          "name": "",
          "type": "uint256"
        }
      ],
      "stateMutability": "nonpayable",
      "type": "function"
    },
    {
      "inputs": [
        {
          "internalType": "uint256",
          "name": "amount",
          "type": "uint256"
        }
      ],
      "name": "supplyMarket",
      "outputs": [
        {
          "internalType": "uint256",
          "name": "",
          "type": "uint256"
        }
      ],
      "stateMutability": "nonpayable",
      "type": "function"
    },
    {
      "inputs": [],
      "name": "sweepInterest",
      "outputs": [
        {
          "internalType": "uint256",
          "name": "",
          "type": "uint256"
        }
      ],
      "stateMutability": "nonpayable",
      "type": "function"
    },
    {
      "inputs": [],
      "name": "treasury",
      "outputs": [
        {
          "internalType": "address",
          "name": "",
          "type": "address"
        }
      ],
      "stateMutability": "view",
      "type": "function"
    },
    {
      "stateMutability": "payable",
      "type": "receive"
    }
  ],
  "transactionHash": "0x43fb485aa78719c94a9d7951eb7a028bbee7a75e3e0c2df855113d4aae1721a9",
  "args": [],
  "numDeployments": 1,
  "solcInputHash": "5799d2548489c0a97a51cad1d151cc60",
  "bytecode": "0x608060405234801561001057600080fd5b50611072806100206000396000f3fe6080604052600436106100a05760003560e01c806369ab32501161006457806369ab32501461016c578063778bc487146101815780638003c7d3146101a1578063b972aa05146101c1578063f851a440146101e1578063f8c8765e1461020157600080fd5b806326d111f5146100ac5780633342f689146100e95780635c60da1b1461010c5780635fe3b5671461012c57806361d027b31461014c57600080fd5b366100a757005b600080fd5b3480156100b857600080fd5b506002546100cc906001600160a01b031681565b6040516001600160a01b0390911681526020015b60405180910390f35b3480156100f557600080fd5b506100fe610223565b6040519081526020016100e0565b34801561011857600080fd5b506001546100cc906001600160a01b031681565b34801561013857600080fd5b506004546100cc906001600160a01b031681565b34801561015857600080fd5b506005546100cc906001600160a01b031681565b34801561017857600080fd5b506100fe600081565b34801561018d57600080fd5b506100fe61019c366004610dbd565b61052a565b3480156101ad57600080fd5b506100fe6101bc366004610dbd565b610673565b3480156101cd57600080fd5b506003546100cc906001600160a01b031681565b3480156101ed57600080fd5b506000546100cc906001600160a01b031681565b34801561020d57600080fd5b5061022161021c366004610df2565b610809565b005b6002546040516370a0823160e01b815230600482015260009182916001600160a01b03909116906370a0823190602401602060405180830381865afa158015610270573d6000803e3d6000fd5b505050506040513d601f19601f820116820180604052508101906102949190610e46565b600354604051633af9e66960e01b81523060048201529192506000916001600160a01b0390911690633af9e669906024016020604051808303816000875af11580156102e4573d6000803e3d6000fd5b505050506040513d601f19601f820116820180604052508101906103089190610e46565b905060006040518060200160405280600360009054906101000a90046001600160a01b03166001600160a01b031663182df0f56040518163ffffffff1660e01b8152600401602060405180830381865afa15801561036a573d6000803e3d6000fd5b505050506040513d601f19601f8201168201806040525081019061038e9190610e46565b90529050600061039e8284610cbe565b90506000610422600260009054906101000a90046001600160a01b03166001600160a01b03166318160ddd6040518163ffffffff1660e01b8152600401602060405180830381865afa1580156103f8573d6000803e3d6000fd5b505050506040513d601f19601f8201168201806040525081019061041c9190610e46565b86610cd6565b9050808210156104955760405162461bcd60e51b815260206004820152603360248201527f4e6f7465204c6f616e656420746f204c656e64696e674d61726b6574206d75736044820152727420696e63726561736520696e2076616c756560681b60648201526084015b60405180910390fd5b60006104a18383610cd6565b60025460055460405163a9059cbb60e01b81526001600160a01b03918216600482015260248101849052929350169063a9059cbb906044016020604051808303816000875af11580156104f8573d6000803e3d6000fd5b505050506040513d601f19601f8201168201806040525081019061051c9190610e5f565b506000965050505050505090565b6003546000906001600160a01b031633146105c15760405162461bcd60e51b815260206004820152604b60248201527f4163636f756e74616e7444656c65676174653a3a737570706c794d61726b657460448201527f3a204f6e6c792074686520434e6f746520636f6e74726163742063616e20737560648201526a1c1c1b1e481b585c9ad95d60aa1b608482015260a40161048c565b60035460405163140e25ad60e31b8152600481018490526000916001600160a01b03169063a0712d68906024016020604051808303816000875af115801561060d573d6000803e3d6000fd5b505050506040513d601f19601f820116820180604052508101906106319190610e46565b60408051858152602081018390529192507f8156ffa74c944903932f7272c0bfdfd8839fa4d1f575f382f57d5ae72d1a8f35910160405180910390a192915050565b6003546000906001600160a01b0316331461070a5760405162461bcd60e51b815260206004820152604b60248201527f4163636f756e74616e7444656c65676174653a3a72656465656d4d61726b657460448201527f3a204f6e6c792074686520434e6f746520636f6e74726163742063616e20726560648201526a1919595b481b585c9ad95d60aa1b608482015260a40161048c565b60408051602080820180845260035463182df0f560e01b909152925160009383926001600160a01b039091169163182df0f591602480860192908187030181865afa15801561075d573d6000803e3d6000fd5b505050506040513d601f19601f820116820180604052508101906107819190610e46565b9052905060006107918285610cbe565b60035460405163db006a7560e01b8152600481018390529192506001600160a01b03169063db006a75906024016020604051808303816000875af11580156107dd573d6000803e3d6000fd5b505050506040513d601f19601f820116820180604052508101906108019190610e46565b949350505050565b6000546001600160a01b031633146108935760405162461bcd60e51b815260206004820152604160248201527f4163636f756e74616e7444656c65676174653a3a696e697469616c697a653a2060448201527f6f6e6c792061646d696e2063616e2063616c6c20746869732066756e6374696f6064820152603760f91b608482015260a40161048c565b6001600160a01b0382166109065760405162461bcd60e51b815260206004820152603460248201527f4163636f756e74616e7444656c65676174653a3a696e697469616c697a653a206044820152731b9bdd19481059191c995cdcc81a5b9d985b1a5960621b606482015260840161048c565b600580546001600160a01b0319166001600160a01b03861617905560408051600180825281830190925260009160208083019080368337019050509050838160008151811061095757610957610e97565b6001600160a01b039283166020918202929092010152600480546001600160a01b0319908116858416178255600280548216878516908117909155600380549092169388169390931790556040516317e3734d60e21b81523391810191909152635f8dcd3490602401600060405180830381600087803b1580156109da57600080fd5b505af11580156109ee573d6000803e3d6000fd5b50505050600260009054906101000a90046001600160a01b03166001600160a01b031663c3b2d3376040518163ffffffff1660e01b8152600401602060405180830381865afa158015610a45573d6000803e3d6000fd5b505050506040513d601f19601f82011682018060405250810190610a699190610e46565b6002546040516370a0823160e01b81523360048201526001600160a01b03909116906370a0823190602401602060405180830381865afa158015610ab1573d6000803e3d6000fd5b505050506040513d601f19601f82011682018060405250810190610ad59190610e46565b14610b565760405162461bcd60e51b8152602060048201526044602482018190527f4163636f756e74616e7444656c65676174653a3a696e69746961746c697a653a908201527f204163636f756e74616e7420686173206e6f74207265636569766564207061796064820152631b595b9d60e21b608482015260a40161048c565b60048054604051631853304760e31b81526000926001600160a01b039092169163c299823891610b8891869101610ead565b6000604051808303816000875af1158015610ba7573d6000803e3d6000fd5b505050506040513d6000823e601f3d908101601f19168201604052610bcf9190810190610efa565b905080600081518110610be457610be4610e97565b6020026020010151600014610c0157610bff60096011610ce9565b505b6040516001600160a01b03861681527f66b7ee3f5e716ea1950e2554720e086c3ea39ada5a90ab123cfda46d48b12ac69060200160405180910390a160025460405163095ea7b360e01b81526001600160a01b03878116600483015260001960248301529091169063095ea7b3906044016020604051808303816000875af1158015610c91573d6000803e3d6000fd5b505050506040513d601f19601f82011682018060405250810190610cb59190610e5f565b50505050505050565b600080610ccb8484610d62565b905061080181610d93565b6000610ce28284610fce565b9392505050565b60007f45b96fe442630264581b197e84bbada861235052c5a1aadfff9ea4e40a969aa0836011811115610d1e57610d1e610fe5565b836013811115610d3057610d30610fe5565b60408051928352602083019190915260009082015260600160405180910390a1826011811115610ce257610ce2610fe5565b6040805160208101909152600081526040518060200160405280610d8a856000015185610db1565b90529392505050565b8051600090610dab90670de0b6b3a764000090610ffb565b92915050565b6000610ce2828461101d565b600060208284031215610dcf57600080fd5b5035919050565b80356001600160a01b0381168114610ded57600080fd5b919050565b60008060008060808587031215610e0857600080fd5b610e1185610dd6565b9350610e1f60208601610dd6565b9250610e2d60408601610dd6565b9150610e3b60608601610dd6565b905092959194509250565b600060208284031215610e5857600080fd5b5051919050565b600060208284031215610e7157600080fd5b81518015158114610ce257600080fd5b634e487b7160e01b600052604160045260246000fd5b634e487b7160e01b600052603260045260246000fd5b6020808252825182820181905260009190848201906040850190845b81811015610eee5783516001600160a01b031683529284019291840191600101610ec9565b50909695505050505050565b60006020808385031215610f0d57600080fd5b825167ffffffffffffffff80821115610f2557600080fd5b818501915085601f830112610f3957600080fd5b815181811115610f4b57610f4b610e81565b8060051b604051601f19603f83011681018181108582111715610f7057610f70610e81565b604052918252848201925083810185019188831115610f8e57600080fd5b938501935b82851015610fac57845184529385019392850192610f93565b98975050505050505050565b634e487b7160e01b600052601160045260246000fd5b600082821015610fe057610fe0610fb8565b500390565b634e487b7160e01b600052602160045260246000fd5b60008261101857634e487b7160e01b600052601260045260246000fd5b500490565b600081600019048311821515161561103757611037610fb8565b50029056fea264697066735822122043ba7cb5300ff921d5cdf3d59c26118e7b4601f00754b7015150ff839dbc564b64736f6c634300080a0033",
  "devdoc": {
    "kind": "dev",
    "methods": {
      "initialize(address,address,address,address)": {
        "params": {
          "cnoteAddress_": "The address of the CNoteDelegator",
          "comptrollerAddress_": "The address of the comptroller contract",
          "noteAddress_": "The address of the note contract"
        }
      },
      "redeemMarket(uint256)": {
        "params": {
          "amount": "Amount to redeem (in CNote)"
        },
        "returns": {
          "_0": "uint Amount of cnote redeemed (amount * exchange rate)"
        }
      },
      "supplyMarket(uint256)": {
        "params": {
          "amount": "the amount to supply"
        },
        "returns": {
          "_0": "uint error code from CNote mint()"
        }
      },
      "sweepInterest()": {
        "returns": {
          "_0": "uint 0"
        }
      }
    },
    "version": 1
  },
  "userdoc": {
    "kind": "user",
    "methods": {
      "initialize(address,address,address,address)": {
        "notice": "Method used to initialize the contract during delegator contructor"
      },
      "redeemMarket(uint256)": {
        "notice": "Method to redeem account CNote from lending market "
      },
      "supplyMarket(uint256)": {
        "notice": "Method to supply markets"
      },
      "sweepInterest()": {
        "notice": "Method to sweep interest earned from accountant depositing note in lending market to the treasury"
      }
    },
    "version": 1
  },
  "storageLayout": {
    "storage": [
      {
        "astId": 578,
        "contract": "contracts/Accountant/AccountantDelegate.sol:AccountantDelegate",
        "label": "admin",
        "offset": 0,
        "slot": "0",
        "type": "t_address"
      },
      {
        "astId": 580,
        "contract": "contracts/Accountant/AccountantDelegate.sol:AccountantDelegate",
        "label": "implementation",
        "offset": 0,
        "slot": "1",
        "type": "t_address"
      },
      {
        "astId": 596,
        "contract": "contracts/Accountant/AccountantDelegate.sol:AccountantDelegate",
        "label": "note",
        "offset": 0,
        "slot": "2",
        "type": "t_contract(Note)22581"
      },
      {
        "astId": 599,
        "contract": "contracts/Accountant/AccountantDelegate.sol:AccountantDelegate",
        "label": "cnote",
        "offset": 0,
        "slot": "3",
        "type": "t_contract(CNote)4073"
      },
      {
        "astId": 602,
        "contract": "contracts/Accountant/AccountantDelegate.sol:AccountantDelegate",
        "label": "comptroller",
        "offset": 0,
        "slot": "4",
        "type": "t_contract(ComptrollerInterface)14784"
      },
      {
        "astId": 604,
        "contract": "contracts/Accountant/AccountantDelegate.sol:AccountantDelegate",
        "label": "treasury",
        "offset": 0,
        "slot": "5",
        "type": "t_address"
      }
    ],
    "types": {
      "t_address": {
        "encoding": "inplace",
        "label": "address",
        "numberOfBytes": "20"
      },
      "t_contract(CNote)4073": {
        "encoding": "inplace",
        "label": "contract CNote",
        "numberOfBytes": "20"
      },
      "t_contract(ComptrollerInterface)14784": {
        "encoding": "inplace",
        "label": "contract ComptrollerInterface",
        "numberOfBytes": "20"
      },
      "t_contract(Note)22581": {
        "encoding": "inplace",
        "label": "contract Note",
        "numberOfBytes": "20"
      }
    }
  }
}