{
  "address": "0xEd79CF5c0FD38CBb599f1A6E0DC7a68Ce2a3B2da",
  "abi": [
    {
      "inputs": [
        {
          "internalType": "uint256",
          "name": "baseRatePerYear",
          "type": "uint256"
        }
      ],
      "stateMutability": "nonpayable",
      "type": "constructor"
    },
    {
      "anonymous": false,
      "inputs": [
        {
          "indexed": false,
          "internalType": "uint256",
          "name": "oldAdjusterCoefficient",
          "type": "uint256"
        },
        {
          "indexed": false,
          "internalType": "uint256",
          "name": "newAdjusterCoefficient",
          "type": "uint256"
        }
      ],
      "name": "NewAdjusterCoefficient",
      "type": "event"
    },
    {
      "anonymous": false,
      "inputs": [
        {
          "indexed": false,
          "internalType": "uint256",
          "name": "oldBaseRateMantissa",
          "type": "uint256"
        },
        {
          "indexed": false,
          "internalType": "uint256",
          "name": "newBaseRateMantissa",
          "type": "uint256"
        }
      ],
      "name": "NewBaseRate",
      "type": "event"
    },
    {
      "anonymous": false,
      "inputs": [
        {
          "indexed": false,
          "internalType": "uint256",
          "name": "baserateperblock",
          "type": "uint256"
        }
      ],
      "name": "NewInterestParams",
      "type": "event"
    },
    {
      "anonymous": false,
      "inputs": [
        {
          "indexed": false,
          "internalType": "uint256",
          "name": "oldUpdateFrequency",
          "type": "uint256"
        },
        {
          "indexed": false,
          "internalType": "uint256",
          "name": "newUpdateFrequency",
          "type": "uint256"
        }
      ],
      "name": "NewUpdateFrequency",
      "type": "event"
    },
    {
      "inputs": [
        {
          "internalType": "uint256",
          "name": "newAdjusterCoefficient",
          "type": "uint256"
        }
      ],
      "name": "_setAdjusterCoefficient",
      "outputs": [],
      "stateMutability": "nonpayable",
      "type": "function"
    },
    {
      "inputs": [
        {
          "internalType": "uint256",
          "name": "newBaseRateMantissa",
          "type": "uint256"
        }
      ],
      "name": "_setBaseRatePerYear",
      "outputs": [],
      "stateMutability": "nonpayable",
      "type": "function"
    },
    {
      "inputs": [
        {
          "internalType": "uint256",
          "name": "newUpdateFrequency",
          "type": "uint256"
        }
      ],
      "name": "_setUpdateFrequency",
      "outputs": [],
      "stateMutability": "nonpayable",
      "type": "function"
    },
    {
      "inputs": [],
      "name": "adjusterCoefficient",
      "outputs": [
        {
          "internalType": "uint256",
          "name": "",
          "type": "uint256"
        }
      ],
      "stateMutability": "view",
      "type": "function"
    },
    {
      "inputs": [],
      "name": "baseRatePerBlock",
      "outputs": [
        {
          "internalType": "uint256",
          "name": "",
          "type": "uint256"
        }
      ],
      "stateMutability": "view",
      "type": "function"
    },
    {
      "inputs": [],
      "name": "baseRatePerYear",
      "outputs": [
        {
          "internalType": "uint256",
          "name": "",
          "type": "uint256"
        }
      ],
      "stateMutability": "view",
      "type": "function"
    },
    {
      "inputs": [],
      "name": "blocksPerYear",
      "outputs": [
        {
          "internalType": "uint256",
          "name": "",
          "type": "uint256"
        }
      ],
      "stateMutability": "view",
      "type": "function"
    },
    {
      "inputs": [
        {
          "internalType": "uint256",
          "name": "cash",
          "type": "uint256"
        },
        {
          "internalType": "uint256",
          "name": "borrows",
          "type": "uint256"
        },
        {
          "internalType": "uint256",
          "name": "reserves",
          "type": "uint256"
        }
      ],
      "name": "getBorrowRate",
      "outputs": [
        {
          "internalType": "uint256",
          "name": "",
          "type": "uint256"
        }
      ],
      "stateMutability": "view",
      "type": "function"
    },
    {
      "inputs": [
        {
          "internalType": "uint256",
          "name": "cash",
          "type": "uint256"
        },
        {
          "internalType": "uint256",
          "name": "borrows",
          "type": "uint256"
        },
        {
          "internalType": "uint256",
          "name": "reserves",
          "type": "uint256"
        },
        {
          "internalType": "uint256",
          "name": "reserveFactorMantissa",
          "type": "uint256"
        }
      ],
      "name": "getSupplyRate",
      "outputs": [
        {
          "internalType": "uint256",
          "name": "",
          "type": "uint256"
        }
      ],
      "stateMutability": "view",
      "type": "function"
    },
    {
      "inputs": [],
      "name": "isInterestRateModel",
      "outputs": [
        {
          "internalType": "bool",
          "name": "",
          "type": "bool"
        }
      ],
      "stateMutability": "view",
      "type": "function"
    },
    {
      "inputs": [],
      "name": "lastUpdateBlock",
      "outputs": [
        {
          "internalType": "uint256",
          "name": "",
          "type": "uint256"
        }
      ],
      "stateMutability": "view",
      "type": "function"
    },
    {
      "inputs": [],
      "name": "note",
      "outputs": [
        {
          "internalType": "contract CToken",
          "name": "",
          "type": "address"
        }
      ],
      "stateMutability": "view",
      "type": "function"
    },
    {
      "inputs": [
        {
          "internalType": "uint256",
          "name": "newBaseRatePerYear",
          "type": "uint256"
        }
      ],
      "name": "updateBaseRate",
      "outputs": [],
      "stateMutability": "nonpayable",
      "type": "function"
    },
    {
      "inputs": [],
      "name": "updateFrequency",
      "outputs": [
        {
          "internalType": "uint256",
          "name": "",
          "type": "uint256"
        }
      ],
      "stateMutability": "view",
      "type": "function"
    }
  ],
  "transactionHash": "0x63d8e10c259e87cd9e44414cd62eb3f555b40d7767bece4dc962d35190d3f020",
  "args": [
    "2000000000000000"
  ],
  "numDeployments": 2,
  "solcInputHash": "73a3d52eabaed561aba3cf4e9e89e22e",
  "bytecode": "0x60806040524360015534801561001457600080fd5b506040516109f53803806109f58339810160408190526100339161012c565b61004d625033408261009d60201b6105101790919060201c565b60038190556040519081527f482980278ae2c1b5635532c44722d084a208f79b8f4212a3fc8e6042901552cb9060200160405180910390a150600080546001600160a01b031916331790556101bc565b60006100e583836040518060400160405280601a81526020017f536166654d6174683a206469766973696f6e206279207a65726f0000000000008152506100ec60201b60201c565b9392505050565b600081836101165760405162461bcd60e51b815260040161010d9190610145565b60405180910390fd5b506000610123848661019a565b95945050505050565b60006020828403121561013e57600080fd5b5051919050565b600060208083528351808285015260005b8181101561017257858101830151858201604001528201610156565b81811115610184576000604083870101525b50601f01601f1916929092016040019392505050565b6000826101b757634e487b7160e01b600052601260045260246000fd5b500490565b61082a806101cb6000396000f3fe608060405234801561001057600080fd5b50600436106100ea5760003560e01c80634930e0381161008c578063a385fb9611610066578063a385fb96146101c1578063b8168816146101cb578063de3f9485146101de578063f14039de146101e757600080fd5b80634930e0381461019c578063673ea086146101af578063a218141b146101b857600080fd5b806326d111f5116100c857806326d111f5146101425780632d349a941461016d578063330283aa14610176578063477caf6b1461018957600080fd5b806315f24053146100ef5780632191f92a1461011557806324d6f3331461012d575b600080fd5b6101026100fd3660046106c5565b6101f0565b6040519081526020015b60405180910390f35b61011d600181565b604051901515815260200161010c565b61014061013b3660046106f1565b61028b565b005b600654610155906001600160a01b031681565b6040516001600160a01b03909116815260200161010c565b61010260045481565b6101406101843660046106f1565b610344565b6101406101973660046106f1565b6103a6565b6101406101aa3660046106f1565b610456565b61010260055481565b61010260015481565b6101026250334081565b6101026101d936600461070a565b6104fa565b61010260025481565b61010260035481565b6040516bffffffffffffffffffffffff193360601b16602082015260009081906064906034016040516020818303038152906040528051906020012060001c6102399190610752565b9050600061026d662386f26fc100006102616002546102676004548760646102619190610766565b9061055b565b906105cf565b905080600061027f8262503340610510565b98975050505050505050565b6000546001600160a01b031633146102fe5760405162461bcd60e51b815260206004820152602b60248201527f6f6e6c79207468652061646d696e206d6179207365742074686520757064617460448201526a65206672657175656e637960a81b60648201526084015b60405180910390fd5b600580549082905560408051828152602081018490527f24eb712b5908e642132e2dd0ee4c85e189162ea03242c80f82d94db64f2ba9d191015b60405180910390a15050565b6001544390600090610357908390610624565b90506005548111156103a157600283905560018290556040518381527f482980278ae2c1b5635532c44722d084a208f79b8f4212a3fc8e6042901552cb9060200160405180910390a15b505050565b6000546001600160a01b031633146104185760405162461bcd60e51b815260206004820152602f60248201527f6f6e6c79207468652061646d696e206d617920736574207468652061646a757360448201526e1d195c8818dbd959999a58da595b9d608a1b60648201526084016102f5565b600480549082905560408051828152602081018490527fae1920adb21e7676257fad295b40649a2bea63dc815e66532950aba41e2d4fee9101610338565b6000546001600160a01b031633146104bc5760405162461bcd60e51b8152602060048201526024808201527f6f6e6c79207468652061646d696e206d617920736574207468652062617365206044820152637261746560e01b60648201526084016102f5565b600280549082905560408051828152602081018490527f725ddbfd43744d5aa9deca7b3f1d89f8d0ab476b969a23d69d083f5b37d994369101610338565b60006105078585856101f0565b95945050505050565b600061055283836040518060400160405280601a81526020017f536166654d6174683a206469766973696f6e206279207a65726f000000000000815250610666565b90505b92915050565b60008261056a57506000610555565b82820282610578858361078b565b146105525760405162461bcd60e51b815260206004820152602160248201527f536166654d6174683a206d756c7469706c69636174696f6e206f766572666c6f6044820152607760f81b60648201526084016102f5565b6000828201838110156105525760405162461bcd60e51b815260206004820152601b60248201527f536166654d6174683a206164646974696f6e206f766572666c6f77000000000060448201526064016102f5565b600061055283836040518060400160405280601f81526020017f536166654d6174683a207375627472616374696f6e20756e646572666c6f7700815250610694565b600081836106875760405162461bcd60e51b81526004016102f5919061079f565b506000610507848661078b565b600081848411156106b85760405162461bcd60e51b81526004016102f5919061079f565b5060006105078486610766565b6000806000606084860312156106da57600080fd5b505081359360208301359350604090920135919050565b60006020828403121561070357600080fd5b5035919050565b6000806000806080858703121561072057600080fd5b5050823594602084013594506040840135936060013592509050565b634e487b7160e01b600052601260045260246000fd5b6000826107615761076161073c565b500690565b60008282101561078657634e487b7160e01b600052601160045260246000fd5b500390565b60008261079a5761079a61073c565b500490565b600060208083528351808285015260005b818110156107cc578581018301518582016040015282016107b0565b818111156107de576000604083870101525b50601f01601f191692909201604001939250505056fea2646970667358221220d6db2c3d0147d175cd510268c874ac6943a2a2d5901b6adace2a2f14bc6e7f3c64736f6c634300080a0033",
  "devdoc": {
    "author": "canto",
    "kind": "dev",
    "methods": {
      "_setAdjusterCoefficient(uint256)": {
        "details": "Admin function to set per-market adjuster coefficient",
        "params": {
          "newAdjusterCoefficient": "The new adjuster coefficient, scaled by 1e18"
        }
      },
      "_setBaseRatePerYear(uint256)": {
        "details": "Admin function to set per-market base interest rate",
        "params": {
          "newBaseRateMantissa": "The new base interest rate, scaled by 1e18"
        }
      },
      "_setUpdateFrequency(uint256)": {
        "details": "Admin function to set the update frequency",
        "params": {
          "newUpdateFrequency": "The new update frequency, scaled by 1e18"
        }
      },
      "constructor": {
        "params": {
          "baseRatePerYear": "The approximate target base APR, as a mantissa (scaled by 1e18), set by admin, default 2%"
        }
      },
      "getBorrowRate(uint256,uint256,uint256)": {
        "returns": {
          "_0": "Note's borrow rate percentage per block as a mantissa (scaled by 1e18)"
        }
      },
      "getSupplyRate(uint256,uint256,uint256,uint256)": {
        "returns": {
          "_0": "Note's supply rate percentage per block as a mantissa (scaled by 1e18)"
        }
      },
      "updateBaseRate(uint256)": {
        "params": {
          "newBaseRatePerYear": "The new base rate per year of Note"
        }
      }
    },
    "title": "note's interest rate model contract",
    "version": 1
  },
  "userdoc": {
    "events": {
      "NewAdjusterCoefficient(uint256,uint256)": {
        "notice": "Emitted when adjuster coefficient is changed by admin"
      },
      "NewBaseRate(uint256,uint256)": {
        "notice": "Emitted when base rate is changed by admin"
      },
      "NewUpdateFrequency(uint256,uint256)": {
        "notice": "Emitted when update frequency is changed by admin"
      }
    },
    "kind": "user",
    "methods": {
      "_setAdjusterCoefficient(uint256)": {
        "notice": "Sets the adjuster coefficient for Note"
      },
      "_setBaseRatePerYear(uint256)": {
        "notice": "Sets the base interest rate for Note"
      },
      "_setUpdateFrequency(uint256)": {
        "notice": "Sets the update frequency for Note's interest rate"
      },
      "adjusterCoefficient()": {
        "notice": "The level of aggressiveness to adjust interest rate according to twap's deviation from the peg"
      },
      "baseRatePerBlock()": {
        "notice": "baseRatePerBlock The per block interest rate, as a mantissa (scaled by 1e18)"
      },
      "baseRatePerYear()": {
        "notice": "baseRatePerYear The per year interest rate, as a mantissa (scaled by 1e18)"
      },
      "blocksPerYear()": {
        "notice": "The approximate number of blocks per year that is assumed by the interest rate model"
      },
      "constructor": {
        "notice": "Construct an interest rate model"
      },
      "getBorrowRate(uint256,uint256,uint256)": {
        "notice": "Calculates the current borrow rate per block, with the error code expected by the marketThe following parameters are irrelevent for calculating Note's interest rate. They are passed in to align with the standard function definition `getBorrowRate` in InterestRateModel"
      },
      "getSupplyRate(uint256,uint256,uint256,uint256)": {
        "notice": "Calculates the current supply rate per block, which is the same as the borrow rateThe following parameters are irrelevent for calculating Note's interest rate. They are passed in to align with the standard function definition `getSupplyRate` in InterestRateModel"
      },
      "isInterestRateModel()": {
        "notice": "Indicator that this is an InterestRateModel contract (for inspection)"
      },
      "lastUpdateBlock()": {
        "notice": "The variable to keep track of the last update on Note's interest rate, initialized at the current block number"
      },
      "note()": {
        "notice": "The CToken identifier for Note"
      },
      "updateBaseRate(uint256)": {
        "notice": "Updates the Note's base rate per year at a given intervalThis function should be called at a given interval (TBD)"
      },
      "updateFrequency()": {
        "notice": "The frequency of updating Note's base rate"
      }
    },
    "version": 1
  },
  "storageLayout": {
    "storage": [
      {
        "astId": 22712,
        "contract": "contracts/NoteInterest.sol:NoteRateModel",
        "label": "admin",
        "offset": 0,
        "slot": "0",
        "type": "t_address"
      },
      {
        "astId": 22721,
        "contract": "contracts/NoteInterest.sol:NoteRateModel",
        "label": "lastUpdateBlock",
        "offset": 0,
        "slot": "1",
        "type": "t_uint256"
      },
      {
        "astId": 22724,
        "contract": "contracts/NoteInterest.sol:NoteRateModel",
        "label": "baseRatePerYear",
        "offset": 0,
        "slot": "2",
        "type": "t_uint256"
      },
      {
        "astId": 22727,
        "contract": "contracts/NoteInterest.sol:NoteRateModel",
        "label": "baseRatePerBlock",
        "offset": 0,
        "slot": "3",
        "type": "t_uint256"
      },
      {
        "astId": 22730,
        "contract": "contracts/NoteInterest.sol:NoteRateModel",
        "label": "adjusterCoefficient",
        "offset": 0,
        "slot": "4",
        "type": "t_uint256"
      },
      {
        "astId": 22733,
        "contract": "contracts/NoteInterest.sol:NoteRateModel",
        "label": "updateFrequency",
        "offset": 0,
        "slot": "5",
        "type": "t_uint256"
      },
      {
        "astId": 22737,
        "contract": "contracts/NoteInterest.sol:NoteRateModel",
        "label": "note",
        "offset": 0,
        "slot": "6",
        "type": "t_contract(CToken)6352"
      }
    ],
    "types": {
      "t_address": {
        "encoding": "inplace",
        "label": "address",
        "numberOfBytes": "20"
      },
      "t_contract(CToken)6352": {
        "encoding": "inplace",
        "label": "contract CToken",
        "numberOfBytes": "20"
      },
      "t_uint256": {
        "encoding": "inplace",
        "label": "uint256",
        "numberOfBytes": "32"
      }
    }
  }
}